:020000040800F2
:1000000098200120197C0008E17B0008E37B0008B0
:10001000E57B0008E77B0008E97B000800000000A2
:10002000000000000000000000000000EB7B000862
:10003000ED7B000800000000EF7B0008F17B00086A
:10004000417C0008457C0008497C00084D7C000884
:10005000517C0008557C0008597C00085D7C000834
:10006000617C0008657C0008697C00086D7C0008E4
:10007000717C0008757C0008797C00087D7C000894
:10008000817C0008857C0008897C00088D7C000844
:10009000917C0008957C0008997C00089D7C0008F4
:1000A000A17C0008A57C0008A97C0008AD7C0008A4
:1000B000B17C0008B57C0008B97C0008BD7C000854
:1000C000C17C0008C57C0008C97C0008CD7C000804
:1000D000D17C0008D57C0008D97C0008DD7C0008B4
:1000E000E17C0008E57C0008E97C0008ED7C000864
:1000F000F17C0008F57C0008F97C0008FD7C000814
:10010000017D0008057D0008097D00080D7D0008BF
:10011000117D0008157D0008197D00081D7D00086F
:10012000217D0008257D0008297D00082D7D00081F
:10013000317D0008357D0008397D00083D7D0008CF
:10014000417D0008457D0008497D00084D7D00087F
:10015000517D0008557D0008597D00085D7D00082F
:10016000617D0008657D0008697D00086D7D0008DF
:10017000717D0008757D0008797D00080000000091
:100180007D7D0008817D0008857D0008897D00084F
:100190008D7D0008917D0008957D0008997D0008FF
:1001A0009D7D0008A17D0008A57D00082DE9F04394
:1001B0009FB000BF65A6269CDFF8B48A8DF83B404F
:1001C000029100240B944FF0FF37044691461D46E0
:1001D0000AE019F8011B0298A0470028029000F0DD
:1001E000A1800B98401C0B9099F8000050B1252875
:1001F000EFD1002100220591069207910892099102
:100200000A9203E00B98A5E041F0010119F8010FF3
:100210002028F9D023280CD02B2804D02D2805D055
:10022000302809D080E041F00201EFE741F00401FD
:10023000ECE741F00801E9E741F01001E6E70D9233
:100240000AE00D98404505DA00EB800002EB400221
:10025000303A0D9209F1010999F80020A2F130001D
:100260000A28EED399F800002E2818BF0C9726D143
:1002700019F8010F2A2808D12868286009F1010916
:1002800050F8042B28600C9219E02D280CBF09F1BE
:100290000109002000220C920BE040B90C9A424563
:1002A00005DA02EB820203EB4203303B0C9309F1C7
:1002B000010999F80030A3F130020A2AEDD3ADF814
:1002C0003810304699F8001000F0A6FE08B119F871
:1002D000010B8DF83A009DF83A00682805D199F88D
:1002E000000068280CD1622106E06C2804BF99F850
:1002F00000006C2804D171218DF83A1009F1010930
:1003000010A804902A4619F8013B6946204600F0DF
:1003100061F838B910AA6946204600F08FF9002824
:100320007FF562AF384615E02A2888D12A682A600E
:1003300052F8040B2A6000280D9003D540420D901E
:1003400041F0040109F101098CE70000686A6C744E
:100350007A4C00001FB0BDE8F083622820D06828E6
:1003600011D06A2803D06C2827D0712825D10868BD
:10037000C01D20F007000860D0E9002308300860A5
:10038000194610467047002A0A680A60106803D0B0
:10039000121D0A6000B217E0121D0A6080B217E059
:1003A000002A0A680A60106803D0121D0A6040B271
:1003B0000AE0121D0A60C0B20AE0002A0A680A6058
:1003C000106803D0121D0A60C1177047121D0A6021
:1003D0000021704770B51C460D46B4F125002E690A
:1003E000114600F019811C3868D0001F022865D919
:1003F000133842D0093861D0801E16D0401E1ED05E
:10040000401E02285AD9001F19D0401F00F08180D9
:10041000401E32D0401E00F0CB80C01E00F0DA80BB
:10042000801E2AD0C01E28D0FCE06869421C6A6188
:100430000A680A6052F8043B0A603354FCE095F8FD
:100440003A000122FFF789FFC5E90001002904D520
:100450006869411C69612D220DE0288F810704D550
:100460006869411C69612B2205E0C00721D56869D4
:10047000411C6961202232541BE095F83A000022A9
:10048000FFF76BFFC5E9000195F83800010710D5AB
:10049000D5E90023002B08BF002A0AD044F0200031
:1004A000782806D1686930213154401C421C6A61A9
:1004B0003454214668693044E86087E00868C01D0C
:1004C00020F007000860D0E9002308300860C5E983
:1004D0000023D5E90001C80F04D06869411C696197
:1004E0002D220DE0288F810704D56869411C6961C0
:1004F0002B2205E0C00704D56869411C69612022F0
:10050000325468693044E8602146284600F0C4F956
:1005100092E005F13A02507820B14FF0FF340FF627
:10052000202062E01078622808D0682824D06A2849
:1005300012D06C282ED071280ED02BE00A680A60E9
:1005400052F8040B0A6020B94FF0FF340FF6082070
:100550004BE0E96A01706FE00A680A6052F8040B28
:100560000A6020B94FF0FF340FF6EC103DE0EA6A64
:10057000D317C0E900235FE00A680A6052F8040B51
:100580000A6020B94FF0FF340FF6CC102DE0E96A75
:10059000018051E00A680A6052F8040B0A6020B931
:1005A0004FF0FF340FF6B0101FE0E96A016043E03E
:1005B0000A680A6052F8040B0A60002120F0000269
:1005C00021F0FF33C5E90023EE607821284600F0D2
:1005D000BBF831E00868086050F8044B0860EC6034
:1005E0003CB94FF0FF340FF6881000F03DFD201AA3
:1005F00070BD2E6B002E04D5204600F055FD04463C
:1006000008E032460021204600F058FD002814BFC3
:10061000041B3446AC610FE06869411C6961252206
:10062000325409E06969481C68612522725421002E
:1006300002D0431C6B613454002070BD2DE9FC4195
:100640000F46064690467A6B7869396ABC6A121A78
:10065000B869521A796A121AF869521A121A97F876
:100660003800141B41070FD42020002C8DF8000007
:100670000ADD254601236A463946304600F048FC2B
:1006800000285DD16D1EF5D17B6942463946304662
:1006900000F03EFC002853D130208DF800003D6A68
:1006A000002D09DD01236A463946304600F030FC52
:1006B000002845D16D1EF5D1BB69FA683946304630
:1006C00000F026FC00283BD130208DF800007D6A28
:1006D000002D08DD01236A463946304600F018FC3B
:1006E00070BB6D1EF6D1F868B969FB6942183946CE
:1006F000304600F00DFC18BB30208DF80000BD6ABC
:10070000002D08DD01236A463946304600F000FC22
:10071000B0B96D1EF6D197F8380041070DD52020ED
:10072000002C8DF8000008DD01236A46394630466A
:1007300000F0EEFB20B9641EF6D10020BDE8F68182
:100740004FF0FF30BDE8F6812DE9FC4307466F29E5
:100750003E6908BF082405D041F02000782814BF66
:100760000A2410243C25D7E90023642918BF6929ED
:100770009046994605D1002B03D5D8F1000869EBC6
:100780004909B9F1000F08BFB8F1000F1FD1386B4C
:10079000E8B9082C4CD197F83800010748D530202B
:1007A0003B2586F83B0043E000280ED597F838003B
:1007B00000F01400102808D17B6B7969386A5B1A45
:1007C0001B1A9A1A002AC8BF3A62BDE8F3838DF853
:1007D0000010404649462246E31700F09BFC3032A9
:1007E000D0B26D1E3A28019504DB9DF80000A0F1FF
:1007F00051018A187255404649462246E31700F0D7
:1008000089FC80465FEA010908BFB8F1000F03D0F8
:10081000F86871198842DCD3082C09D197F83800A0
:10082000010705D5705D302802D06D1E302070554F
:10083000C5F13C02BA617119F960386B8242B3DAD2
:10084000821A3A624FF6EF70398F01403987BDE85E
:10085000F3832DE9D04306460F4614464FF00008B7
:10086000DFF8109412E0E00707D542464B463046C9
:10087000394600F0D3FC06460F46404649464246FC
:100880004B4600F0CBFC641080468946002CEAD130
:1008900030463946BDE8D0832DE9F84F05468A46F3
:1008A0004AF020048EB0D5E90089612C02AE09D04F
:1008B000286B002848BF062003D408BF672C01D14D
:1008C00001202863D5E900014A005215521C0DD1C0
:1008D0000B030BD0AAF1610103201A29A86102D2EF
:1008E0000FF2A86110E00FF2A8610DE04A00521566
:1008F000521C0ED10B030CD1AAF1610103201A295D
:10090000A86116D30FF29061E868032200F058FD49
:10091000C0E1CDE90C01DDE90C2323F00043B3F580
:10092000801F0DD20027002B08BF002A019703D19A
:1009300011E00FF26061E7E701AA00F04DFD0AE067
:10094000CD48CE4900EB1350DDE90C2301900B405C
:10095000CB4910461943C5E90001612C0DD1E86867
:1009600030210170821CBAF1610FEA600CBF78215E
:10097000582141706869801C6861D5E90001CDE9A2
:100980000C01DDE90C2333F0004104BF00280023F3
:1009900000F04881612C40F0A080286B4946002877
:1009A0004CBF4FF0210B00F1010B40460022002309
:1009B000DDE90C8900F048FD01990BF1010738BF12
:1009C00089F00049091F002F01918DF808200DF1D1
:1009D000090040F33581A949009106464046494641
:1009E0000022002300F048FD80F029814800400DDE
:1009F00000F11C0211D0002A0FDD40F2FF739A4271
:100A000005DBA04909F000400143002011E0009BF4
:100A1000194041EA025140460BE028F0000039F04D
:100A2000004108BF00280FBF49461C22494600F07C
:100A30003BFD8046894600F0D5FDFF1F002F044690
:100A400009DD00F0EDFD02460B464046494600F048
:100A5000F9FD80468946F01D072104E004F00F02ED
:100A600000F8012D2411002C01DD491EF6D5491E88
:100A70005CBF002200F8012DF9D5DCE0002019460A
:100A800002AA0A4400E05B1E12F80149491E844292
:100A9000F9D00F2804D10DF10900425C521C4254D8
:100AA000002904D50198001D02AE5B1C0190581E60
:100AB0000CD43118AAF13A040A783032D7B23A2F5E
:100AC000A8BFA218401E01F80129F5D5286B0028FF
:100AD00040F1A780591E2963A3E001996A4A47F2B1
:100AE0009750414391FBF2F2019229F00046D2F176
:100AF000070204DD40463146FFF7ABFE0AE05242F2
:100B000000206249FFF7A5FE02460B4640463146EB
:100B100000F00AFE8046662C286B06BF019F0A374C
:100B200006273F18142FC8BF142730208DF808005F
:100B300089460DF1090000E03046002F34DD0646FD
:100B40004046494600F014FF01460A4606F10803F4
:100B500004200A26B2FBF6F606EB860EA2EB4E0246
:100B6000303203F8012C0A22B6FBF2F202EB820EBD
:100B7000A6EB4E063036401E03F8026DE9D1083F61
:100B8000002F03F10806D7DD084600F005FF0246F6
:100B90000B464046494600F055FD00223C4B00F014
:100BA0003DFB80468946CBE70DF10901401A0DF166
:100BB000090604E00199491E401E0191761C317816
:100BC0003029F7D0662C02D10199491C03E0652C2D
:100BD0000CBF012100212B6BCB189842B8BF431EDC
:100BE000002B1ED4834204DAF05C3528A8BF3920DC
:100BF00000DA30201946721E02EB010800E05B1E8D
:100C000018F80199491E8145F9D0392802D1705C44
:100C1000401C7054002904D50198401C16465B1CEA
:100C20000190019800B200901BB23246514628460E
:100C300000F034F82EE0C61D002F3FF7CFAE30464F
:100C40000DF10901401A03465845C8BF5B46002B09
:100C50000DF109063FF53AAF8342BFF60FAF0DF134
:100C60000900C15C07297FF709AF0F2007E70000E3
:100C7000CBCCCC0C0000244002FCFFFFFFFF0F8018
:100C80000000E03F0000F07FA08601000000F03F80
:100C900084D797410FB0BDE8F08F00002DE9F847E9
:100CA00083B006468A461746984600F083FEB8F1A0
:100CB000000F406A356B90F8009002DC4FF001089D
:100CC000B6A74AF02000BDF93040662808BF641C72
:100CD00015D0672840F0848014F1040FC0F286809C
:100CE000AC4280F2838096F83800641C010702D47D
:100CF000A845B8BF454620B22D1A48BF00250FFAB7
:100D000084FAF068B169BAF1000F25DC4A1C30237F
:100D10004354002D03DC96F83800010703D5F06832
:100D200000F80290521C15EB0A0FB8BF6C4220B2BB
:100D3000441941424445B8BFA046B26171620FFAFE
:100D400088F5F561F068B3692A463946184400F021
:100D500037FB641BB462C4E022B29045084417DA42
:100D60004246394600F02CFBB0694044B061AAEB22
:100D70000801002D716203DC96F838100A0705D5CA
:100D8000F16801F80090F069401CF061B562A8E0DC
:100D9000394600F015FBB069002D5044A8EB04085B
:100DA00003DC96F838100A0703D5F16801F80090C3
:100DB000401CB0610FFA88F08542F368B069B8BF93
:100DC000A8460FFA88F207EB0A01184400F0F8FA77
:100DD000B1690FFA88F00144B161281A706280E0AD
:100DE000BAF1610F14D14FF0700A16E0A84504DA89
:100DF00096F838100A0758BF45466D1E48BF0025B3
:100E0000BAF1670F14BF4FF0450A4FF0650A04E0CE
:100E1000BAF1410F08BF4FF0500AB169F368481C9E
:100E2000B061002D17F8012B5A5403DC96F83810E6
:100E30000A071BD5F168431CB36101F80090002D2F
:100E400014DDA8F101080FFA88F039468542F768E9
:100E5000B8BFA8460FFA88F2F81800F0B1FAB069E6
:100E60000FFA88F108446D1AB0617562F068B169D3
:100E70000844002C80F800A003D42B224270811C6F
:100E800003E02D2141706442811C00206A460AE083
:100E900023460A2493FBF4F404EB8405A3EB4503F7
:100EA00002F8013B401C24B2002CF1DC012806DCD6
:100EB0004AF02002652A04BF302201F8012B48B90C
:100EC000302001F8010B07E0401E1DF800303033E0
:100ED00001F8013B0028F7DCF268B0691044091AF8
:100EE000F16196F8380000F0140010280DD17269F5
:100EF000B169706A8A18F1698218B06A8A18821812
:100F0000706B8242BCBF821A326204B0BDE8F087C7
:100F1000F8B505460E4617461C46002074B117F872
:100F2000011BB068A847B06030B1F06A401CF062A5
:100F30000020641EF3D1F2BD4FF0FF30F2BD00007F
:100F40007072696E74665F733A20256E20646973EF
:100F5000616C6C6F776564007072696E74663A20BC
:100F600062616420256E20617267756D656E740024
:100F70007072696E74665F733A20626164202573D3
:100F800020617267756D656E740000006E616E00A1
:100F90004E414E00696E6600494E46003000F0B486
:100FA0000246106895681318506803EB5004C00798
:100FB0001DD54D441BE013F8017B05F8017B491E4C
:100FC000F9D1A0B1B60813F8011B06F00306032EF1
:100FD00008BF13F8016B01EB06214942801C29442C
:100FE00005D011F8016B05F8016B401EF9D1A34241
:100FF0000ED013F8016B16F0030104BF13F8011BA8
:10100000C91C30090F28DAD113F8010B0F30D6E7CD
:10101000F0BC02F10C007047C9B202788A421AB1E2
:101020001CBF10F8012FF9E718BF0020704730B43B
:10103000002513E050F8042BD30744BFA9F10103A6
:101040009A18091F042942F8045BFAD213468C0748
:1010500044BF15809B1CC90748BF1D7050F8041B76
:101060000029E7D130BC704780B500B906A005491A
:101070000B681BB122220021984701E000F09EFC82
:10108000222002BD901C0120636F6E73747261692F
:101090006E742068616E646C65723A2062616420CF
:1010A0006D6573736167650000F1010310F8011B42
:1010B00011B110F8011BFBE7C01A7047C9B28307D2
:1010C00006D0521E22D310F8013B9942F7D11FE0FF
:1010D000083A13D302F1040241EA012141EA014135
:1010E00050F8043B121F21BF4B40A3F1013C2CEAF6
:1010F000030C1CF0803FF3D0C9B2001F083210F877
:10110000013B521E28BF91EA030FF8D818BF0120F7
:10111000401E7047D3BBD9B1B2F5803F5BD2022AE3
:101120001ED98C46B1FBF2F102FB11C31B0443EA4A
:101130001043B3FBF2FC02FB1C3380B240EA0343D2
:10114000B3FBF2F002FB103240EA0C400023704780
:10115000022A05D98446B0FBF2F002FB10C27047A8
:101160004AB105D100F0010249085FEA300070473A
:1011700000220023704700F025BC0B000200002174
:1011800000207047F7D3002200237047904271EB94
:10119000030CF2D370B5B1FA81F4B3FA83F52C1BCA
:1011A000A340C4F1200532FA05F63343A2405FF0B4
:1011B0000046E64002E05B085FEA3202841A71EB07
:1011C000030524BF204629467641F4D302000B00D4
:1011D0003000002170BD70B5B1FA81F4B2FA82F529
:1011E000C4F120046419B4F12006DAD3B2405FF0F0
:1011F0000044F440002502E052085FEA3303C61AB7
:1012000071EB020E24BF3046714664416D41F3D349
:1012100002000B002000290070BD0000B0B581EA7B
:10122000030C0CF0004C40F2FF7515EA11541DBF81
:1012300015EA1357AC42AF4239E0E41923EA4553AB
:1012400043F48013C90241F0004141EA505EC702F5
:101250001100A7FB020200284FF00000EEFB012066
:101260004FF00001E3FB072118BF42F001024018D4
:1012700000214941E3FB0E01A4F580640F0302D273
:1012800052004041494154F101046CDD470872F1BC
:10129000004250F1000051EB0451A1F580115CBFF8
:1012A00041EA0C01B0BD4CEA05510020B0BD05EA91
:1012B0001357AC4214BFAF4241E050EA410E1CBF8D
:1012C00052EA430E02E061460020B0BD24423C4495
:1012D0001BD15FEA070EF6D0090302BF01460020CA
:1012E000AEF1140EB1FA81F7AEEB070401FA07FE76
:1012F0000C37C7F1200100FA07F7C8404EEA000E8C
:1013000023EA455343F48013A2E733F00043B3FAD2
:1013100083F704BFB2FA82FE77440B3FE41BB7F1B8
:10132000200E2FBF02FA0EF3BB40C7F1200E22FAA7
:101330000EFE38BF43EA0E03BA40641C82E750EA4F
:10134000410E14BF52EA430E6FF000014FF4001734
:1013500017EB430F8ABF194617EB410FB5E74CEA6D
:1013600005510020B0BDD4F10104B4F120070FDA1B
:10137000C4F12007520828BF42F0010210FA07F515
:1013800001FA07F7E1BF2A43E0403843E1400FE0AC
:10139000352C98DCC7F1200452EA400220FA07F20B
:1013A00018BF42F0010231FA07F0A1400A430021C0
:1013B00072F1004250F1000051EB0C01B0BD000091
:1013C0004AB1000011F8013B521E00F8013B1CBF5E
:1013D00011F8013BF8E7704710B5144600F002F829
:1013E000226010BDC1F30A5343B14A0012F5001F39
:1013F00028D2A3F2FE32A1EB0251704750EA410C11
:1014000020D001F0004C31EA0C01B1FA81F204BFA6
:10141000B0FA80F3D2180B3AB2F120032CBF00FAD5
:1014200003F1914041EA0C013EBFC2F1200C20FAC9
:101430000CF319439040524240F2FD33D21A01EBB3
:1014400003517047002270474FF4001C1CEB410F02
:1014500094BF1CEB430F09E041EA030C50EA4C0C2B
:1014600052EA0C0C03D2994208BF9042704714BF55
:101470008B428242704700004FF4001C1CEB410F6E
:1014800094BF1CEB430F09E041EA030C50EA4C0CFB
:1014900052EA0C0C03D28B4208BF8242704714BF41
:1014A0009942904270470000124254D440F2FF7CAF
:1014B0001CEA11530FD0634531D09B1863453CBFE4
:1014C00001EB0251704701F0004141EA0C5100204C
:1014D000AFF30080704750EA410320D001F0004C88
:1014E00091EA0C011CD0B1FA81F30B3B9A420DD961
:1014F000D21A994051EA0C01C3F1200C20FA0CFCDD
:1015000061449840531C40F2FF7CD7E7914041EA88
:101510000C01C2F1200C20FA0CF3194390407047E3
:10152000B0FA80F31533202BE0D3202AEED3203AF3
:10153000203B9A4209D9D21A00FA03F141EA0C0180
:101540000020531C40F2FF7CB8E700FA02F141EAA8
:101550000C0100207047524240F2FF7C1CEA1153FC
:101560000DD06345DBD0B2EB030C3CBFA1EB0251C5
:1015700070470CF1010221EA035141F4801150EA55
:10158000410CCCD001F0004C352A27DC30B481EA84
:101590000C01B2F1200309DAC2F12003044601FA7A
:1015A00003F5D0402843D1409C400CE0C3F1200219
:1015B000450020FA03F418BF44F0010421FA03F0B7
:1015C00091400C43002174F1004550F1000051EBB3
:1015D0000C01244230BC7FF47BAF70476146002091
:1015E00076E70000C1F30A5340F2FE329B1A14DD85
:1015F000D3F120034FEAE17208DDC90241EA5051FC
:1016000041F00040D84080185040704703F2E1306C
:1016100010B1D24382F000407047002070470000B4
:10162000C11768B14840401AB0FA80F29040D21C0D
:10163000C907C2F5846241EA025202EBD02140059B
:101640007047000070B44FF0004591EA030F40F17D
:10165000BB816B40841A71EB030603D2001BB141BE
:10166000121973414FF4001C1CEB410F34BF7CEB8B
:10167000430442E00C0DA4EB1356352E4FDC45EA33
:10168000C323DB0A45EAC121C912B6F120050DDDED
:1016900063FA05F6EB4086EA0305124218BF45F0EF
:1016A0000105C01851F100010CD213E062FA06F5F1
:1016B000F2405540F3415A40B340F3405A4080183D
:1016C000594107D349085FEA30005FEA350528BF72
:1016D00045F0010501F58011420875F1004250F115
:1016E000000041EB04514E0016F5001F70BC38BFDE
:1016F00070470020090D090570471CEB410F10D2FF
:1017000052EA43060BD0BCEB410F05D80C0DAB439E
:10171000661E342EB6DD02E0AB438018594170BC22
:10172000704770BC70470000F0B540F2FF7581EA69
:10173000030C0CF0004C15EA11541DBF15EA1357A9
:10174000AC42AF42E5E0BC41C1F31301C3F3130364
:10175000801A994143F4801304D2641E4000494129
:1017600080185941C90241EA5051B1FBF3F603FB1D
:101770001611A2FB0675D7EBC020A94102D2761E36
:1017800080185941C90241EA5051B1FBF3FE03FBF5
:101790001E11A2FB0E75D7EBC020A94103D2AEF1FA
:1017A000010E80185941890241EA9051760546EAB6
:1017B0008E2EB1FBF3F603FB1611A2FB0675D7EBD9
:1017C0008020A94102D2761E80185941C90241EAFF
:1017D00050514EEA060EB1FBF3F603FB1611A2FBC5
:1017E0000675D7EBC020A94102D2761E8018594158
:1017F000C90241EA5051B1FBF3F703FB1711A2FBF9
:101800000735D3EBC020A94167F100070CBF0042A8
:1018100047F0010766F3D5274FEA1E31B80814F5E3
:10182000806412DDBD0775F1004250EB0E5051EBA4
:10183000045111F5801F5CBF41EA0C01F0BD4CF072
:101840007F6141F0E0410020F0BDBD076D0840EA36
:101850000E5041F48011D4F10104B4F120060ADAEB
:10186000C4F120060200E04001FA06F3E14018430B
:10187000B24015430EE0342C13DCC6F1200445EAD7
:1018800040056D0820FA06F2154321FA06F0A14042
:101890000D43002175F1004250F1000051EB0C01A5
:1018A000F0BD00205FEA0C01F0BDCFB992185B419A
:1018B000B3FA83F704BFB2FA82F6BF190B3FB7F150
:1018C00020062FBF02FA06F3BB40C7F1200622FA1A
:1018D00006F638BF3343BA401CB1E419641E33E73F
:1018E0007F4231F00041B1FA81F404BFB0FA80F6D2
:1018F000A4190B3CB4F120062FBF00FA06F1A14059
:10190000C4F1200620FA06F638BF3143A0403C1B44
:101910001AE7AC421ABF05EA1357AF4212E050EA89
:1019200041061CBF52EA4306BFE750EA4107304672
:1019300061461CBF41EA0551F0BD52EA430C08BFA5
:10194000C143F0BD00204FF4001616EB410F98BFC5
:1019500016EB430F08BF16EB410F24BFC14305E050
:1019600016EB430F0CBF61464CEA0551F0BD000079
:10197000400D491840EA81200CD2490DA1F5806143
:10198000491C40F0004005DBD1F11F0154BFC840A5
:10199000C017704700207047014648B1B0FA80F187
:1019A0008840C91CC1F58461090501EBD0214005BF
:1019B0007047000000487047A0150020012000F08B
:1019C000B9B8000070470000841A71EB030604D216
:1019D0006E40001BB141121973414FF4001C1CEB07
:1019E000410F34BF7CEB430683E00C0DA4EB135690
:1019F000362E00F37C80012E45EAC32341DC43EA06
:101A0000525312BFD20292025B08240545EAC1215B
:101A100041EA5051D2EBC020994125D407D1B0FA08
:101A200080F610FA06F162D00020203608E0B1FA04
:101A300081F6B140C6F1200220FA02F21143B04013
:101A40004FEAF474B4EB465434F001064FEA7404E0
:101A50000AD8D6F50016760D04F00044F04061FA7D
:101A600006F25040F1404840C00A40EA415021F09F
:101A7000004128BF5FEA500550F1000044EBD1213E
:101A800035E0DB0A45EAC121C90AB6F120050EDDC1
:101A900042EA0242120CC5F1200603FA06F6EB40B8
:101AA00042EA06056D42984161F100010DE062FADB
:101AB00006F5F240554063FA06FC82EA0C02F34058
:101AC0005A406D42904161EB030111F4801F05D132
:101AD000641E620502D06D004041494121F480112D
:101AE000430875F1004350F1000041EB045170BC14
:101AF00070471CEB410F15D223F0004352EA430616
:101B00000BD04FEA4C0CBCEB410F04D80C0D661EF9
:101B1000342EB7DDEBE7801A994150EA410608BF41
:101B20000021E4E708BF1CEB430F28BF6FF0000162
:101B3000DDE7000080B500F007F8024A1100182028
:101B4000ABBEFBE72600020080B500F054F80200AF
:101B50000023DB431068984204D011000220ABBE82
:101B6000002010605068984204D0111D0220ABBEC6
:101B70000020506001BD0000F0B583B0040000F00B
:101B80003AF8A10047183D680026F643B54216D141
:101B900000F01AF83D68B5420FD100BF09A00090CF
:101BA000002C01D1002000E00420019003200290CD
:101BB00069460120ABBE05003D6000F014F8280026
:101BC00003B0F0BD3A7474000C480121BFF35F8F7D
:101BD000D0E84F3FC0E8421F002AF9D1BFF35F8F22
:101BE000002BF3D170470548BFF35F8F00210170D0
:101BF000BFF35F8F7047024870470000941C0120BC
:101C0000D8150020C143491C0840B0FA80F0C0F14B
:101C10001F0080B27047802802D28008401E7047A3
:101C2000B0FA80F0C0F11F0080B21830704738B5AC
:101C30000D4604461F2D28BF802C0AD200F036FB2B
:101C400028B922462946DFF8FC0900F0EDFD002006
:101C500032BDE400A5F11800C440A4F1080032BD73
:101C600002698918C2680161914238BF1146C1609A
:101C7000704738B50446FFF7CEFF05461F2D06D343
:101C800029462046FFF7D3FF00EBC500D93832BD07
:101C90002DE9F8438146884616464046FFF7BBFFCC
:101CA0000446DF251F2C07D321464046FFF7BFFF20
:101CB00000EBC405D93D6C1C09F11400610950F812
:101CC0002120012304F01F0003FA00F0401E32EA35
:101CD00000000DD0FFF796FF610900EB4110DF28EF
:101CE00006D0306009F1300252F82000BDE8F283DE
:101CF000641C04F11F07A74238BF27467F097F01F4
:101D000000E02037DF2F17D209F11400790950F8CD
:101D100021000028F5D0FFF775FF3818E1E709F139
:101D20003000356050F8250000E0C0680028DDD0A4
:101D300041684145F9D3D9E7DF2DF0D10020D5E73F
:101D400030B500EB8104236B03B19A6000259560E8
:101D5000D360226300F01DF81943416130BD30B5F6
:101D600000EB81031D6BD468AA420BD11C63D268BF
:101D70002AB900F00EF823EA0101416130BD0020CC
:101D8000906030BD9068C460D06808B1916881608F
:101D900030BD4A0900EB82000122436901F01F01B6
:101DA00002FA01F1704738B500F016F8DF2804D3C5
:101DB0000146DFF8C40800F04BFD01462A462046E4
:101DC000BDE83840BCE738B500F006F801462A46C1
:101DD0002046BDE83840C2E70D460446686848E73B
:101DE000026841685368CB185360416802680A5022
:101DF000704770B58950044648688D18801A68602D
:101E00004A60686820F040402E18716835600029EB
:101E100006D431462046FFF7D6FF3046FFF7E0FFF5
:101E200029462046BDE87040BDE74FF46C730022A0
:101E3000194600F0BBBD2DE9F84505000E4614D04B
:101E4000B6F56E7F11D915F0030008BF16F0030F29
:101E5000DFF8F0880CD000F029FA30B904233246BC
:101E6000294608F1340000F0DFFC4FF0FF303BE082
:101E70004FF46C7300221946284600F097FD2D6040
:101E800005F56B77A8686E6080088000A860A919C6
:101E9000A6F56E70B860A1F1080405F56C7A7C6057
:101EA00051462846FFF77FFF4FF000406060C4F8BE
:101EB00000A04FF46E702861E8607619DFF888188A
:101EC0000868044602468CB162681219AC4201D31C
:101ED000B44211D3954201D296420DD22246D4F893
:101EE000AC43F0E700203860BDE8F28500280CBF65
:101EF0000D60C2F8AC53F5E700F0D8F940B960685E
:101F000000190090234632462946404600F08CFCDA
:101F10002846FFF78AFFA8E7F8B501F10B04A408EB
:101F2000A400064617462BD06A462146FFF7B0FEAE
:101F3000050027D100F0BAF9DFF8105810B928468B
:101F400000F072FC307A81075CBF384600F079FD02
:101F5000304600F041FB307A810758BF00F069FD40
:101F600000F0A4F930B922460FF6080105F170001F
:101F700000F05AFC00F09AF910B9284600F054FC21
:101F80000020F2BD00992A463046FFF7E8FE686857
:101F900004F11001884204D3224629463046FFF757
:101FA00028FF696841F000416960304621F04041F6
:101FB000FFF756FE05F10800F2BDF8B505000C4626
:101FC00018BF002C01D10020F2BD082C38BF082416
:101FD000287A0026810702D400F02BFD074614F072
:101FE000404F05D13A4621462846FFF795FF064661
:101FF000287A81075CBF384600F023FD3046F2BDE9
:102000002DE9F04104000D4618BF002D164614D0EE
:102010009EB1771E3E4208BF16F0030F0DD1082D6A
:1020200038BF08254FF0FF30401B311F884204D3D2
:1020300075192D1F15F0404F01D0002023E0207AA4
:10204000810702D400F0F5FC80464246294620462E
:10205000FFF762FF05467619761EBE43B5420BD0E8
:1020600055F8040C40F0804045F8040C711B301FFB
:1020700041F0804101603546217A88075CBF4046C7
:1020800000F0DFFC2846BDE8F08100F56C73994252
:1020900005D342681018814201D201207047002008
:1020A000704780B5884228BF824201D2002002BD1D
:1020B0004168002904D401681846FFF7E6FF00B123
:1020C000012002BD2DE9F04105460C466E682E4404
:1020D000083E05F56C782B46324641462046FFF710
:1020E000E0FF08B3606800281ED520F040402718A4
:1020F0002B46324641463846FFF7D3FFA0B1386839
:10210000A04211D144450DD020682B4632464146AD
:10211000FFF7C7FF40B12068416821F04041084403
:10212000A04201D1002000E00120BDE8F08170B59F
:1021300005460E46FFF7C6FF040008D000F0B6F8CB
:1021400018B90FF23C6000F06FFB204670BD71685B
:10215000286921F04041401A2861706820F0404011
:102160007060346854B16068002807D4214628465E
:10217000FFF729FE3046FFF733FE2646706820F051
:102180004040341809D06068002806D4214628460B
:10219000FFF719FE2046FFF723FE31462846FFF7DA
:1021A00002FE002070BDF8B50A1F0C4617680FF23A
:1021B000F8550FF2E45607F04042B2F1404F06D115
:1021C00000F074F8C8B93B4640F2F24211E07A00E0
:1021D00016D527F0804414F0030F04D1A1F10802B2
:1021E000101AA0420BD200F061F830B9234640F239
:1021F000FA423146284600F017FB0020F2BD0C1BC6
:102200002046F2BDF8B504000D4618BF002D05D0DC
:1022100014F0030108BF15F0030001D00120F2BD46
:10222000207A0127810702D400F003FC06462946E4
:102230002046FFF7B8FF28B1A0F108012046FFF7BC
:1022400076FF0746207A81075CBF304600F0F9FB35
:102250003846F2BDF8B50D4604462A68DFF8F0644A
:1022600091680FF26057FFF710FF48B900F01EF8B1
:10227000C0B92868836840F21C62394630460FE0D6
:102280002868C1682046FFF700FF68B900F00EF823
:1022900040B92868C36840F22262394606F150000E
:1022A00000F0C2FA0120F2BD0020F2BD022000F0D1
:1022B0003DBC2DE9FC41064600253068DFF89484DA
:1022C000B04208BF16F003010ED0FFF7EFFF002861
:1022D0005BD13146404602B0BDE8F04140F25B635D
:1022E0000FF2145200F0A0BA002706EB8700046B2F
:1022F00030E0214600F04BF8E0B1A16811B100F0E8
:1023000046F8B8B1E16811B100F041F890B1216828
:1023100000F03DF870B114F0030004BF207A10F013
:10232000030F07D1207B10F0030F04BF207810F0BB
:10233000030F0ED0FFF7BAFF012550B9E0680190F6
:102340002246A16800913946236808F1300000F068
:102350006BFAE468002CCCD17F1CDF2FC5D3A5B16C
:1023600000F0ADF828B97268314608F1740000F049
:102370005BFA00F0A4F840B93269F16808F1A400F2
:1023800002B0BDE8F04100F04FBABDE8F38130463D
:102390007BE6F8B504460D46616821441646A1F176
:1023A0000807FFF786FF04F56C7030600FE02868BF
:1023B0004168002904D429462046FFF74BFFE8B9BD
:1023C000286830602868416821F04041084428604E
:1023D0002868B84214D201682046FFF756FE00284C
:1023E000E5D1FFF763FF48B928680FF2F4310368BD
:1023F000DFF8640340F2336200F016FA0120F2BD08
:102400000020F2BD0D461646B54282B004461F4676
:10241000DFF8488305D100F052F810B9404600F0CB
:1024200003FA6868002809D500F049F890B96A688D
:10243000296808F1280000F0F7F90BE000F03FF8F8
:1024400040B968680090AB68EA68296808F14C00F8
:1024500000F0EAF97068002809D500F030F890B96A
:10246000726831680FF2A43000F0DEF90BE000F082
:1024700026F840B970680090B368F268316808F1D6
:102480007C0000F0D1F9DFF8D89208233246082109
:10249000484600F094FB08232A46082109F1080069
:1024A00000F08DFB207A81075CBF384600F0C9FA46
:1024B0003246294608F1A80000F0CAF900BF012001
:1024C00000F034BB3EB5040015D00021019100910D
:1024D0000025207A810702D400F0ABFA05466A464F
:1024E00001A92046FFF755FF38B1009A01992B4604
:1024F0002046FFF787FF01203EBD207A81075CBFA1
:10250000284600F09EFA00203EBD2DE9F8430D005C
:10251000DFF8506206D1FFF7C9FE90B9304600F0EF
:1025200083F90EE0040002D02068A0420BD0FFF730
:10253000BDFE30B940F26372214606F1240000F07E
:1025400073F9012046E0182300221821284600F0E4
:102550002DFA207A810702D400F06BFA8046606879
:102560002044A0F1080E04F56C7CF44529D2002724
:102570000026002100220023DCF80490B9F1000FAE
:1025800029F0404002D50121074603E00122060060
:1025900018BF034628683F182F60A8686F68F619AF
:1025A000984238BF1846A8606E60E8680918E9606C
:1025B000296952182A61DCF8040020F04040844464
:1025C000D3E7E0686861217A88075CBF404600F085
:1025D00038FA0020BDE8F28330B58BB0044605A878
:1025E000182100F011FB05A92046FFF78EFF0128F6
:1025F00024D0FFF764FF5C4D10B9284600F014F9B1
:10260000FFF75DFF18B905F1880000F00DF9FFF73D
:1026100056FF98B9002C0A980999059B0CBF012216
:1026200062680490039108980799029001910698B6
:10263000009005F58670216800F0F6F80BB030BD0B
:10264000000000008879000838B5484C221D22603F
:102650004FF48031201DFFF7EEFB0546042000F00B
:1026600065FA28B9216842484FF4803200F0DCF85E
:10267000284632BD00000000B87900082DE9FC4171
:1026800004460D46202300222021284600F08EF922
:10269000207A810702D400F0CCF906460120287088
:1026A00004F56C77216869606068A86061682069DA
:1026B000091AE96061682144A1F10808474529D257
:1026C0002869401C28617868002818D4009769465A
:1026D0002046FFF7BFFDC0B107F1080068614FF069
:1026E000FF307968E86121F040410839A961217A19
:1026F00088075CBF304600F0A4F9BDE8F381396873
:102700002046FFF7C2FC0028E6D0786820F0404061
:102710000744D3E7207A8107EBE7F8B505460A4876
:1027200004680E46002754B131462046FFF7A6FF45
:102730007F1C2036AF4238BFD4F8AC43F3D33846C1
:10274000F2BD000050750008841C01205C73000875
:10275000B0740008AC6D0008D8770008C46C00089D
:10276000241C01202478000848660008E015002099
:10277000E87900084F734D656D416C6C6F63000024
:102780004F734D656D4672656520636865636B20A8
:102790006572726F72210A004F73476574526561EA
:1027A0006C507472000000005B25733A25645D670D
:1027B000617053697A653A30782578206572726F56
:1027C000720A00004F734D656D4164647256616C0E
:1027D0006964436865636B5072696E740000000041
:1027E0004F734D656D496E7465677269747943689E
:1027F00065636B53756200004F734D656D506F6F6D
:102800006C48656164436865636B0000707265764F
:10281000206E6F646520686561643A2030782578A1
:102820002020307825780A000EB4C0B5024603A8EF
:1028300000210190009101AB0121044878440C3043
:10284000FDF7B4FC06BC5DF810FB00BF735300003D
:102850000FB4044600F05AF801AD18B929462046D5
:10286000FFF7E2FF00F0D6F900BF264800F0A4BA57
:1028700010B5012000F05AF918B900BF25A0FFF7E4
:10288000D3FF214919200860FFF7DEFE040009D0BC
:1028900000F03CF800282CD14FEA040124A0FFF7F7
:1028A000C3FF26E000F0B4F900F0C1FB040005D03E
:1028B00000F02CF8E8B900BF24A018E000F081FE79
:1028C000F8B900F0ACFEE0B900F0DEFE040005D07F
:1028D00000F01CF868B900BF21A008E001F0E9FA97
:1028E000040008D000F012F818B900BF21A0FFF7CB
:1028F0009BFF204610BD00F0E4FB10B901F056FC30
:10290000002010BD21580008E81B0120022000F023
:102910000DB90000656E746572696E67206B657233
:102920006E656C20696E69742E2E2E0A0000000000
:102930004F734D656D53797374656D496E6974207D
:102940006572726F722025640A0000004F73546133
:10295000736B496E6974206572726F720A000000B1
:102960004F735175657565496E6974206572726F34
:10297000720A00004F735377746D72496E69742048
:102980006572726F720A000080B511B1B1F1004F2B
:1029900001D3222002BD08B9162002BD994203D2FC
:1029A00001F05EFCA22002BD002002BD1CB50C4659
:1029B000B4F1004F11460AD248B19C4207D3DFF868
:1029C000184000941A46009B9847002016BD2146E7
:1029D00002B0BDE81040D7E7057C0008374C384D01
:1029E00025604FF0020080F3148836494868D0F81B
:1029F00000C0DFF8D410096801F47001B1F5700F60
:102A00000ED10CF1640CBCE8FF000CF1480C8CF307
:102A100009882DED010ABDEC010AAE4662B63047C9
:102A20000CF1240CBCE8FF008CF30988AE4662B6BA
:102A30003047EFF3108072B67047EFF3108062B644
:102A4000704780F310887047204821490160BFF328
:102A50004F8FBFF36F8F7047EFF3108C72B62DE975
:102A6000005001F094FEBDE800500028704602D1ED
:102A70008CF3108870478646EFF3098020E9F01F39
:102A8000DFF844301B6803F47003B3F5700F01D115
:102A900020ED108B0B4D2E6830606868286001684F
:102AA00003F47003B3F5700F01D1B1EC108BB1E8F2
:102AB000F01F81F309888CF31088704720ED00E047
:102AC0000000F0F0E01B012088ED00E004ED00E0E4
:102AD0000000001010B5214C24680CB1A04710BDB7
:102AE000022000F023F820B9BDE810401C48FFF791
:102AF0009BBE10BD10B50446FFF79BFF194A116835
:102B000001B91460BDE81040FFF79BBF38B504461B
:102B1000FFF78FFF05461348016809B12046884733
:102B20002846BDE83240FFF78CBF000010B50446D0
:102B3000032C01DB012010BD012C0CD0601E0528E8
:102B400009D20120FFF7F2FF28B9074850F82410F6
:102B500006A0FFF769FE002010BD00007C1C0120CC
:102B60001C770008781C0120940200205B25735D0F
:102B70000000000080B511B1B1F1004F01D3222057
:102B800002BD20B12AB901F0E3FF962002BD162054
:102B900002BD994203D201F0DBFFA22002BD8242B6
:102BA00004D21A44904206D3002002BD90423CBF9A
:102BB000C3189A42F8D201F0CBFFB62002BD38B557
:102BC00014461A4691420CD3002818BF002C08D096
:102BD000B1F1004F05D222B1844205D2A518A84216
:102BE00007D2134622460BE0A042FAD283189C4239
:102BF000F7D32146FEF7E4FB002032BD0A4621460A
:102C000001B0BDE83040B5E7002201F0A5BF0000EB
:102C100002F0C1BAFFF70DFFFEE7000070B50446F1
:102C20000D4616462B46CA223046FFF7BFFE30B18E
:102C30005FF056020FF29C116AA0FFF7F5FD3D4AC6
:102C40004FF0CC30AD1930603B493C483C4B3D4ED9
:102C500045F8CC1DAA6068603B493C4AE9602A619E
:102C60003B493C4A6961AA613B493C4AE9612A62A5
:102C70003B493C4A6962AA623B493C4AE9622A6391
:102C80003B493C4A6963AA634FF02A423A49E963E7
:102C900005F184010A604B604864384A384BCA60C9
:102CA0000B618E60374A384B4A618B614FF00430BC
:102CB000364A374BCA610B62364A374B4A628B62DF
:102CC000364A374BCA620B63364A374B4A638B63CB
:102CD0000023364ACA630B644FF0053169642864E7
:102CE0004FF007314FF00630E964A8644FF0093126
:102CF0004FF00830696528654FF011314FF0103002
:102D0000E965A8654FF00131A9664FF00230E86629
:102D10004FF0033129674FF0123068676C662B66FD
:102D200023492448A967E8674FF08071C5F88010EF
:102D3000284670BD120000AA100000AA110000AAC7
:102D4000010000AA020000AA130000AA140000AAB1
:102D5000150000AA160000AA170000AA180000AA71
:102D6000190000AA1A0000AA1B0000AA1C0000AA51
:102D70001D0000AA1E0000AA1F0000AA030000AA4E
:102D8000040000AA050000AA060000AA070000AA85
:102D9000080000AA090000AA0A0000AA0B0000AA65
:102DA0000C0000AA0D0000AA0E0000AA0F0000AA45
:102DB000152C00082131000810B50446FFF739FE34
:102DC000204602F081FC20B901F0A9FCFFF706FEC5
:102DD000002010BD48616C54736B537461636B4980
:102DE0006E6974006D656D7365745F73206973201F
:102DF0006661696C65643A25735B25645D0D0A0044
:102E000042684A6008604368196041607047006822
:102E1000F6E7426801681160002203684168596062
:102E20004260026070474168814201D101207047D1
:102E300000207047DFF87426536A0146002099424B
:102E400002D1DFF86C067047936A994202D1DFF82D
:102E500064067047126A914228BFDFF85C0670472B
:102E6000F8B5FFF7E6FD0546DFF85066DFF83C767B
:102E70000FE03869A0F14804FFF7CBFF04F14801E7
:102E8000381DFFF7BDFFE16A3068FFF7BBF900208E
:102E9000E06207F10C00FFF7C6FF0028E9D02846E2
:102EA000BDE8F240FFF7CDBDC10602D50FF250607C
:102EB0007047410702D50FF250607047810602D576
:102EC0000FF24C607047010707D5000602D50FF2DC
:102ED000486070470FF24C607047800702D50FF2D0
:102EE0004C6070470FF24C60704738B5DFF8BC5546
:102EF00069690446782044432144CA6A1068B0F1E5
:102F0000CC3F0BD10B68121D1046984214D21468A6
:102F1000B4F1CA3F08BF121DF6D00DE00220FFF742
:102F200005FE30B968692044416CDFF89405FFF76D
:102F30007BFC4FF0FF3032BD8A6AC96A101A08184C
:102F400032BD10B500F070F8DFF8784510B92046B2
:102F5000FFF76AFC00F068F818B90FF2E450FFF7C9
:102F600063FC00F061F818B90FF2DC50FFF75CFC6D
:102F700000F05AF818B904F16400FFF755FC00F0AE
:102F800053F828B9BDE810400FF2D850FFF74CBCF9
:102F900010BD2DE9F84785B0FFF7D3FF00250FF2EC
:102FA000B8180FF2C859DFF820A5DFF80075386AA5
:102FB000854235D27969782068430C182279D00788
:102FC0002CD400F031F8A8B9206BFFF78EFF06462D
:102FD000A088FFF769FF616E0491E26A039223689B
:102FE000029301960346A16A00915046E288216B44
:102FF000FFF71AFCA06B002814BFC6884FF6FF76B7
:1030000000F012F818B931464846FFF70DFC00F001
:103010000BF818B9616C4046FFF706FC6D1CC6E75B
:10302000002006B0BDE8F0870120FFF77FBD70B536
:10303000DFF87844DFF88424266A7825761C6E430E
:1030400010683146FEF7B9FF606110B9DFF87C0403
:1030500070BD334600223146FFF7A8FC201D211D1C
:10306000A060616004F10C0004F10C012061E160DA
:103070000026616905FB06F00B1D01221A52084467
:1030800000F148010663201DFFF7C1FE761C192ED2
:10309000EFD308230022082104F11800FFF786FC73
:1030A000216A60694D432844A061112220210663F2
:1030B0008280C1804FF0FF306062BDE8704001F057
:1030C000F3BA10B586B01823002218216846FFF71E
:1030D0006DFCDFF8FC1300914FF4A06203921F22F5
:1030E0000FF29441DFF8C4430491ADF8042069461F
:1030F00004F1240000F05AF838B9626A6169782056
:103100004243881801F0C6FA002006B010BDDFF86F
:103110009C03806910B9DFF8A0037047006B70470B
:1031200010B5DFF888235369782148431C18206CB8
:10313000616B8847206B00F0C6F850B10220FFF7A2
:10314000F5FC30B9216B0FF23C40BDE81040FFF7B1
:103150006BBB10BD0000000025730A0070B504466B
:103160000D46206BE9681646FFF758FD20600021E8
:10317000A8682064E6624FF0FF32E868A163E1636B
:10318000A0620221A1800021A888A160E160E08006
:103190004FF0FF3029686163A065002161662869EE
:1031A0006064E166C4E90622002070BD2DE9F041AB
:1031B00004000D4608BFDFF8000368D015B9DFF83A
:1031C000140364E0286910B9DFF80C035FE0286895
:1031D00010B9DFF808035AE0A988202947DA1F2927
:1031E00003D1DFF8EC12884241D1E868B0F1011F49
:1031F00028BFDFF8EC024AD210B94FF43470E8600F
:10320000E868C11D814238BF0146C908C900B1F54F
:10321000987FE96038BFDFF8CC0238D3FFF720FE93
:10322000FFF707FC8046DFF88472381DFFF7FBFDCF
:1032300000BBB868A0F14806FFF7EBFD00F0A4F86A
:10324000DFF87802E96800680822FEF7D9FE02007C
:1032500015D1FFF7EEFB044606F14801381DFFF7D4
:10326000CFFD2046FFF7EDFBDFF860020FE0DFF84F
:1032700078020CE000F088F8DFF8700207E02946D9
:103280003046FFF76BFF10B9306B20600020BDE8BF
:10329000F08170B50446FFF789FF98B9DFF80C524A
:1032A00022686969782042438C18FFF7C2FB064602
:1032B000204601F004F900F087F8E86A08B101F04F
:1032C00040FB002070BD2DE9F041DFF8E0510446DD
:1032D0007827686907FB04F146182046FFF7AAFD26
:1032E00000284FD1FFF7A5FB8046B088C10704D561
:1032F00000F04AF8DFF8F80144E0C1060BD5288851
:1033000048B10420FFF712FC18B9DFF8E801FFF715
:103310008BFA00202880304601F05AF94FF0FF3038
:10332000B065002171663079C1061AD50120B080E0
:1033300006F1480105F10C00FFF769FD296A68698B
:103340004F433844A8610463B18841F01001818083
:10335000F16AC162726C426400F016F801F0F1FA91
:103360000FE00120B08006F14801281DFFF748FD5D
:103370005248F16A0068FEF745FF0020F06200F055
:1033800003F80020BDE8F0814046FFF75ABB70B556
:10339000044601F00EFC08B1574870BD434D288823
:1033A00008B1564870BD14B9BDE870400FE0FFF792
:1033B00040FB0646A869214601F02EF900F004F80A
:1033C00001F0BFFA002070BD3046FFF73ABB10B5E0
:1033D000FFF72FFB044601F019F92046FFF731FBF8
:1033E00001F0AFFA002010BDF8B50C00064601D17F
:1033F0003848F2BD2D48016A8E4201D32E48F2BDF5
:103400004069782171434718FFF713FB0546B888D8
:10341000C10703D500F044F83548F2BD3968A084EF
:10342000616507F15802F888E084B96AA16404F183
:103430003801F86AE06492E8085081E80850786E34
:103440006064B96B002914BFC88830202063F86B12
:10345000002814BF406818206063A1621F23F86B26
:10346000E062266220217A6C204602F089F9002071
:10347000E077F96AB86A4118C908C9002165606D2A
:10348000091AA1653046FFF730FDE06510F1010F24
:103490000CBF01200020206600F002F80020F2BDE1
:1034A0002846FFF7CEBA0148C06A7047C81B012002
:1034B000140200022102000207020002E0150020AF
:1034C000007B0008087400086C7800080002000304
:1034D000A5350008010200020502000204020002F4
:1034E0002002000206020002030200021102000292
:1034F0000A0200021C7900080D0200030E020002FD
:1035000052756E6E696E67005265616479000000E5
:1035100044656C617900000050656E6454696D65A6
:103520000000000050656E64000000005375737069
:10353000656E6400496D706F737369626C6500003D
:1035400020206E616D650A002D2D2D20202D2D2D42
:103550002D2D2D2D2D2020202D2D2D2D2D2D2D2DC2
:103560002020200020202D2D2D2D0A0030782578B8
:10357000202020200000000049646C65436F7265C4
:103580003030300044656C657465205461736B5B4A
:103590005449443A2025645D204661696C65642184
:1035A0000A00000080B5FFF75BFC012002F02DF956
:1035B000F9E7000042684A600860436819604160AA
:1035C000704738B50F4C104A646024604FF4407166
:1035D0001068FEF7F2FCA06008B90C4832BD002567
:1035E0002804A1680023000B0A180B520831D5806B
:1035F00001442068FFF7DEFF6D1CA8B23028EFDB26
:10360000002032BD6C1C0120E015002000070002E4
:1036100042684A600860436819604160704738B585
:103620000F4C104A646024604FF410711068FEF76C
:10363000C4FCA06008B90C4832BD0025A068182160
:103640006943084400224560027000F108012068C7
:10365000FFF7DEFF6D1C182DF0D3002032BD0000F7
:10366000541C0120E0150020001D000242684A6041
:10367000086043681960416070474168814201D128
:10368000012070470020704738B5DFF88024DFF84C
:10369000804410684FF48461FEF78FFCA06010B97D
:1036A000DFF8700432BD4FF4846300221946FFF73F
:1036B0007DF9646024600025A068A9B22C225143E2
:1036C000084400F11C0145816D1C2068FFF7CEFF06
:1036D000A8B21828F0DB002032BD2DE9F047140015
:1036E0008A4608BFDFF8300461D0089E4FF6FC71AF
:1036F0008E4228BFDFF8240459D25FEA0A0001D0C5
:10370000300002D1DFF8180451E0361DDFF8FC5319
:103710005146B0B241432868FEF74FFC5FEA00090A
:1037200008BFDFF8000442D0FFF783F98046DFF8D6
:10373000E0733846FFF7A1FF40B100F083F9286835
:103740004946FEF75FFDDFF8E00330E07D68696819
:103750002868086000212A68686850606960012054
:10376000296025F8180C25F80C1C25F8101C25F8E4
:103770000E1CA5F10800A5F1080125F816AC25F8E6
:10378000146C45F81C9C25F80AAC45F8040C45F867
:10379000081C6D602D6005F10800E86005F1080166
:1037A000A96000F04FF935F8120C20600020BDE848
:1037B000F08780B5182800D328E0002918BF002A18
:1037C00002D1DFF8680302BD106810B9DFF86003AA
:1037D00002BD2BB101F0EDF910B1DFF8580302BDC5
:1037E000002002BD80B5182800D30FE001B923E105
:1037F000106810B9DFF8400302BD2BB101F0D9F910
:1038000010B1DFF8380302BD002002BDDFF830033D
:1038100002BD2DE9F84311F0030404D0012C1CD0A3
:10382000032C21D02AE08589C7886E1C2C46BE4215
:1038300014BF6D1C00258581068900687443051935
:1038400001F001004907144623D5002819BF20685C
:10385000286028682060BDE8F183848904B9C488A1
:10386000641E84818489E7E7C589C7886E1C2C465D
:10387000BE4214BF6D1C0025C581DDE70220FFF7A5
:1038800055F90028E7D1BDE8F2430FF20030FEF70A
:10389000CBBF1F46A9190A1F3968DFF8A8920FF29B
:1038A000D428B8B9166833462A462046FFF787F968
:1038B00004000DD00220FFF739F90028CBD12346B0
:1038C000F6224146484601B0BDE8F043FEF7ACBFE2
:1038D0003E60C0E7116022463B6831462846FFF74C
:1038E0006EF90400B7D00220FFF720F90028B2D10A
:1038F0002346FF22E5E72DE9F84F044692461E468F
:103900000D46FFF796F8814600F098F84C431419DD
:1039100005F0010BA0888BF0010810B9DFF82862D0
:1039200062E0009620893168001FEA0704D48142D2
:1039300007D2DFF8186257E0884238BFDFF810621C
:1039400052D304EB4B010026088A50BB0A9931B9C7
:10395000E8074CBFDFF8FC61DFF8FC6144E0DFF80A
:10396000FC21108810B1DFF8F8613DE0DFF8F401C8
:10397000076804F1140202EBCB0000F053FE484646
:10398000FFF75FF800F0DDFFFFF753F8B9884A064C
:10399000814608D54FF6BF700140B980DFF8C86195
:1039A00022E0401E08825246009B29462046FFF72F
:1039B00030FF04F1140000EBC800FFF75EFE60B9B1
:1039C00004EBC8008169A1F1480000F041FE4846BF
:1039D000FFF737F800F0B5FF09E004F1100030F808
:1039E0001810491C20F818104846FFF72AF83046EE
:1039F000BDE8F28FF8B504460D4616461F46FFF7A0
:103A0000D8FE30B9009733462A4600212046FFF7FA
:103A100072FFF2BD76B500F008F828B9009601AB48
:103A20002A46032100F006F876BD04460D461E46E0
:103A300001AAD7E620465EE74C4802BD34488268BA
:103A40002C2170474046FEF7FCBFF8B506460C46F1
:103A500000250CB94648F2BD182E01D33848F2BDF6
:103A60001C2300221C212046FEF7A0FFFEF7E1FFE9
:103A700027498A682C2373431A44918809B9324D27
:103A80003FE02660D188A1801389E380918921815C
:103A9000D3896381118AE181538AA3819169A1F15C
:103AA0004803012107E01F6B266901FA07F73E432F
:103AB0002661DB6C483B03F1480602F11407BE4265
:103AC000F1D1136A06E01F6B666901FA07F73E43FE
:103AD0006661DB6C483B03F1480602F11C07BE42FD
:103AE000F1D1936A06E01F6BA66901FA07F73E431E
:103AF000A661DB6C483B03F1480602F12407BE4295
:103B0000F1D1FEF79EFF2846F2BD0000E01500202F
:103B1000601C0120010600020C06000203060002E0
:103B20000D06000202060002040600020F06000253
:103B30001006000218060002130600020906000221
:103B40000E060002647A00080A0600021F06000240
:103B500015060002160600021D060002C81B012001
:103B600006060002E01B0120070600021206000202
:103B7000170600024F735175657565427566666577
:103B8000724F70657261746500000000696E766145
:103B90006C6964207175657565206F7065726174FC
:103BA000652074797065210A000000004168814237
:103BB00001D101207047002070472DE9FF41082006
:103BC00000904FF47A78DFF89473DFF894633068EC
:103BD0004FF0FF336A4601A9FFF70CFF0028F6D12A
:103BE00000980828F3D101980028F0D001F01FFEBA
:103BF00004460D4602980199884701F018FE041BFF
:103C000061EB0505002D01D8022CE0D30320FEF75F
:103C10008DFF0028DBD1A8FB040108FB05114246FB
:103C20000023FDF777FA024601993846FEF7FCFDBE
:103C3000CDE780B586B01823002218216846FEF72C
:103C4000B5FEDFF8201300914FF434720392002286
:103C50000FF23031DFF810030491ADF8042069460B
:103C6000FFF717FB07B000BD2DE9FB4FDFF8F0426F
:103C7000D4F80CA017465046FFF798FF00264FF0E7
:103C8000FF390028C84672D1BC463021DCF8080054
:103C9000DFF8D8223027B0FBF1F107FB110052F812
:103CA0002020DAF804E022F07F4100231546AEF12F
:103CB0001802BB461068B0FBFBFB07FB1B00DFF8DC
:103CC000ACB25BF82000002848BF5FEA400B28D563
:103CD0009268DCF810B05A4516D0C5F3407202B3B2
:103CE00002021ED0002920F07F4040D08842AEF171
:103CF00020020DD3B0FBF1FB01FB1B0088B9C345CB
:103D00000FD2D84616460CE00020CCF80C002EE06E
:103D1000B1FBF0FB00FB1B1018B9CB453CBFD946EB
:103D20001346DEF804E0D645C1D1DDE90001654661
:103D3000BEB1B2682E6996B13023B2FBF3F307FB34
:103D4000132257436268D41904F1200201F078FE6F
:103D50002169081A311AB0FBF6F006FB0016EE6076
:103D600005E023B103F1200201F06AFEE860BDE83E
:103D7000F78FFEB5064600F0A8FA0D46044602216C
:103D80003069DFF8E8313171F0603022B168B1FBA1
:103D9000F2F2302000FB121253F82270C7F3807049
:103DA00050B1F80F08D147F0004743F8227032466F
:103DB00020462946FFF758FF022001902246F1686D
:103DC00000912B4606F1200001F09BFDFFF76BFBF5
:103DD00030B12046294603B0BDE8F04000F046BBB4
:103DE000F7BD70B5DFF87811DFF880618A6802608E
:103DF00030258860002184680171B4FBF5F530201E
:103E000000FB154406EB8400BDE87040042300224B
:103E10000421FEF7CBBD2DE9FE43DFF84461F768CE
:103E20003846FFF7C3FE002500283FD17C6800F02C
:103E30004CFA8046894609E0022904BF0120287017
:103E40003846FFF7B3FE012580BB7C68D4E9020148
:103E500089452BD301D8804528D3F068214601F04D
:103E60000BFDA4F11C050023686900900822296954
:103E7000306801916946FFF7CDFD6978A4F1200013
:103E800079B9FFF7AEFF686810F1400F02D2303009
:103E90006860D5E73021B0FBF1F1302202FB110060
:103EA000F6E70129C8D1FFF764FFC9E72846BDE856
:103EB000FE83F8B5C0230022C021DFF8B000DFF890
:103EC000B050FEF773FD28684FF41061FEF775F8E7
:103ED000040002D1DFF89C00F2BD4FF41063002211
:103EE0001946FEF763FDDFF878607460B460002067
:103EF000A06004F13007012081B2B96027603C4620
:103F0000401C303781B23029F6DB082000900023B6
:103F1000324630210020FFF7E0FB18B100F019F81D
:103F20001548F2BDFFF785FE18B100F012F81348EE
:103F3000F2BD022001F048FDF06030B101F098FCC4
:103F400018B90F4800F0A7FB10B100F002F80120EB
:103F5000F2BD28683946FEF755B900008C7A000892
:103F6000441C0120BB3B0008F01B01202419012048
:103F7000E0150020070300020B0300020C030002FF
:103F8000173E00085377745F5461736B00000000A4
:103F900038B59B4CA16EA56E091DA16605F5B675D9
:103FA00041F8040D4FF4B270A26E121DA2662023D8
:103FB00042F8040D934AA06E00F087F800282ED135
:103FC000A06E914A00F07CF8002828D1A06E8F4A9C
:103FD00000F076F818BBA06E8D4A00F12001A166B2
:103FE0000846F02300F071F8A06E8A4AF030A0660F
:103FF0000C2300F06AF890B9A06E874A00F10C011A
:10400000A1660846042300F060F840B9A06E834A18
:10401000011DA1660846042300F057F808B10120ED
:1040200032BDA06E011DA166002032BD70B50C68C6
:10403000734DA96EAE6E091DA966620141F8040DAB
:104040002046AB6E1B1DAB6606F5227643F8042DA9
:10405000A96E01F07EFDA04206D2A96E01EB4011CF
:10406000A966201AFEF759FBAE66002070BD70B538
:10407000634C6B4EA16E091DA16641F2CC1341F851
:10408000040DE420A26E121DA266E51842F8040D8C
:104090001423A06E324600F018F848B9A06E00F163
:1040A0001401A16608463269D02300F00EF808B169
:1040B000012070BDA06E00F1D001A166002070BD8E
:1040C00000F12001A16608462023291AFEF777BDDA
:1040D0002DE9F0414A4E069F0C46B16E091DB166AE
:1040E000154641F8040D9846B26E121DB26605FBE6
:1040F00008F042F8040D06E0B16E2046B847B26EF3
:104100004244B266641CAC42F6D30020BDE8F081A4
:1041100080B5444A00921C230A68012105E080B55D
:10412000414A009264230A680021FFF7D1FF02BDD3
:1041300038B5062801DA0C0009D15FF00200FEF75D
:10414000F5FC78B9BDE832403FA0FEF76DBB2C4CC2
:1041500004EB00135D68012D04D0187099600120F4
:10416000DA60586031BD38B5254CE36EFF22194640
:1041700004F17000FEF71AFCA06E001DA06641F26B
:104180005C1140F8041D002504EB0512506818B1BD
:10419000D1681078926890476D1C062DF4D3A16EFB
:1041A000091DA166062041F8040D31BD10B5144C5F
:1041B00018202066142104F170006166A0660022B8
:1041C0001A490020FFF7B4FF194A1A490120FFF7E6
:1041D000AFFF04F1600218490220FFF7A9FF002297
:1041E00016490320FFF7A4FF04F1640214490520D7
:1041F000FFF79EFFBDE810401249032001F0E1BC2B
:10420000AC02002000E100E000E200E000E300E09A
:1042100000E400E018ED00E024ED00E004ED00E033
:10422000F81B01204B3A0008E93300086F400008F2
:10423000E81B01201F41000811410008913F0008C0
:104240002D4000086741000848616C45786352655D
:10425000676973746572204552524F52210A0000FB
:104260004018491C1CBFB1F1010100F8012DF9D122
:104270007047000042684A60086043681960416006
:1042800070470068F6E74268016811600022036821
:10429000416859604260026070474168814201D1C3
:1042A000012070470020704738B500200090684614
:1042B00001F0C4FCDFF8E4270098D2E90C450021A6
:1042C00020186941C2E90C0131BD2DE9F843DFF83E
:1042D000D017086808B9002139E000200090FEF7E7
:1042E000A8FB0646684601F0A9FCDFF8B077D7E9DD
:1042F0000C23D7E90E89141843EB01054D450BD863
:1043000028BF444508D2009C002512196B41C7E91B
:104310000C23141843EB01054D4511D828BF444523
:104320000ED200F027F9FEF784FB00F020F930B937
:104330000FF2947300F021F96D22FEF775FAFEE793
:10434000C7E90E453046FEF77CFB20462946BDE80E
:10435000F483F8B5D0E90845AB4211D828BFA24292
:104360000ED200F007F9FEF764FB00F000F930B957
:104370000FF2887300F001F97722FEF755FAFEE795
:10438000DFF82067016B3768B94203D08168891A6A
:1043900061188160C0E90823F1BD2DE9FC47DDE922
:1043A0000A6704460D46914601F023FB8F424FF009
:1043B000000C06D828BF864203D2304639464FF05B
:1043C000010CDFF8D886D8E90623994239D828BFEE
:1043D000904236D2DFF8D06633684FF47A72D8E96B
:1043E0000667B3FBF2F20023361A8F419F4201D8D1
:1043F000964226D3061B61EB05079F424FF0807A59
:1044000001D856451FD3B01A67EB0301C8E908016C
:104410006FF07F4600270021A0196941C8E9060115
:10442000BCF1000F08BF4FF0FF39C8F84C90FFF700
:104430004CFFC8E90C0130463946BDE8FC4701F0A5
:104440000DBCBDE8F3879F42E8D89642E6D2C8E9A2
:10445000083316460027D8E90623A01945EB0701C3
:104460009942DBD3EDD89042D8D3EAE7FEB5DFF826
:104470003C26DFF83046136825681A6BAA4215D02F
:10448000DFF824569C682E68DFF82436B3FBF6F379
:104490004CF25037B7FBF3F7A742A4BFDFF814463E
:1044A000B4FBF3F4E51704194D4103E06FF0010488
:1044B0004FF0FF35CDE90045FFF76FFFF7BDF8B5C9
:1044C0000446207941070FD500F054F8FEF7B1FA01
:1044D00000F04DF838B90FF2386300F04EF84FF4A1
:1044E0008C72FEF7A1F9FEE700F06CF82CD0DFF833
:1044F000B815DFF8BC050A68A168B0FBF2F04CF211
:104500005033B3FBF0F3E588DFF890658B420BDAAC
:10451000DFF8A40500EBC5073846FFF7BEFE00F044
:104520001BF8FFF7A7FE0FE0DFF88815DFF88825F6
:10453000B1FBF0F0A06002EBC5073846FFF7ADFE17
:1045400000F00AF8FFF79DFEA1884FF65570014074
:1045500041F00401A180F1BD28B1B06C4FF00041E1
:10456000E9400843B06404F148013846704702202E
:10457000FEF7DCBA0120FEF7C9BADFF840150FF2EA
:104580006050704738B504462079410719D500F0CE
:1045900019F811D0E58800F036F8DFF81C1501EBAA
:1045A000C500FFF77AFE38B1DFF8F004816C4FF0F8
:1045B0000042EA40914381644FF6FB70A1880140BC
:1045C000A18031BDDFF8DC14206B0A68904270478F
:1045D00010B50446A088410703D52046FFF7D2FF57
:1045E00005E0000703D500F00EF800F048F8207948
:1045F00010F0A00F06D000F048F8A1884FF65F70C9
:104600000140A18010BD04F148003CE6DFF89C1495
:104610000A680020906070478288C16042F02002E2
:104620008280704738B50C46DFF880140D68AA8880
:1046300042F00802AA8005F14801FFF722FE14F1BA
:10464000010F04D0A888EC6040F08000A88031BD44
:1046500010B50446FFF7D7FF00F011F8090606D59C
:1046600000F013F8A1884FF67F700140A1802079F7
:10467000810703D42046BDE8104020E710BDA18883
:104680004FF6F7700140A1807047012104F110003E
:1046900001F078B913E7010001D101207047DFF87C
:1046A000FC1308640020704710B50020DFF80814E0
:1046B00082B2401C01EBC20341F8323082B2202AA0
:1046C0005B60F5DBDFF8D4430021A164012001F039
:1046D0007BF9606408B9012010BD01F0C9F86FF0E2
:1046E00001004FF0FF31C4E90601002010BDDFF8E2
:1046F000AC03806C48B1DFF8C013B0FA80F001EB76
:10470000C0004168A1F148007047DFF8B403DFF84A
:1047100094230168136878204343C81870471CB578
:10472000FEF787F9FFF7E3FF0446DFF87413A0886C
:1047300040F01000A080DFF87403446004600120A2
:104740000860FFF7C2FDC4E908012046FFF71AFF21
:10475000DFF848036FF001024FF0FF33C0E9062392
:10476000C364D4E90801A268D31782184B41CDE98C
:104770000023226BFFF711FE0120FEF7D7F928B9BD
:10478000BDE816400FF29C30FEF74EB813BDFEB5E3
:10479000DFF818633568FFF798FD02460B46284698
:1047A000FFF7D7FDA888002410F0A00F0AD0012041
:1047B000019005F11000E9680091D5E9082301F0A6
:1047C000A0F805E010F00B0F04BF2846FFF777FEB6
:1047D000FFF78DFF0746BD4277600DD0A9884FF6E1
:1047E000EF700140A9800124B98841F01001B9801F
:1047F000D5E90801C7E908013846FFF7C3FEA94B10
:104800003A6B1D68D7E90801AA4204D0BE68F717C1
:1048100086194F4103E06FF001064FF0FF37CDE9F5
:104820000067FFF7BAFD2046FEBD2DE9F84F9C4812
:1048300001684FF0000A79B9FFF79CFEFEF7F9F81E
:10484000FFF795FE38B90FF2F023FFF796FE4FF40D
:10485000FC72FDF7E9FFFEE7FEF7EBF800908F4EE4
:10486000F06C10F1010F14D000F064F8FFF72DFD8B
:1048700004468E4800680D4622462B46FFF769FD28
:1048800020462946FFF7F2FD0098BDE8F24FFEF7FB
:10489000D8B8306C08B180478246746C2046FFF768
:1048A000FCFC002708B1504639E06568FFF70DFDB4
:1048B00080468946D5E9020189452ED301D8804535
:1048C0002BD3706C294600F0D7FF35F80C1C8B46B3
:1048D0001BF028001AD04FF6577211405FEA0B7395
:1048E00025F80C1C0AD541F0400125F80C1C05F1F7
:1048F0003800FFF7C8FC0020E862A8625FEA8B700E
:1049000004D4A5F11000FFF7DAFD01272046FFF7D8
:10491000C4FC002808BF6568CCD047EA0A0000F054
:1049200009F80028A2D06749088800289ED1FEF720
:104930008BF8A9E76FF001024FF0FF33C6E90623B9
:1049400070475749086828B15E490888002808BFA1
:10495000FEF77AB870472DE9F04D504E306D0028C3
:1049600059D0FEF766F8F268834690474E4AD2F86F
:1049700000804F4A04468A4600F08CF8A8FB0023CA
:1049800008FB013315461F4620465146484A00F0B1
:1049900081F8A8FB020108FB0311454A00F07AF8F0
:1049A0002D184F41D6E9080100248F4205D828BFB1
:1049B000854202D2401BB94101E000200021D6E926
:1049C0000A2352197B41C6E90C23A1424FF080759E
:1049D00001D8A84202D36FF07F4008E04FF47A7507
:1049E000A142B8FBF5F803D8404501D2404600216A
:1049F0004FF0FF351218F5644B41C6E9062301F06C
:104A00002DF9C6E90844B068346580475846BDE8CA
:104A1000F04DFEF716B8BDE8F08D2DE9FC471F4EAE
:104A20003069002831D02049DFF884A00C68D6E92D
:104A3000088900F02CF8AAFB00230AFB0133CDE91A
:104A4000002300F024F8AAFB02010AFB031100F086
:104A500020F8DDE90023141853EB010508BF002CF2
:104A600013D0FDF7E6FF074601F008F9FFF72DFC2C
:104A7000C6E90A0172682046294690470120306540
:104A80003846BDE8F647FDF7DCBFBDE8F387404692
:104A9000494622460023FCF73DBB000040020020AF
:104AA000F41B0120EC1B0120A4140020E01B0120BA
:104AB00000CA9A3B002D31012418012054790008C6
:104AC000DC1B0120C81B01204F73476574437572BE
:104AD00072536368656454696D654379636C6500FE
:104AE000415353455254204552524F522120257371
:104AF0002C2025642C2025730A0000004F73546974
:104B00006D65536C69636555706461746500000080
:104B10004F7353636865645461736B456E5175657B
:104B200075650000456E746572696E672073636811
:104B30006564756C65720A004C4F535F536368651A
:104B4000645469636B48616E646C657200000000B8
:104B50000022FFF785BB000000B500BF130096469A
:104B60009446103928BFA0E80C50FAD85FEA417C7F
:104B700028BF0CC048BF40F8042BC90728BF20F845
:104B8000022B48BF00F8012B00BD000000F110020D
:104B9000902A00D3704710B5DFF858260FF2410372
:104BA00002EB80042364DFF8503603EB80000164DD
:104BB00010BDDFF84806406900B10120C0B270475F
:104BC00010B5EFF305840220FDF7B0FF30B922469F
:104BD0000FF274610FF28860FDF726FEFEE7000019
:104BE00038B5FDF726FFDFF814466169491C61619D
:104BF000FDF727FFFFF7AFFEEFF30585284601F02D
:104C000045F8DFF8F40550F8250000B18047284644
:104C100001F03DF8FDF70DFF6169491E6161BDE8D6
:104C20003240FDF70EBF2DE9F847A5B01EA80FF2E0
:104C300040610FF27C651C22FCF7C2FB17A80FF243
:104C40004C611C22FCF7BCFB0FF25C61CDF858D024
:104C5000D1E9002308A80FF26061C0E9002304A88D
:104C6000D1E90023C0E900230FF2606191E80C4014
:104C7000D5E900670AA806AC80E80C40C4E90067E3
:104C80000FF23C650FF2586195E8C0100DACD1E908
:104C9000002384E8C0100FF24065CDE90023D5E978
:104CA000006702AC04A90DAAC4E90067129113922F
:104CB0000AA902AA08AC06AD149115921094119598
:104CC00000F088F918B90FF22060FDF7ADFD00255E
:104CD000BFA60FF23067DFF82C851EA817A950F881
:104CE000259051F825A000F075F938B910A8534661
:104CF00050F825104A464046FDF796FD002412E084
:104D000000F068F920B959F824103846FDF78CFDF9
:104D100044B114F00F0F05D100F05CF910B9304622
:104D2000FDF782FD641CB4EB9A0FE9D300F052F951
:104D300010B93046FDF778FD6D1C072DCDD326B098
:104D4000BDE8F08710B5044600F044F918B90FF239
:104D50007060FDF769FD00F03DF930B92069D0F8C9
:104D600080100FF27460FDF75FFD00F033F928B991
:104D70002069C16F0FF27460FDF756FD00F02AF94B
:104D800028B92069416E0FF27860FDF74DFD00F003
:104D900021F928B92069816E0FF27860FDF744FD92
:104DA00000F018F928B92069C16E0FF27C60FDF798
:104DB0003BFD00F00FF928B92069016F0FF27C600C
:104DC000FDF732FD00F006F928B92069416F0FF2B6
:104DD0008060FDF729FD00F0FDF828B92069016C1D
:104DE0000FF28060FDF720FD00F0F4F828B920698B
:104DF000416C0FF28460FDF717FD00F0EBF828B965
:104E00002069816C0FF28460FDF70EFD00F0E2F87E
:104E100028B92069C16C0FF28860FDF705FD00F02C
:104E2000D9F828B92069016D0FF28860FDF7FCFC04
:104E300000F0D0F828B92069416D0FF28C60FDF7C1
:104E4000F3FC00F0C7F828B92069816D0FF28C607F
:104E5000FDF7EAFC00F0BEF828B92069C16D0FF239
:104E60009060FDF7E1FC00F0B5F828B92069816F8A
:104E70000FF29060FDF7D8FC00F0ACF828B920697B
:104E8000016E0FF29460FDF7CFFC00F0A3F840B97B
:104E90002069D0F884100FF29460BDE81040FDF74F
:104EA000C3BC10BD2DE9F04FADF5217D00F092F8A7
:104EB00018B90FF2E460FDF7B7FC4FF4207300223D
:104EC000194601A8FDF772FD01A91420FDF725FC84
:104ED0000446142C07D201A800EB4411C4F11400BD
:104EE00000F037FE041934B900F074F800286BD1D3
:104EF0000FF2BC6066E000250FF238760FF22077E3
:104F00000FF208780FF2F0690FF2D86A0FF2C06B57
:104F1000009400F05FF818B929465846FDF784FC64
:104F200001A800EB451400F055F818B92178504657
:104F3000FDF77AFC00F04EF818B961684846FDF7B5
:104F400073FC00F047F818B9A1684046FDF76CFC07
:104F500000F040F818B9E1683846FDF765FC00F04C
:104F600039F818B921693046FDF75EFC00F032F8D7
:104F700020B961690FF2D060FDF756FC00F02AF805
:104F800020B9A1690FF2E060FDF74EFC00F022F8B5
:104F900020B9E1690FF2F060FDF746FC00986D1C46
:104FA0008542B6D398490868FDF78CFA28B900F015
:104FB00011F810B99548FDF737FC00F00BF818B957
:104FC0000FF2E060FDF730FC0DF5217DBDE8F08FBC
:104FD0000A0000000120FDF7A9BD000078B50446D5
:104FE0008FB0FFF7F7FF8A4D18B905F18C00FDF778
:104FF0001BFC0FF2C86191E84C00684680E84C0049
:10500000FFF7E8FF20B961880FF20030FDF70CFCD4
:10501000FFF7E0FF20B9A1680FF20030FDF704FCB4
:10502000FFF7D8FF30B921885DF821100FF2FC207E
:10503000FDF7FAFBFFF7CEFF20B961680FF2FC2005
:10504000FDF7F2FBFFF7C6FF18B90FF20430FDF7CA
:10505000EBFB208801282FD1FEF759F86D4A136821
:10506000782148431E18FFF7B5FF20B9D6F8441041
:10507000BCA0FDF7D9FBFFF7ADFF20B9D6F8301083
:10508000BCA0FDF7D1FBFFF7A5FF20B9D6F80010B3
:10509000BCA0FDF7C9FBFFF79DFF20B9D6F82C1087
:1050A000BDA0FDF7C1FBFFF795FFA0B9D6F828100A
:1050B000BEA0FDF7B9FB0EE0022805D1FFF78AFF7D
:1050C00048B905F13C0004E0FFF784FF18B905F189
:1050D0006400FDF7A9FB2046FFF734FE6846294629
:1050E0003C22FCF76DF92069436E00220F216846CF
:1050F000FDF7F0FCFFF76EFF18B90FF24440FDF723
:1051000093FB00240FF258455DF8240058B1FFF7D7
:1051100061FF28B95DF8242021462846FDF784FB6D
:10512000641C0F2CF0D3FFF755FF18B90FF24C4059
:10513000FDF77AFBFDF72DFFFFF775FDFFF7B2FED8
:1051400010B070BD2D4C66696080761C6661050CE0
:10515000A689761CA681EE0758BF4FF0AB3161607F
:105160002D49096829B1AD075ABF01250A6B0225EF
:1051700002E000254FF0FF32C00048BF403BA26074
:10518000236125800320FDF7C1FC2046FFF726FFA1
:10519000FDF740FD00BF1748204A42600021016032
:1051A0000221174A40F82120491C9029FAD31C4AB1
:1051B0001C49C26081601C4A1C49426101611C4A51
:1051C0001C49C26281611C4A1C49C26381634FF65B
:1051D000FF011B4A106053681A480B400343536099
:1051E000D16941F4E021D161D06840F01000D06075
:1051F0007047000000000020E4150120F81B01208A
:10520000C14B0008E4780008E01500203C7A000853
:10521000A4710008DC1B0120E01B0120197C0008A0
:10522000DB610008D16100085D6200087B62000854
:105230004362000899620008F17B0008592A0008BF
:1052400008ED00E00007FA0548616C48776944659D
:105250006661756C7448616E646C65720000000074
:105260002573206972716E756D3A25640A0000001D
:1052700000E100E000E200E000E300E000E400E024
:1052800018ED00E024ED00E004ED00E02000000057
:105290002000000020000000F00000000C000000D2
:1052A0000400000004000000656E61626C6500008F
:1052B00070656E64696E670061637469766500008D
:1052C0007072696F726974790000000065786365B7
:1052D0007074696F6E000000736863737200000081
:1052E000636F6E74726F6C000D0A4F5320657863A4
:1052F000657074696F6E204E5649432064756D70F9
:105300003A0A000030782578200000005479706552
:105310002020202020203D2025640A00546872644B
:105320005069642020203D2025640A005068617384
:105330006520202020203D2025730A004661756CE1
:105340007441646472203D20307825780A000000A2
:1053500043757272656E74207461736B20696E663A
:105360006F3A0A005461736B206E616D65203D20B9
:1053700025730A005461736B2049442020203D208E
:1053800025640A005461736B2053502020203D2077
:10539000307825780A0000005461736B2053542044
:1053A00020203D20307825780A0000005461736B7E
:1053B0002053532020203D20307825780A0000001B
:1053C000457863657074696F6E20726567206475D7
:1053D0006D703A0A00000000504320202020202059
:1053E00020203D20307825780A0000004C522020F3
:1053F0002020202020203D20307825780A00000041
:10540000535020202020202020203D203078257857
:105410000A000000523020202020202020203D20A3
:10542000307825780A0000005231202020202020EA
:1054300020203D20307825780A00000052322020BC
:105440002020202020203D20307825780A000000F0
:10545000523320202020202020203D203078257825
:105460000A000000523420202020202020203D204F
:10547000307825780A000000523520202020202096
:1054800020203D20307825780A0000005236202068
:105490002020202020203D20307825780A000000A0
:1054A000523720202020202020203D2030782578D1
:1054B0000A000000523820202020202020203D20FB
:1054C000307825780A000000523920202020202042
:1054D00020203D20307825780A000000523130200D
:1054E0002020202020203D20307825780A00000050
:1054F000523131202020202020203D203078257876
:105500000A000000523132202020202020203D209F
:10551000307825780A0000005072694D61736B2065
:1055200020203D20307825780A0000007850535222
:105530002020202020203D20307825780A000000FF
:105540002D2D2D2D2D206261636B7472616365209A
:105550007374617274202D2D2D2D2D0A0000000012
:105560006261636B7472616365202564202D2D2058
:105570006C72203D20307825780A00002D2D2D2DCD
:105580002D206261636B747261636520656E6420B7
:105590002D2D2D2D2D0A00000D0A6D656D6F727970
:1055A00020706F6F6C7320636865636B3A0A00004C
:1055B000616C6C206D656D6F727920706F6F6C20FF
:1055C000636865636B20706173736564210A000012
:1055D000706F6F6C206E756D202020203D2025643B
:1055E0000A000000706F6F6C2074797065202020B5
:1055F0003D2025640A000000706F6F6C20616464B8
:10560000722020203D20307825780A00706F6F6C62
:105610002073697A652020203D20307825780A00A3
:10562000706F6F6C20667265652020203D20307899
:1056300025780A00706F6F6C20626C6B4E756D2060
:105640003D2025640A000000706F6F6C2065727247
:105650006F72206E6F6465206164647220203D204B
:10566000307825780A000000706F6F6C20657272C8
:105670006F72206E6F6465206C656E2020203D2067
:10568000307825780A000000706F6F6C20657272A8
:105690006F72206E6F6465206F776E6572203D209B
:1056A00025640A006D656D6F727920706F6F6C20D4
:1056B000636865636B20656E64210A00DC7A00080C
:1056C000E87A0008F47A000810B5134C216811B18B
:1056D000B1F57A7F01D2114810BD01464FF0FF307D
:1056E000FFF754FA20680E490E4B08604FF47A72A7
:1056F000B0FBF2F01860401EB0F1807F01D30A4881
:1057000010BD0A490A4A48600023F02010708B60DF
:1057100007200860002010BDA4140020000400022F
:105720008C1C0120881C01200204000210E000E013
:1057300023ED00E010B5044611B1B1F1004F01D3E3
:10574000222010BD24B12AB900202070962010BD5F
:10575000162010BDB3F1004F0CD233B900202070D9
:1057600010BD39B153B15B1E491E12F8010B002860
:10577000F7D119B900202070A22010BD002010BD63
:1057800070B50029054614463CD0B1F1004F39D21E
:10579000002D18BF002C35D0B3F1004F32D28BB39F
:1057A0008B4226460CD2307818B15B1E06F10106FA
:1057B000F9D1361BAC4211D2A119A94215D312E07E
:1057C0000A46307818B1521E06F10106F9D1361B8F
:1057D0008E42EFD100202870A22070BDA5423CBFB0
:1057E000A819A04201D3A54208D132462146284635
:1057F000FBF7E6FD0021A955002070BD00202870B0
:10580000B62070BDBDE8704094E780B5012808BFA0
:10581000FFF703F9BFF34F8F30BFBFF36F8F01BDA9
:1058200080B5FEF741FDBDE80140FEF7FEBF38B58B
:10583000FEF74BFD064C25684FF47A72B5FBF2F289
:1058400001B0BDE83040FFE70023FBF763BC000078
:10585000A414002042684A600860436819604160EF
:1058600070474168814201D1012070470020704794
:10587000406000600020704710B54A6808681060FA
:1058800000220B68486858604A600A604FF0FF3495
:10589000C1E9024410BD2DE9F04782469046DAF88E
:1058A00004409946FFF7DDFF00250026002730B3AE
:1058B0004FF0FF30014620E06468544540464946B9
:1058C00008D0D4E902239945F6D828BF9045F3D2F1
:1058D00016461F46002908BF00280CD0002F08BF1D
:1058E000002E0AD0321A67EB0103AB4240F2E934D2
:1058F00003D8A24201D230463946BDE8F0870021E4
:10590000DFE72DE9F84309995A4F0C46012C20D1C5
:10591000089E14461D468046FDF78BF88146564882
:1059200001684FF47A72B1FBF2F2E2FB0645C8E976
:1059300002453846FFF795FFD0B97868D8E90223C9
:10594000D0E902459D4213D828BF944210D238684E
:1059500005E0022C08BF0837DAD031E00068D0E952
:105960000245AB42FAD301D8A242F7D3414601E047
:1059700041463846FFF76EFF4846BDE8F243FDF763
:1059800060B8000070B5012904463A4D13D1FDF707
:1059900050F80646D4E902014FF0FF32914208BFA9
:1059A000904203D021462846FFF766FF3046BDE807
:1059B0007040FDF746B8022908BF0835E7D000BFA0
:1059C0002EA0FCF745FF00BF80B50128294901D171
:1059D000084602BD022802D101F1080002BD0220E2
:1059E000FDF7A4F818B900BF2BA0FCF71DFF00209D
:1059F00002BD2DE9F84306460F46FDF71AF8814629
:105A0000DFF8708032463B464046FFF744FF0446CD
:105A10000D4632463B4608F10800FFF73CFF0646BC
:105A20000F464846FDF70DF8BD4205D828BFB442E1
:105A300002D22046294601E030463946BDE8F483CB
:105A400050B5D2E90223994204D301D8904201D340
:105A5000002050BD084E121A8B414FF47A74A4FBFB
:105A60000201326804FB0311BDE850400023FBF73C
:105A700051BB0000341C0120A4140020536F727429
:105A8000206C696E6B2074797065206572726F721C
:105A9000203A2025750A0000496E76616C69642001
:105AA000736F7274206C696E6B2074797065210A53
:105AB00000000000016801F0FF021A2A05D22E48FA
:105AC0000243914201D100207047012070472DE927
:105AD000F84504460D462023002220212846FCF7E5
:105AE00065FFFCF7A6FF8046002028706C606168A7
:105AF00020684143A96004F1140722682A614FF02D
:105B0000000A6068A8606168A068091AE9602668F0
:105B1000606800FB0646143603E020680AF1010ABB
:105B20003F1861688A450FD23846A04201D3B0427F
:105B3000F3D3FFF7BFFF0028EFD0381D686121685D
:105B4000091FA9613878E8614046BDE8F245FCF7D5
:105B500078BFF8B50546094804680E4600274CB1E1
:105B600031462046FFF7B3FF7F1C2036AF4238BFD7
:105B7000E468F4D33846F2BD005A5AA5801C0120CF
:105B800038B50C00054607D06168FFF7F9FF2268B9
:105B90002846BDE83240104731BD70B50446254661
:105BA000042D0DDAFCF745FF06461F4850F8251076
:105BB0002046FFF7E5FF3046BDE87040FCF741BFE7
:105BC00070BDF8B50646042E0F4601DA380001D143
:105BD0001648F2BDFCF72DFF134D0446286978B92D
:105BE0001349086880B90B1D2A6943F8302001EB7E
:105BF000C002401C10282A61F6DB0E48FCF77AFF31
:105C000028694168296120B92046FCF71AFF0A4833
:105C1000F2BD076055F82610416045F82600204681
:105C2000FCF70FFF0020F2BD101C01201000000245
:105C3000E41901209B5B00081400000238B50546FA
:105C4000FCF7F7FE04490C682C604968641AFCF7FD
:105C5000F8FE2046002134BD14E000E0064A136837
:105C60005B085B001360401E50600021916010686B
:105C700040F001001060704710E000E00248016849
:105C8000490849000160704710E000E07047704724
:105C90002DE9F843040016D02078DFF81463C1071B
:105CA00013D5B06800F00C00042807D0B06800F0ED
:105CB0000C0008283ED1706841023BD53068810352
:105CC00003D56068002800F005812078B94F81076E
:105CD00019D5B06810F00C0F07D0B06800F00C00B8
:105CE00008285CD17068410259D43068810703D517
:105CF000E068012840F0EE803168206921F0F80169
:105D000041EAC0013160217808076CD56069AA4971
:105D1000002862D001220A6000F052F90546706F37
:105D2000810700F1D98000F04BF9401B0228F6D919
:105D300003203AE16068B0F5803F04D1306840F458
:105D40008030306011E0B0F5A02F306806D140F40B
:105D500080203060316841F4803105E020F48030EB
:105D60003060316821F480213160606858B100F002
:105D700027F9054630688103A7D400F021F9401BBC
:105D80006528F7D3D4E700F01BF905463068810396
:105D90009BD500F015F9401B6528F7D3C8E7E068EC
:105DA00070B10121396000F00BF9054630688107B8
:105DB00000F1BE8000F004F9401B0228F6D9B7E7D5
:105DC000386000F0FDF80546316888079BD500F083
:105DD000F7F8401B0228F7D9AAE7086000F0F0F8AE
:105DE0000546706F810777D500F0EAF8401B02285E
:105DF000F7D99DE70528306F06D140F004003067E1
:105E0000306F40F0010005E0400840003067306F1F
:105E100020F00400306741F28938A06868B100F0D2
:105E2000CFF88146306F810700F18F8000F0C8F80D
:105E3000A0EB09004045F5D37AE700F0C1F88146B0
:105E4000306F810740F1818000F0BAF8A0EB0900C3
:105E50004045F5D36CE700F0B3F8401B022840F250
:105E6000878065E700F0ACF8001B022840F29880BC
:105E70005EE70020386600F0A3F804463068810130
:105E800040F1928000F09CF8001B0228F6D94FE701
:105E900001281FD07068E26900F48001914202BFBE
:105EA00000F03F01226A914201BF47F6C0710140F4
:105EB000626AB1EB821F0DD1A26A520800F4403130
:105EC000521EB1EB024F02BF00F07060E16AB0EB0E
:105ED000016F69D0012068E0207841073AD5306C25
:105EE0000025C1000AD400950125316C41F0805194
:105EF0003164306C00F0805000900098DFF8BC8076
:105F0000D8F80000C1051BD4D8F8000040F4807018
:105F1000C8F8000000F054F88146D8F80000C10528
:105F20000ED400F04DF8A0EB09000228F5D9FFE6E9
:105F30003068216920F0F80040EAC1003060E2E6F4
:105F4000A06801287FF456AF5AE71DB1306C20F0ED
:105F500080503064A06938B3B16801F00C010829A1
:105F600096D0022885D10020386600F029F8054631
:105F7000306881013FF56FAFE269206A616A0243D0
:105F8000A06A400842EA8112401E42EA0042E06AEA
:105F900042EA006272600121396600F011F804469D
:105FA000306881017FF55EAF0020BDE8F28300BF5D
:105FB0000038024000004742800E47420070004017
:105FC00001484068704700BF981400202DE9F84F41
:105FD0000D464FF0000871490F22012304462E6838
:105FE00003FA08F000EA0609814540F0CF804FEA45
:105FF000480C032606FA0CF66FEA060E6E6806F0E9
:106000000307012F1CBF06F00306022E11D1A6685C
:10601000EF680EEA060607FA0CF73E43A6606668CC
:1060200026EA00006E68C6F3001606FA08F630434A
:1060300060604FEA88002E7906F00306032E1FD019
:10604000E668AF680EEA060607FA0CF73E43E6601C
:106050002E7906F00306022E12D14FEAD80604EB81
:10606000860600F01C07D6F820A002FA07FB2AEAF1
:106070000B0AD5F810B00BFA07F747EA0A073762A0
:1060800026680EEA06072E7906F0030606FA0CF6D5
:106090003E4326606E68F60078D5002600964FEAEB
:1060A000980C0E68DFF8F8E046F480460E6000F0C9
:1060B0000C000E6806F480460096009E5EF82C7078
:1060C00002FA00F627EA0606364FBC4208BF002750
:1060D0002CD0354FBC4208BF012727D0334FBC42DC
:1060E00008BF022722D0324FBC4208BF03271DD071
:1060F000304FBC4208BF042718D02F4FBC4208BF06
:10610000052713D02D4FBC4208BF06270ED02C4FB9
:10611000BC4208BF072709D02A4FBC4208BF082746
:1061200004D0294FBC420CBF09270A2707FA00F008
:1061300030434EF82C006FEA090C244806680CEA3C
:10614000060E6E68F70348BF49EA0E0EC0F800E07D
:1061500046680CEA060E6E68B70348BF49EA0E0EA1
:10616000C0F804E086680CEA060E6E68F70248BFC5
:1061700049EA0E0EC0F808E0C6680CEA060E6E6822
:10618000B60248BF49EA0E0EC0F80CE008F101085B
:10619000B8F10F0F7FF623AFBDE8F18F443802400E
:1061A000083801400000024000040240000802409C
:1061B000000C02400010024000140240001802408F
:1061C000001C02400020024000240240003C01402C
:1061D0004FF010004FF000016FE04FF011006B4ADC
:1061E00012684FF0140140EA012012F0004F64D110
:1061F00000F0FF004FF0150140EA012012F0020FFD
:106200005BD100F0FF00624A126812F4004F05D122
:1062100012F0800F07D14FF0000C08E05D490968CB
:106220004FF4803C03E05C4909684FF4803CB2FACB
:1062300082F25A4B13441A7840EA022040EA0C00DA
:106240003BE01EF0040F0CBFEFF30880EFF3098072
:10625000816911F8020C4FF000012EE04C480068F3
:1062600010F4004F06D04B4909684FF4803C00F40D
:10627000F8501BE04FF0000C18E04548006810F0A3
:10628000800F06D0444909684FF4803C00F01B00A1
:106290000CE04FF0000C09E03D48006840F20F317F
:1062A0004FEA014100EA01004FF0000CB0FA80F023
:1062B0003A4B0344187840EA0C00394A4FF0080C76
:1062C0001368002B1ED040F4003093FAA3F2B2FA08
:1062D00082F20CF0010C02EB4C121EF1130F08D1EC
:1062E0001AAB08B4EFF3108C2DE9F01F2DED108BD5
:1062F00045E008AB08B4EFF3108C2DE9F01F40F037
:1063000080503CE002F10402BCF1010CD8D1254AD6
:106310001288254B02EA0302002ADED1234A1268C2
:1063200012F0010FD9D01EF1130F16D16A4698B0A2
:10633000EFF3098303F1680C4DF804CDEFF3108CF3
:106340002DE9F01F2DED108BB3E8F00FB3EC108B9F
:1063500022ED108B22E9F00F11E06A4688B0EFF3CE
:10636000098303F1200C4DF804CDEFF3108C2DE9D7
:10637000F01F93E8F00F22E9F00F40F080506B46D9
:1063800072B671B6FEF7DEBE00BF00002CED00E075
:1063900028ED00E038ED00E034ED00E07814002056
:1063A00000E300E024ED00E0000C0000F41B0120FD
:1063B0002DE9F04104000F4678D0494E306800F0D6
:1063C0000F00B84202D200F073F86FD12068454D3B
:1063D000810712D5400703D5A96841F4E051A960AF
:1063E0002078010703D5A86840F46040A860A96838
:1063F000A06821F0F0010143A9602178C8074DD5BC
:106400006068012802D129688A0305E0022818BFC4
:10641000032803D129688A0103D447E029688A0741
:1064200044D5A968890840EA8100A860FFF7C8FD43
:106430008046A868616800F00C00B0EB810F2DD099
:10644000FFF7BEFDA0EB080041F289318842F0D38E
:10645000032021E02078410705D5AA68E06822F4EE
:10646000E0520243AA602178080706D5A96820698E
:1064700021F4604141EAC001A96000F03FF8AA6838
:1064800019491A4BC2F30312895CC84018601848B6
:10649000006800F063F80020BDE8F081306800F08B
:1064A0000F008742D6D200F003F8D3D00120F3E7E3
:1064B0003770316801F00F01B94270470B480D4A3F
:1064C000006813680C49C3F3822206E00748094AB2
:1064D000006813680849C3F34232895CC8407047BA
:1064E000003C024000380240787B0008A4140020E1
:1064F000A014002008380240347C000830B5144C49
:10650000606800F00C00042802D0082802D01DE0CA
:10651000104830BD226820680023410202F03F028B
:1065200004D525680B49C5F3881003E020680A49A3
:10653000C0F38810A1FB0001FAF7ECFD2168C1F35C
:106540000141491C4900B0FBF1F030BD024830BDAB
:106550000438024040787D010024F40038B50D4D28
:106560000D4B2A7804464FF47A711868B1FBF2F2A9
:10657000B0FBF2F000F049F850B9102C08D200221C
:1065800021464FF0FF3000F023F8AC60002032BD10
:10659000012032BD98140020A4140020090102003B
:1065A00002D4244881547047234B02F00F021A444E
:1065B00002F8041C7047214B19684FF6FF020002D5
:1065C000114000F4E06008431D490843186070471B
:1065D00038B51A4B1C68C4F30223C3F10704052C19
:1065E00028BF04241D1D072D34BF0023DB1E0125F9
:1065F00005FA04F4641E2140994005FA03F35B1E7A
:106600001A401143BDE83440C8E710B5401EB0F150
:10661000807F01D3012010BD0A4C60600F214FF034
:10662000FF30FFF7BBFF0021A160072020600020A2
:1066300010BD000000E400E018ED00E00CED00E00B
:106640000000FA0510E000E0706F6F6C2061646478
:106650007220202020202020202020706F6F6C20AE
:1066600073697A6520202020757365642073697AC8
:10667000652020202020667265652073697A652078
:106680002020206D61782066726565206E6F6465DC
:106690002073697A6520202075736564206E6F64AD
:1066A00065206E756D202020202066726565206E45
:1066B0006F6465206E756D20202020202055736149
:1066C000676557617465724C696E650A0000000069
:1066D0002D2D2D2D2D2D2D2D2D2D2D2D2D2D2D20F7
:1066E0002020202D2D2D2D2D2D2D2D202020202042
:1066F0002D2D2D2D2D2D2D202020202020202D2D25
:106700002D2D2D2D2D2D20202020202D2D2D2D2DFA
:106710002D2D2D2D2D2D2D2D2D2020202020202004
:106720002D2D2D2D2D2D2D2D2D2D2D2D2D202020C0
:106730002020202D2D2D2D2D2D2D2D2D2D2D2D20BD
:1067400020202020202D2D2D2D2D2D2D2D2D2D2DBA
:106750002D0A00003078252D313678202020307821
:10676000252D38782020203078252D3878202020BD
:10677000203078252D38782020203078252D31368E
:10678000782020203078252D3133782020202030AB
:1067900078252D313378202020203078252D313375
:1067A000780A00002DE9104028A442F21070FCF78E
:1067B000EEFD2046FCF738F8F7E700002DE9104021
:1067C0002AA44FF4FA60FCF7E2FD2046FCF72CF80F
:1067D000F7E7000010B588B002A81821FCF714FAFA
:1067E000124C00BF29A10294069106224FF4805456
:1067F000ADF80C20059402A901A8FCF74AFD10B1E0
:1068000027A0FCF711F80A49029107222AA1069154
:10681000ADF80C20059402A96846FCF73AFD10B1CA
:106820002AA0FCF701F808B010BD0000BD67000801
:10683000A567000880B5FCF71BF828B9FFF7CAFF69
:10684000BDE80140FCF711B801BD00005461736B55
:1068500053616D706C65456E747279322072756E1D
:106860006E696E672E2E2E0A000000005461736B55
:1068700053616D706C65456E747279312072756EFE
:106880006E696E672E2E2E0A000000005461736B35
:1068900053616D706C65456E747279310000000053
:1068A0005461736B31206372656174652066616940
:1068B0006C65640A000000005461736B53616D7075
:1068C0006C65456E74727932000000005461736B20
:1068D0003220637265617465206661696C65640A63
:1068E0000000000038B5040001D1012032BD00F0E5
:1068F00026F808B900F014F800F017F800F023F8B3
:10690000FFE7416100F001F832BD2068C16841F441
:106910000051C1600020686020216970A970704733
:1069200000212970204600F092B824206870206869
:10693000C16821F40051C160204600F00EB804F196
:106940003C05687870472068016921F49041016135
:106950002068416921F02A01704770B50446226819
:106960001169E06821F4405101431161D368264860
:10697000A168034020690B4361690343E0690B434D
:106980000343D3605169A06921F44071014351610F
:106990001E498A421CBF1E48824202D1FFF796FD63
:1069A00001E0FFF78BFD62682568E4696426192120
:1069B000B4F5004FA1FB000112D1D30F5200FAF73A
:1069C000A9FB00F027F8F60032366420B6FBF0F0A1
:1069D000420002F4F87202EB011200F0070010E02E
:1069E000930F9200FAF796FB00F014F83601323656
:1069F0006420B6FBF0F000F0F00202EB011200F0B0
:106A00000F008018A86070BDF369FFFF00100140FF
:106A1000001401406421B0FBF1F106FB1106704740
:106A200080B52448244901604FF4E13200230C2151
:106A300042608360C360036141618361C361FFF7AA
:106A400051FF18B1BDE8014000F0A2B801BD38B552
:106A500086B0044601A81421FCF7D6F82468164D28
:106A6000AC4225D10020009000221448416941F039
:106A700010014161416901F01001009100990092FB
:106A80004FF4C061036843F0010303600222006811
:106A900000F0010000900098094801910292002145
:106AA0000391032207210591049201A9FFF78EFAB1
:106AB00007B030BD841B0120001001403038024077
:106AC0000000024080B500F065F800F007F800F023
:106AD0007BF8FFF7A5FFFFF7ADFEFEE780B592B0AC
:106AE00006A83021FCF790F801A81421FCF78CF8D7
:106AF000002000904FF480332348016841F080511A
:106B000001600021006800F08050009000981F484C
:106B10000091026842F4404202600122006800F4E1
:106B20004040009006A80099069202214FF480028E
:106B30000C910D9219214FF4B4720E910F92022113
:106B40000422079310911192FFF7A2F808B100F008
:106B50001FF800F05FF808B100F01AF80221029166
:106B6000002203920F204FF4A051019004914FF4A2
:106B700080520592052101A8FFF71AFC08B100F028
:106B800007F813B000BD000040380240007000401C
:106B900072B6FEE780B50B48016841F400710160F0
:106BA000026842F480620260016841F48071016011
:106BB0000320FFF700FD0020FFF7D0FC00F066F88F
:106BC000002002BD003C024081B00020009010482F
:106BD000016841F004010160026802F004020092C1
:106BE000002200990092036843F08003036001686B
:106BF00001F08001009100990092036843F00103C5
:106C00000360006800F001000090009801B0704738
:106C100030380240F8B500F027F8012100F01EF8E6
:106C20003160FFF7CDF907462868C1030CD4FFF7A0
:106C3000C7F9C01BA042F7D30320F2BDFFF7C0F98C
:106C4000801BA04205D3F7E701207060FFF7B8F979
:106C5000064628688103F1D50020F2BD006800F0E7
:106C600080500090009870470020009040F2E93476
:106C70000448054E0168024D41F0805101607047A3
:106C8000047000404038024040000E4281B00020B5
:106C9000009000220A48416841F480414160416807
:106CA00001F48041009100990092036843F0805301
:106CB0000360006800F080500090009801B07047B9
:106CC000403802400A207468652062726F6B656EFE
:106CD000206E6F6465206973207468652066697230
:106CE0007374206E6F64650A000000000A206272EF
:106CF0006F6B656E206E6F646520686561643A2015
:106D0000307825782020307825782C20000000006D
:106D10000A2062726F6B656E206E6F646520686515
:106D200061643A203078257820203078257820203A
:106D3000307825782020307825782C20000000003D
:106D400070726576206E6F646520686561643A20B4
:106D500030782578202030782578202030782578E4
:106D60002020307825782C20000000004D656D6FC4
:106D7000727920696E7465726974792063686563DD
:106D80006B206572726F722C20637572206E6F6457
:106D9000653A20307825782C20707265206E6F64FB
:106DA000653A20307825780A0000000077726F6E0F
:106DB00067206D656D20706F6F6C20616464723A3E
:106DC00020307825782C2066756E633A2025732C48
:106DD000206C696E653A2025640A0000467265657C
:106DE0004C697374496E6465783A2025752C206E61
:106DF0006F64653A20307825782C20624E6F646588
:106E00003A20307825782C20707265763A203078D8
:106E100025782C206E6578743A20307825780A0021
:106E20006D656D20706F6F6C20696E666F3A2070B3
:106E30006F6F6C416464723A20307825782C207032
:106E40006F6F6C53697A653A20307825780A0000B4
:106E50006D656D20706F6F6C20696E666F3A207083
:106E60006F6F6C57617465724C696E653A2030784B
:106E700025782C20706F6F6C437572557365645361
:106E8000697A653A20307825780A00002DE9F041CA
:106E900007468846387810F0030F16461D4633D053
:106EA000384600F099F878BBB8F1000F1CBFD8E95C
:106EB00000018619012D2ED13888C10415D5396AF3
:106EC00007F14402384600F0A3F83A6B044602B9D1
:106ED0003A69F968384600F09BF8361B341A7A692B
:106EE000F968384600F094F8261A1EB94DB916F123
:106EF000010F09D097F903002A46314600F08EF8B9
:106F0000064616F1010F09D12320AFF300804FF0A0
:106F1000FF30BDE8F081022DE8D1EBE7388810F4AE
:106F2000405F0ED07868F86038617861B86107F129
:106F300044017868F861396207F130000021786215
:106F40003963B8F1000F05D0D8E9020107F1340226
:106F5000C2E900013B884CF6FF6003403B80002003
:106F6000BDE8F08170B50546AFF300802888810444
:106F700015D56E680024EA6895F903003146914200
:106F800012D2521A00F06FF810F1010F1CBF002846
:106F90003618F0D10FE04DF6FF70014029802846E9
:106FA000AFF30080002070BD0022002100F05BF8EC
:106FB00010F1010F00D101246868E860A861E86160
:106FC000002C2988E7D041F4007129802846AFF3CE
:106FD00000804FF0FF3070BDF8B5A0B9AFF300806E
:106FE00000250A4E08244FF0FF37306820B1FFF724
:106FF000B9FF002848BF3D46361D641EF5D1AFF3EA
:1070000000802846F2BDBDE8F240ABE780150020C5
:10701000914234BF511A0021084670473EB5040022
:107020000D00012A02D100F06BF807E0022A07D117
:1070300000940020019069460C20ABBE2D1801E0A1
:10704000002A0CD10094019569460A20ABBE0028A5
:1070500005D100222100280000F02FF801E00020D7
:10706000C04303B030BD80B5002802D400F06AF8F8
:1070700002BD002002BD000010B4314A00211346B9
:107080001C6884421EBF491C9C6884421EBF491C68
:107090001C69844209D09C69491C844205D0491C62
:1070A00020331029ECD310BC7047002342F8313054
:1070B00002EBC1014B6010BC704770B4204C002340
:1070C00025462E688E421EBF5B1CAE688E421EBFD8
:1070D0005B1C2E698E4209D0AE695B1C8E4205D0C6
:1070E0005B1C2035102BECD370BC7047054604EBBD
:1070F000C303012A04BF59684D195D6070BC704715
:1071000010B40F4A002113461C6884421EBF491C5C
:107110009C6884421EBF491C1C6984420AD09C6939
:10712000491C844206D0491C20331029ECD310BCE2
:107130000020704702EBC100406810BC704700009F
:10714000641A012080B5002901D1002002BD012868
:1071500001D0022802D100F004F802BD00F011F8BD
:1071600002BD30B583B00C0015000120FAF704FD14
:1071700000900194029569460520ABBE281A03B021
:1071800030BD18B583B00300140000930191029440
:1071900069460520ABBE01221900201AFFF78DFFBA
:1071A00004B010BD0000000000000000000000005E
:1071B00000000000000000000000000000000000CF
:1071C00000000000000000000000000000000000BF
:1071D00000000000000000000000000000000000AF
:1071E000457863657074696F6E206F636375722094
:1071F000696E20696E746572727570742070686152
:107200007365210A00000000457863657074696F3A
:107210006E206F6363757220696E20737973746575
:107220006D20696E6974207068617365210A0000C1
:107230002A2A2A2A2A2A2A2A2A2A2A2A2A4578630C
:10724000657074696F6E20496E666F726D617469E6
:107250006F6E2A2A2A2A2A2A2A2A2A2A2A2A2A2A05
:107260000A00000010B50446E068A169884251D3C5
:10727000218849F202030B40022B08D008044CBFBE
:107280004FF400704FF48440014321803BE001F44F
:10729000C042B2F5C04F06D1A168884203D3204650
:1072A000FFF79AFE78BB208810F4406F02BF606839
:1072B00004F14401884217D14FF4007000F033F814
:1072C000606030B904F144006060E060401CA06080
:1072D0000AE0218841F040012180E060606100F512
:1072E00000726068A260E0616068A1682061A161CD
:1072F000207841070AD502220021204600F01CF820
:1073000010F1010F02D14FF0FF3010BD208840F482
:10731000C0402080002010BD010003D00548006857
:10732000FAF770BF704720B1014602480068FAF7CB
:1073300044BE7047E015002070B504460D46164661
:10734000AFF3008033462A4600212046FFF79EFD1A
:1073500005462046AFF30080284670BD2D2D2D2D0B
:107360002D2D2D2D2D2D2D2D2D2D2D2D2D2D2D2D4D
:107370002D2D2D2D2D2D2D2D2D2D2D2D2D2D2D2D3D
:107380002D2D2D2D2D2D2D2D2D2D2D2D2D2D2D2D2D
:107390002D2D2D2D2D2D2D2D2D2D2D2D2D2D2D2D1D
:1073A0002D2D2D2D2D2D2D2D2D2D2D2D2D2D2D2D0D
:1073B0002D2D2D2D2D2D2D2D2D2D2D2D2D2D2D2DFD
:1073C0002D2D2D2D2D2D2D0A000000005B25735D28
:1073D000204E6F207375697461626C6520667265FA
:1073E0006520626C6F636B2C2072657175697265C4
:1073F0002066726565206E6F64652073697A653AF0
:1074000020307825780A00000D0A54494420205085
:1074100072696F7269747920202053746174757376
:107420002020202020537461636B53697A652020EB
:10743000202057617465724C696E652020202053AE
:107440007461636B506F696E742020546F704F6667
:10745000537461636B2020204576656E744D6173B3
:107460006B202053656D4944000000002D2D2D2D0B
:107470002D2D2D2D2D202020202D2D2D2D2D2D2D70
:107480002D2D2D2020202D2D2D2D2D2D2D2D2D2D53
:1074900020202D2D2D2D2D2D2D2D2D2D2020202D5D
:1074A0002D2D2D2D2D2D2D2D20202D2D2D2D2D0053
:1074B0005B25735D2C2025642C206D656D6F7279C2
:1074C00020636865636B206572726F72210A2066A3
:1074D0007265654E6F64652E707265763A203078FD
:1074E0002578206973206F7574206F66206C65673E
:1074F000616C206D656D2072616E67650A00000029
:107500005B25735D2C2025642C206D656D6F727971
:1075100020636865636B206572726F72210A206652
:107520007265654E6F64652E6E6578743A203078AA
:107530002578206973206F7574206F66206C6567ED
:10754000616C206D656D2072616E67650A000000D8
:10755000706F6F6C205B307825782C203078257820
:107560002920636F6E666C69637420776974682084
:10757000706F6F6C205B307825782C203078257800
:10758000290A00004C6974654F53206865617020BA
:107590006D656D6F72792061646472657373206FBD
:1075A000722073697A6520636F6E666967757265AC
:1075B00064206E6F7420616C69676E65643A616403
:1075C00064726573733A307825782C73697A653AFA
:1075D000307825782C20616C69676E73697A653A1A
:1075E00025640A0018B401780A0627D51F4A1368D3
:1075F0000021834203D1002442F821401BE053685C
:10760000012183421EBF022193688342F3D0D368D5
:10761000032183421EBF042113698342EBD05369C7
:10762000052183421EBF0621936983421EBF0721A5
:10763000D3698342DFD012BCFFF76EBE0021018008
:107640004FF0FF3200F14401C270C1604161C1617D
:1076500000F1440300F1440200F130014360026193
:1076600082610262416211BC7047000080150020F7
:1076700038B504000ED0207810F0030F03D094F931
:107680000300002809D5AFF300802046FFF7AAFFCA
:10769000AFF300804FF0FF3032BD2046FFF79CFC77
:1076A0000546AFF300802078410644BF6068FFF7CD
:1076B00033FE0020606094F90300022804D900F032
:1076C00016F808B14FF0FF35E06B48B100F01BF839
:1076D00008B14FF0FF35E06BFFF71EFE0020E063BE
:1076E0002046FFF77FFFAFF30080284632BD1CB570
:1076F0000200009269460220ABBE04001000FFF7B2
:10770000BBFC200016BDE0B50090F9F7CDFC019060
:1077100069460E20ABBE03B000BD00005265636F2A
:107720007264204C52206661696C65642C2062652D
:107730006361757365206F6620675F6261636B5478
:1077400072616365486F6F6B206973206E6F742080
:10775000726567697374657265642C2073686F75F0
:107760006C642063616C6C204C4F535F4261636BAF
:107770005472616365496E69742066697273746CD2
:10778000790A000038B50C46C5B22046AFF3008038
:10779000E068A169884204D32046FFF763FD002812
:1077A0000FD4E068401CE06000F8015D208801050E
:1077B00003D440050BD50A2D09D12046FFF70CFC58
:1077C00028B12046AFF300804FF0FF3032BD204695
:1077D000AFF30080284632BD5B25735D2C20256405
:1077E0002C206D656D6F727920636865636B206511
:1077F00072726F72210A206E6F64652070726576F6
:107800003A2030782578206973206F7574206F6670
:10781000206C6567616C206D656D2072616E6765B7
:107820000A00000063616E277420757365204E5551
:107830004C4C206164647220746F20736176652003
:10784000696E666F0A00000077726F6E67206D6563
:107850006D20706F6F6C20616464723A20307825FF
:10786000782C206C696E653A25640A002564202016
:1078700020202564202020202573202020203078FF
:10788000257820202020307825782020202030786E
:10789000257820202020307825782020202030785E
:1078A000257820202020000038B50D4D08242868B8
:1078B00000281CBF017811F0030F05D090F90310C8
:1078C000002958BFFFF7D4FE2D1D641EEFD1BDE87F
:1078D0003840002200214FF0FF30FFF7C4BB00BF4B
:1078E00080150020696E746572727570742025733E
:1078F0002072656769737465722C206261736520FC
:10790000616464726573733A20307825782C207333
:10791000697A653A20307825780A0000496E20633C
:10792000617365206F66207461736B206C6F636B8D
:107930002C207461736B2064656C6574696F6E20B4
:107940006973206E6F74207265636F6D6D656E6410
:1079500065640A00443A5C30305F67697465655C51
:107960006B65726E656C5F6C6974656F735F6D5C7F
:107970006B65726E656C5C7372635C6C6F735F7366
:10798000636865642E630000666C206F7220736903
:107990007A6520697320746F6F20736D616C6C2C35
:1079A00020666C203D2025752C2073697A65203D6A
:1079B0002025750A0000000054686520696E646522
:1079C00078206F662066726565206C697374732019
:1079D0006973206572726F722C20696E64657820FD
:1079E0003D2025750A0000004C6974654F532068DE
:1079F000656170206D656D6F727920616464726578
:107A000073733A307825782C73697A653A30782523
:107A1000780A0000454D4700434F4D4D4F4E000042
:107A2000455252005741524E00000000494E464F09
:107A3000000000004445425547000000737973740C
:107A4000656D2068656170206D656D636865636B49
:107A5000206F7665722C20616C6C20706173736589
:107A600064210A0025735B25645D206D656D63707C
:107A700079206661696C65642C206572726F722072
:107A800074797065203D2025750A000074696D6564
:107A9000725F68616E646C65722825702920636F5F
:107AA000737420746F6F206D616E79206D7328255B
:107AB00064290A0010B5074979441831064C7C4402
:107AC000163404E00A68081D114488470146A142A3
:107AD000F8D110BD740000009000000065786320AC
:107AE000696E20696E69740065786320696E207420
:107AF00061736B0065786320696E206877690000A8
:107B000043555252454E54207461736B20257320A7
:107B1000737461636B206F766572666C6F77210A90
:107B2000000000004EF68851CEF20001086840F4D3
:107B300070000860BFF34F8FBFF36F8F4FF000707E
:107B4000E1EE100A70470000E794FFFFB80601005D
:107B5000E0150020000000004794FFFF4C020000E9
:107B6000D8010000000000200248016841F47001C3
:107B70000160704788ED00E0000000000000000098
:107B8000010203040607080900F00DF8002801D0DF
:107B9000FFF790FFAFF300800020AFF30080FEF707
:107BA00091FF00F002F80120704700F001B80000DA
:107BB0000746FFF779FE3846F9F7BCFFFBE738B513
:107BC00004460D46284600F005F8A84218BF0024D8
:107BD000204632BD0149FFF7D5BD00BFF01400209B
:107BE000FEE7FEE7FEE7FEE7FEE7704770477047F7
:107BF00000F000B80248416802788A184260704775
:107C00009814002010B5044610460A460146204646
:107C1000FCF726FB204610BD01488047014800477D
:107C2000697B0008297C0008AFF30080FFF77AFF2A
:107C3000FFF7AAFF000000000102030400002E006D
:107C4000FFF7FEBFFFF7FEBFFFF7FEBFFFF7FEBF68
:107C5000FFF7FEBFFFF7FEBFFFF7FEBFFFF7FEBF58
:107C6000FFF7FEBFFFF7FEBFFFF7FEBFFFF7FEBF48
:107C7000FFF7FEBFFFF7FEBFFFF7FEBFFFF7FEBF38
:107C8000FFF7FEBFFFF7FEBFFFF7FEBFFFF7FEBF28
:107C9000FFF7FEBFFFF7FEBFFFF7FEBFFFF7FEBF18
:107CA000FFF7FEBFFFF7FEBFFFF7FEBFFFF7FEBF08
:107CB000FFF7FEBFFFF7FEBFFFF7FEBFFFF7FEBFF8
:107CC000FFF7FEBFFFF7FEBFFFF7FEBFFFF7FEBFE8
:107CD000FFF7FEBFFFF7FEBFFFF7FEBFFFF7FEBFD8
:107CE000FFF7FEBFFFF7FEBFFFF7FEBFFFF7FEBFC8
:107CF000FFF7FEBFFFF7FEBFFFF7FEBFFFF7FEBFB8
:107D0000FFF7FEBFFFF7FEBFFFF7FEBFFFF7FEBFA7
:107D1000FFF7FEBFFFF7FEBFFFF7FEBFFFF7FEBF97
:107D2000FFF7FEBFFFF7FEBFFFF7FEBFFFF7FEBF87
:107D3000FFF7FEBFFFF7FEBFFFF7FEBFFFF7FEBF77
:107D4000FFF7FEBFFFF7FEBFFFF7FEBFFFF7FEBF67
:107D5000FFF7FEBFFFF7FEBFFFF7FEBFFFF7FEBF57
:107D6000FFF7FEBFFFF7FEBFFFF7FEBFFFF7FEBF47
:107D7000FFF7FEBFFFF7FEBFFFF7FEBFFFF7FEBF37
:107D8000FFF7FEBFFFF7FEBFFFF7FEBFFFF7FEBF27
:107D9000FFF7FEBFFFF7FEBFFFF7FEBFFFF7FEBF17
:107DA000FFF7FEBFFFF7FEBFF2FF0001F1FF01F199
:107DB000260143FEFF01F923601003147A0008181E
:107DC00004122004122404122C04123404F95BACB3
:107DD000F001FF5C110001F1FF01F1FF01F1FF0172
:107DE000F1FF01F1FF01F1FF01F1FF01F1FF01F1ED
:107DF000FF01F1FF01F1FF01F1FF01F1FF01F1FFCF
:107E000001F1FF01F152012F0A0B661110020C0D56
:107E10000E0F0810030102030405085C04060700A6
:107E20000809017F11221008100A24F4000104003F
:107E300000EC140020ED0452EC04211BA10852D8E0
:107E40000CF10B01100702040101341B0120840412
:107E500052340421347108F0031215002020154813
:107E60004003080202E41A40210821042134610879
:107E7000127C44F212684812A8B412F004F20638D8
:107E80002CF002073C7C00080452FF01F2003E1473
:047E90006300001C6F
:0400000508007C294A
:00000001FF
