###############################################################################
#
# IAR ELF Linker V8.32.1.169/W32 for ARM                  30/Apr/2021  09:51:30
# Copyright 2007-2018 IAR Systems AB.
#
#    Output file  =  
#        D:\00_gitee\kernel_liteos_m\targets\cortex-m4_stm32f429ig_fire-challenger_iar\EWARM\stm32f429ig_firechallenger_iar\Exe\stm32f429ig_firechallenger_iar.out
#    Map file     =  
#        D:\00_gitee\kernel_liteos_m\targets\cortex-m4_stm32f429ig_fire-challenger_iar\EWARM\stm32f429ig_firechallenger_iar\List\stm32f429ig_firechallenger_iar.map
#    Command line =  
#        -f C:\Users\ZHUSHA~1\AppData\Local\Temp\EWA63A.tmp
#        (D:\00_gitee\kernel_liteos_m\targets\cortex-m4_stm32f429ig_fire-challenger_iar\EWARM\stm32f429ig_firechallenger_iar\Obj\errno.o
#        D:\00_gitee\kernel_liteos_m\targets\cortex-m4_stm32f429ig_fire-challenger_iar\EWARM\stm32f429ig_firechallenger_iar\Obj\fscanf_s.o
#        D:\00_gitee\kernel_liteos_m\targets\cortex-m4_stm32f429ig_fire-challenger_iar\EWARM\stm32f429ig_firechallenger_iar\Obj\fwscanf_s.o
#        D:\00_gitee\kernel_liteos_m\targets\cortex-m4_stm32f429ig_fire-challenger_iar\EWARM\stm32f429ig_firechallenger_iar\Obj\gets_s.o
#        D:\00_gitee\kernel_liteos_m\targets\cortex-m4_stm32f429ig_fire-challenger_iar\EWARM\stm32f429ig_firechallenger_iar\Obj\gpio.o
#        D:\00_gitee\kernel_liteos_m\targets\cortex-m4_stm32f429ig_fire-challenger_iar\EWARM\stm32f429ig_firechallenger_iar\Obj\libc.o
#        D:\00_gitee\kernel_liteos_m\targets\cortex-m4_stm32f429ig_fire-challenger_iar\EWARM\stm32f429ig_firechallenger_iar\Obj\los_context.o
#        D:\00_gitee\kernel_liteos_m\targets\cortex-m4_stm32f429ig_fire-challenger_iar\EWARM\stm32f429ig_firechallenger_iar\Obj\los_cpup.o
#        D:\00_gitee\kernel_liteos_m\targets\cortex-m4_stm32f429ig_fire-challenger_iar\EWARM\stm32f429ig_firechallenger_iar\Obj\los_debug.o
#        D:\00_gitee\kernel_liteos_m\targets\cortex-m4_stm32f429ig_fire-challenger_iar\EWARM\stm32f429ig_firechallenger_iar\Obj\los_dispatch.o
#        D:\00_gitee\kernel_liteos_m\targets\cortex-m4_stm32f429ig_fire-challenger_iar\EWARM\stm32f429ig_firechallenger_iar\Obj\los_error.o
#        D:\00_gitee\kernel_liteos_m\targets\cortex-m4_stm32f429ig_fire-challenger_iar\EWARM\stm32f429ig_firechallenger_iar\Obj\los_event.o
#        D:\00_gitee\kernel_liteos_m\targets\cortex-m4_stm32f429ig_fire-challenger_iar\EWARM\stm32f429ig_firechallenger_iar\Obj\los_exc.o
#        D:\00_gitee\kernel_liteos_m\targets\cortex-m4_stm32f429ig_fire-challenger_iar\EWARM\stm32f429ig_firechallenger_iar\Obj\los_exc_info.o
#        D:\00_gitee\kernel_liteos_m\targets\cortex-m4_stm32f429ig_fire-challenger_iar\EWARM\stm32f429ig_firechallenger_iar\Obj\los_exchook.o
#        D:\00_gitee\kernel_liteos_m\targets\cortex-m4_stm32f429ig_fire-challenger_iar\EWARM\stm32f429ig_firechallenger_iar\Obj\los_hook.o
#        D:\00_gitee\kernel_liteos_m\targets\cortex-m4_stm32f429ig_fire-challenger_iar\EWARM\stm32f429ig_firechallenger_iar\Obj\los_init.o
#        D:\00_gitee\kernel_liteos_m\targets\cortex-m4_stm32f429ig_fire-challenger_iar\EWARM\stm32f429ig_firechallenger_iar\Obj\los_interrupt.o
#        D:\00_gitee\kernel_liteos_m\targets\cortex-m4_stm32f429ig_fire-challenger_iar\EWARM\stm32f429ig_firechallenger_iar\Obj\los_membox.o
#        D:\00_gitee\kernel_liteos_m\targets\cortex-m4_stm32f429ig_fire-challenger_iar\EWARM\stm32f429ig_firechallenger_iar\Obj\los_memory.o
#        D:\00_gitee\kernel_liteos_m\targets\cortex-m4_stm32f429ig_fire-challenger_iar\EWARM\stm32f429ig_firechallenger_iar\Obj\los_mpu.o
#        D:\00_gitee\kernel_liteos_m\targets\cortex-m4_stm32f429ig_fire-challenger_iar\EWARM\stm32f429ig_firechallenger_iar\Obj\los_mux.o
#        D:\00_gitee\kernel_liteos_m\targets\cortex-m4_stm32f429ig_fire-challenger_iar\EWARM\stm32f429ig_firechallenger_iar\Obj\los_queue.o
#        D:\00_gitee\kernel_liteos_m\targets\cortex-m4_stm32f429ig_fire-challenger_iar\EWARM\stm32f429ig_firechallenger_iar\Obj\los_sched.o
#        D:\00_gitee\kernel_liteos_m\targets\cortex-m4_stm32f429ig_fire-challenger_iar\EWARM\stm32f429ig_firechallenger_iar\Obj\los_sem.o
#        D:\00_gitee\kernel_liteos_m\targets\cortex-m4_stm32f429ig_fire-challenger_iar\EWARM\stm32f429ig_firechallenger_iar\Obj\los_sortlink.o
#        D:\00_gitee\kernel_liteos_m\targets\cortex-m4_stm32f429ig_fire-challenger_iar\EWARM\stm32f429ig_firechallenger_iar\Obj\los_swtmr.o
#        D:\00_gitee\kernel_liteos_m\targets\cortex-m4_stm32f429ig_fire-challenger_iar\EWARM\stm32f429ig_firechallenger_iar\Obj\los_task.o
#        D:\00_gitee\kernel_liteos_m\targets\cortex-m4_stm32f429ig_fire-challenger_iar\EWARM\stm32f429ig_firechallenger_iar\Obj\los_tick.o
#        D:\00_gitee\kernel_liteos_m\targets\cortex-m4_stm32f429ig_fire-challenger_iar\EWARM\stm32f429ig_firechallenger_iar\Obj\los_timer.o
#        D:\00_gitee\kernel_liteos_m\targets\cortex-m4_stm32f429ig_fire-challenger_iar\EWARM\stm32f429ig_firechallenger_iar\Obj\main.o
#        D:\00_gitee\kernel_liteos_m\targets\cortex-m4_stm32f429ig_fire-challenger_iar\EWARM\stm32f429ig_firechallenger_iar\Obj\malloc.o
#        D:\00_gitee\kernel_liteos_m\targets\cortex-m4_stm32f429ig_fire-challenger_iar\EWARM\stm32f429ig_firechallenger_iar\Obj\memcpy_s.o
#        D:\00_gitee\kernel_liteos_m\targets\cortex-m4_stm32f429ig_fire-challenger_iar\EWARM\stm32f429ig_firechallenger_iar\Obj\memmove_s.o
#        D:\00_gitee\kernel_liteos_m\targets\cortex-m4_stm32f429ig_fire-challenger_iar\EWARM\stm32f429ig_firechallenger_iar\Obj\memset_s.o
#        D:\00_gitee\kernel_liteos_m\targets\cortex-m4_stm32f429ig_fire-challenger_iar\EWARM\stm32f429ig_firechallenger_iar\Obj\mqueue.o
#        D:\00_gitee\kernel_liteos_m\targets\cortex-m4_stm32f429ig_fire-challenger_iar\EWARM\stm32f429ig_firechallenger_iar\Obj\pthread.o
#        D:\00_gitee\kernel_liteos_m\targets\cortex-m4_stm32f429ig_fire-challenger_iar\EWARM\stm32f429ig_firechallenger_iar\Obj\pthread_attr.o
#        D:\00_gitee\kernel_liteos_m\targets\cortex-m4_stm32f429ig_fire-challenger_iar\EWARM\stm32f429ig_firechallenger_iar\Obj\pthread_cond.o
#        D:\00_gitee\kernel_liteos_m\targets\cortex-m4_stm32f429ig_fire-challenger_iar\EWARM\stm32f429ig_firechallenger_iar\Obj\pthread_mutex.o
#        D:\00_gitee\kernel_liteos_m\targets\cortex-m4_stm32f429ig_fire-challenger_iar\EWARM\stm32f429ig_firechallenger_iar\Obj\scanf_s.o
#        D:\00_gitee\kernel_liteos_m\targets\cortex-m4_stm32f429ig_fire-challenger_iar\EWARM\stm32f429ig_firechallenger_iar\Obj\securecutil.o
#        D:\00_gitee\kernel_liteos_m\targets\cortex-m4_stm32f429ig_fire-challenger_iar\EWARM\stm32f429ig_firechallenger_iar\Obj\secureinput_a.o
#        D:\00_gitee\kernel_liteos_m\targets\cortex-m4_stm32f429ig_fire-challenger_iar\EWARM\stm32f429ig_firechallenger_iar\Obj\secureinput_w.o
#        D:\00_gitee\kernel_liteos_m\targets\cortex-m4_stm32f429ig_fire-challenger_iar\EWARM\stm32f429ig_firechallenger_iar\Obj\secureprintoutput_a.o
#        D:\00_gitee\kernel_liteos_m\targets\cortex-m4_stm32f429ig_fire-challenger_iar\EWARM\stm32f429ig_firechallenger_iar\Obj\secureprintoutput_w.o
#        D:\00_gitee\kernel_liteos_m\targets\cortex-m4_stm32f429ig_fire-challenger_iar\EWARM\stm32f429ig_firechallenger_iar\Obj\semaphore.o
#        D:\00_gitee\kernel_liteos_m\targets\cortex-m4_stm32f429ig_fire-challenger_iar\EWARM\stm32f429ig_firechallenger_iar\Obj\snprintf_s.o
#        D:\00_gitee\kernel_liteos_m\targets\cortex-m4_stm32f429ig_fire-challenger_iar\EWARM\stm32f429ig_firechallenger_iar\Obj\sprintf_s.o
#        D:\00_gitee\kernel_liteos_m\targets\cortex-m4_stm32f429ig_fire-challenger_iar\EWARM\stm32f429ig_firechallenger_iar\Obj\sscanf_s.o
#        D:\00_gitee\kernel_liteos_m\targets\cortex-m4_stm32f429ig_fire-challenger_iar\EWARM\stm32f429ig_firechallenger_iar\Obj\startup_stm32f429xx.o
#        D:\00_gitee\kernel_liteos_m\targets\cortex-m4_stm32f429ig_fire-challenger_iar\EWARM\stm32f429ig_firechallenger_iar\Obj\stm32f4xx_hal.o
#        D:\00_gitee\kernel_liteos_m\targets\cortex-m4_stm32f429ig_fire-challenger_iar\EWARM\stm32f429ig_firechallenger_iar\Obj\stm32f4xx_hal_cortex.o
#        D:\00_gitee\kernel_liteos_m\targets\cortex-m4_stm32f429ig_fire-challenger_iar\EWARM\stm32f429ig_firechallenger_iar\Obj\stm32f4xx_hal_dma.o
#        D:\00_gitee\kernel_liteos_m\targets\cortex-m4_stm32f429ig_fire-challenger_iar\EWARM\stm32f429ig_firechallenger_iar\Obj\stm32f4xx_hal_dma_ex.o
#        D:\00_gitee\kernel_liteos_m\targets\cortex-m4_stm32f429ig_fire-challenger_iar\EWARM\stm32f429ig_firechallenger_iar\Obj\stm32f4xx_hal_exti.o
#        D:\00_gitee\kernel_liteos_m\targets\cortex-m4_stm32f429ig_fire-challenger_iar\EWARM\stm32f429ig_firechallenger_iar\Obj\stm32f4xx_hal_flash.o
#        D:\00_gitee\kernel_liteos_m\targets\cortex-m4_stm32f429ig_fire-challenger_iar\EWARM\stm32f429ig_firechallenger_iar\Obj\stm32f4xx_hal_flash_ex.o
#        D:\00_gitee\kernel_liteos_m\targets\cortex-m4_stm32f429ig_fire-challenger_iar\EWARM\stm32f429ig_firechallenger_iar\Obj\stm32f4xx_hal_flash_ramfunc.o
#        D:\00_gitee\kernel_liteos_m\targets\cortex-m4_stm32f429ig_fire-challenger_iar\EWARM\stm32f429ig_firechallenger_iar\Obj\stm32f4xx_hal_gpio.o
#        D:\00_gitee\kernel_liteos_m\targets\cortex-m4_stm32f429ig_fire-challenger_iar\EWARM\stm32f429ig_firechallenger_iar\Obj\stm32f4xx_hal_msp.o
#        D:\00_gitee\kernel_liteos_m\targets\cortex-m4_stm32f429ig_fire-challenger_iar\EWARM\stm32f429ig_firechallenger_iar\Obj\stm32f4xx_hal_pwr.o
#        D:\00_gitee\kernel_liteos_m\targets\cortex-m4_stm32f429ig_fire-challenger_iar\EWARM\stm32f429ig_firechallenger_iar\Obj\stm32f4xx_hal_pwr_ex.o
#        D:\00_gitee\kernel_liteos_m\targets\cortex-m4_stm32f429ig_fire-challenger_iar\EWARM\stm32f429ig_firechallenger_iar\Obj\stm32f4xx_hal_rcc.o
#        D:\00_gitee\kernel_liteos_m\targets\cortex-m4_stm32f429ig_fire-challenger_iar\EWARM\stm32f429ig_firechallenger_iar\Obj\stm32f4xx_hal_rcc_ex.o
#        D:\00_gitee\kernel_liteos_m\targets\cortex-m4_stm32f429ig_fire-challenger_iar\EWARM\stm32f429ig_firechallenger_iar\Obj\stm32f4xx_hal_tim.o
#        D:\00_gitee\kernel_liteos_m\targets\cortex-m4_stm32f429ig_fire-challenger_iar\EWARM\stm32f429ig_firechallenger_iar\Obj\stm32f4xx_hal_tim_ex.o
#        D:\00_gitee\kernel_liteos_m\targets\cortex-m4_stm32f429ig_fire-challenger_iar\EWARM\stm32f429ig_firechallenger_iar\Obj\stm32f4xx_hal_uart.o
#        D:\00_gitee\kernel_liteos_m\targets\cortex-m4_stm32f429ig_fire-challenger_iar\EWARM\stm32f429ig_firechallenger_iar\Obj\stm32f4xx_it.o
#        D:\00_gitee\kernel_liteos_m\targets\cortex-m4_stm32f429ig_fire-challenger_iar\EWARM\stm32f429ig_firechallenger_iar\Obj\strcat_s.o
#        D:\00_gitee\kernel_liteos_m\targets\cortex-m4_stm32f429ig_fire-challenger_iar\EWARM\stm32f429ig_firechallenger_iar\Obj\strcpy_s.o
#        D:\00_gitee\kernel_liteos_m\targets\cortex-m4_stm32f429ig_fire-challenger_iar\EWARM\stm32f429ig_firechallenger_iar\Obj\strncat_s.o
#        D:\00_gitee\kernel_liteos_m\targets\cortex-m4_stm32f429ig_fire-challenger_iar\EWARM\stm32f429ig_firechallenger_iar\Obj\strncpy_s.o
#        D:\00_gitee\kernel_liteos_m\targets\cortex-m4_stm32f429ig_fire-challenger_iar\EWARM\stm32f429ig_firechallenger_iar\Obj\strtok_s.o
#        D:\00_gitee\kernel_liteos_m\targets\cortex-m4_stm32f429ig_fire-challenger_iar\EWARM\stm32f429ig_firechallenger_iar\Obj\swprintf_s.o
#        D:\00_gitee\kernel_liteos_m\targets\cortex-m4_stm32f429ig_fire-challenger_iar\EWARM\stm32f429ig_firechallenger_iar\Obj\swscanf_s.o
#        D:\00_gitee\kernel_liteos_m\targets\cortex-m4_stm32f429ig_fire-challenger_iar\EWARM\stm32f429ig_firechallenger_iar\Obj\system_stm32f4xx.o
#        D:\00_gitee\kernel_liteos_m\targets\cortex-m4_stm32f429ig_fire-challenger_iar\EWARM\stm32f429ig_firechallenger_iar\Obj\task_sample.o
#        D:\00_gitee\kernel_liteos_m\targets\cortex-m4_stm32f429ig_fire-challenger_iar\EWARM\stm32f429ig_firechallenger_iar\Obj\time.o
#        D:\00_gitee\kernel_liteos_m\targets\cortex-m4_stm32f429ig_fire-challenger_iar\EWARM\stm32f429ig_firechallenger_iar\Obj\usart.o
#        D:\00_gitee\kernel_liteos_m\targets\cortex-m4_stm32f429ig_fire-challenger_iar\EWARM\stm32f429ig_firechallenger_iar\Obj\vfscanf_s.o
#        D:\00_gitee\kernel_liteos_m\targets\cortex-m4_stm32f429ig_fire-challenger_iar\EWARM\stm32f429ig_firechallenger_iar\Obj\vfwscanf_s.o
#        D:\00_gitee\kernel_liteos_m\targets\cortex-m4_stm32f429ig_fire-challenger_iar\EWARM\stm32f429ig_firechallenger_iar\Obj\vscanf_s.o
#        D:\00_gitee\kernel_liteos_m\targets\cortex-m4_stm32f429ig_fire-challenger_iar\EWARM\stm32f429ig_firechallenger_iar\Obj\vsnprintf_s.o
#        D:\00_gitee\kernel_liteos_m\targets\cortex-m4_stm32f429ig_fire-challenger_iar\EWARM\stm32f429ig_firechallenger_iar\Obj\vsprintf_s.o
#        D:\00_gitee\kernel_liteos_m\targets\cortex-m4_stm32f429ig_fire-challenger_iar\EWARM\stm32f429ig_firechallenger_iar\Obj\vsscanf_s.o
#        D:\00_gitee\kernel_liteos_m\targets\cortex-m4_stm32f429ig_fire-challenger_iar\EWARM\stm32f429ig_firechallenger_iar\Obj\vswprintf_s.o
#        D:\00_gitee\kernel_liteos_m\targets\cortex-m4_stm32f429ig_fire-challenger_iar\EWARM\stm32f429ig_firechallenger_iar\Obj\vswscanf_s.o
#        D:\00_gitee\kernel_liteos_m\targets\cortex-m4_stm32f429ig_fire-challenger_iar\EWARM\stm32f429ig_firechallenger_iar\Obj\vwscanf_s.o
#        D:\00_gitee\kernel_liteos_m\targets\cortex-m4_stm32f429ig_fire-challenger_iar\EWARM\stm32f429ig_firechallenger_iar\Obj\wcscat_s.o
#        D:\00_gitee\kernel_liteos_m\targets\cortex-m4_stm32f429ig_fire-challenger_iar\EWARM\stm32f429ig_firechallenger_iar\Obj\wcscpy_s.o
#        D:\00_gitee\kernel_liteos_m\targets\cortex-m4_stm32f429ig_fire-challenger_iar\EWARM\stm32f429ig_firechallenger_iar\Obj\wcsncat_s.o
#        D:\00_gitee\kernel_liteos_m\targets\cortex-m4_stm32f429ig_fire-challenger_iar\EWARM\stm32f429ig_firechallenger_iar\Obj\wcsncpy_s.o
#        D:\00_gitee\kernel_liteos_m\targets\cortex-m4_stm32f429ig_fire-challenger_iar\EWARM\stm32f429ig_firechallenger_iar\Obj\wcstok_s.o
#        D:\00_gitee\kernel_liteos_m\targets\cortex-m4_stm32f429ig_fire-challenger_iar\EWARM\stm32f429ig_firechallenger_iar\Obj\wmemcpy_s.o
#        D:\00_gitee\kernel_liteos_m\targets\cortex-m4_stm32f429ig_fire-challenger_iar\EWARM\stm32f429ig_firechallenger_iar\Obj\wmemmove_s.o
#        D:\00_gitee\kernel_liteos_m\targets\cortex-m4_stm32f429ig_fire-challenger_iar\EWARM\stm32f429ig_firechallenger_iar\Obj\wscanf_s.o
#        --no_out_extension -o
#        D:\00_gitee\kernel_liteos_m\targets\cortex-m4_stm32f429ig_fire-challenger_iar\EWARM\stm32f429ig_firechallenger_iar\Exe\stm32f429ig_firechallenger_iar.out
#        --redirect _Printf=_PrintfFullNoMb --redirect _Scanf=_ScanfFullNoMb
#        --map
#        D:\00_gitee\kernel_liteos_m\targets\cortex-m4_stm32f429ig_fire-challenger_iar\EWARM\stm32f429ig_firechallenger_iar\List\stm32f429ig_firechallenger_iar.map
#        --config
#        D:\00_gitee\kernel_liteos_m\targets\cortex-m4_stm32f429ig_fire-challenger_iar\EWARM/stm32f429xx_flash.icf
#        --semihosting --entry __iar_program_start --vfe --text_out locale)
#
###############################################################################

*******************************************************************************
*** RUNTIME MODEL ATTRIBUTES
***

CppFlavor       = *
__SystemLibrary = DLib
__dlib_version  = 6


*******************************************************************************
*** HEAP SELECTION
***

The basic heap was selected because no calls to memory allocation
functions were found in the application outside of system library
functions, and there are calls to deallocation functions in the
application.


*******************************************************************************
*** PLACEMENT SUMMARY
***

"A0":  place at 0x800'0000 { ro section .intvec };
"P1":  place in [from 0x800'0000 to 0x81f'ffff] { ro };
define block CSTACK with size = 1K, alignment = 8 { };
define block HEAP with size = 512, alignment = 8 { };
"P2":  place in [from 0x2000'0000 to 0x2002'ffff] {
          rw, block CSTACK, block HEAP };
initialize by copy { rw };

  Section            Kind         Address     Size  Object
  -------            ----         -------     ----  ------
"A0":                                        0x1ac
  .intvec            ro code   0x800'0000    0x1ac  startup_stm32f429xx.o [1]
                             - 0x800'01ac    0x1ac

"P1":                                       0x7ce8
  .text              ro code   0x800'01ac    0xdf2  xprintffull_nomb.o [2]
  .text              ro code   0x800'0f9e     0x7a  lz77_init_single.o [4]
  .text              ro code   0x800'1018     0x16  strchr.o [4]
  .text              ro code   0x800'102e     0x3a  zero_init3.o [4]
  .text              ro code   0x800'1068     0x40  xfail_s.o [2]
  .text              ro code   0x800'10a8     0x14  strlen_small.o [4]
  .text              ro code   0x800'10bc     0x58  memchr.o [4]
  .text              ro code   0x800'1114    0x106  I64DivMod_small.o [4]
  .text              ro code   0x800'121c    0x1a2  DblMul.o [3]
  .text              ro code   0x800'13c0     0x18  ABImemcpy_small.o [4]
  .text              ro code   0x800'13d8     0x70  frexp.o [3]
  .text              ro code   0x800'1448     0x2e  DblCmpLe.o [3]
  .text              ro code   0x800'1478     0x2e  DblCmpGe.o [3]
  .text              ro code   0x800'14a8    0x13a  ldexp.o [3]
  .text              ro code   0x800'15e4     0x3a  DblToS32.o [3]
  .text              ro code   0x800'1620     0x22  S32ToDbl.o [3]
  .text              ro code   0x800'1644     0xe2  DblSub.o [3]
  .text              ro code   0x800'1728    0x246  DblDiv.o [3]
  .text              ro code   0x800'1970     0x28  DblToU32.o [3]
  .text              ro code   0x800'1998     0x1a  U32ToDbl.o [3]
  .text              ro code   0x800'19b4      0x8  xlocale_c.o [2]
  .text              ro code   0x800'19bc      0x6  abort.o [2]
  .text              ro code   0x800'19c4      0x2  I64DivZer.o [4]
  .text              ro code   0x800'19c8    0x16a  DblAdd.o [3]
  .text              ro code   0x800'1b34     0x14  exit.o [5]
  .text              ro code   0x800'1b48     0x80  iarttio.o [5]
  .text              ro code   0x800'1bc8     0x3c  XShttio.o [2]
  .text              ro code   0x800'1c04    0xc24  los_memory.o [1]
  .text              ro code   0x800'2828     0x28  printf.o [2]
  .text              ro code   0x800'2850    0x138  los_init.o [1]
  .text              ro code   0x800'2988     0x54  memset_s.o [1]
  .text              ro code   0x800'29dc     0xf8  los_dispatch.o [1]
  .text              ro code   0x800'2ad4     0xa0  los_debug.o [1]
  .text              ro code   0x800'2b74     0x94  memcpy_s.o [1]
  .text              ro code   0x800'2c08      0x6  ABImemclr4.o [4]
  .text              ro code   0x800'2c10    0x1f0  los_context.o [1]
  .text              ro code   0x800'2e00    0x7b2  los_task.o [1]
  .text              ro code   0x800'35b4     0x5c  los_sem.o [1]
  .text              ro code   0x800'3610     0x5c  los_mux.o [1]
  .text              ro code   0x800'366c    0x540  los_queue.o [1]
  .text              ro code   0x800'3bac    0x3e4  los_swtmr.o [1]
  .text              ro code   0x800'3f90    0x2d0  los_exc_info.o [1]
  .text              ro code   0x800'4260     0x12  ABImemset_small.o [4]
  .text              ro code   0x800'4274    0x8dc  los_sched.o [1]
  .text              ro code   0x800'4b50      0x6  ABImemclr.o [4]
  .text              ro code   0x800'4b58     0x32  ABImemset48.o [4]
  .text              ro code   0x800'4b8c    0xb3c  los_interrupt.o [1]
  .text              ro code   0x800'56c8     0x6c  los_timer.o [1]
  .text              ro code   0x800'5734     0xd6  strncpy_s.o [1]
  .text              ro code   0x800'580a     0x16  los_timer.o [1]
  .text              ro code   0x800'5820     0x34  los_tick.o [1]
  .text              ro code   0x800'5854    0x260  los_sortlink.o [1]
  .text              ro code   0x800'5ab4     0xcc  los_membox.o [1]
  .text              ro code   0x800'5b80     0xbc  los_exchook.o [1]
  .text              ro code   0x800'5c3c     0x20  los_timer.o [1]
  .text              ro code   0x800'5c5c     0x20  los_timer.o [1]
  .text              ro code   0x800'5c7c     0x10  los_timer.o [1]
  .text              ro code   0x800'5c8c      0x2  los_interrupt.o [1]
  .text              ro code   0x800'5c8e      0x2  los_interrupt.o [1]
  .text              ro code   0x800'5c90    0x330  stm32f4xx_hal_rcc.o [1]
  .text              ro code   0x800'5fc0      0xc  stm32f4xx_hal.o [1]
  .text              ro code   0x800'5fcc    0x204  stm32f4xx_hal_gpio.o [1]
  .text              ro code   0x800'61d0    0x1e0  los_exc.o [1]
  .text              ro code   0x800'63b0    0x1ac  stm32f4xx_hal_rcc.o [1]
  .text              ro code   0x800'655c     0x40  stm32f4xx_hal.o [1]
  .text              ro code   0x800'659c     0xac  stm32f4xx_hal_cortex.o [1]
  .rodata            const     0x800'6648    0x15c  los_memory.o [1]
  .text              ro code   0x800'67a4    0x140  task_sample.o [1]
  .text              ro code   0x800'68e4    0x13c  stm32f4xx_hal_uart.o [1]
  .text              ro code   0x800'6a20     0xa4  usart.o [1]
  .text              ro code   0x800'6ac4     0xd0  main.o [1]
  .text              ro code   0x800'6b94     0x34  stm32f4xx_hal.o [1]
  .text              ro code   0x800'6bc8     0x4c  gpio.o [1]
  .text              ro code   0x800'6c14     0x78  stm32f4xx_hal_pwr_ex.o [1]
  .text              ro code   0x800'6c8c     0x38  stm32f4xx_hal_msp.o [1]
  .rodata            const     0x800'6cc4     0xe8  los_memory.o [1]
  .rodata            const     0x800'6dac     0xe0  los_memory.o [1]
  .text              ro code   0x800'6e8c     0xd8  xfspos.o [2]
  .text              ro code   0x800'6f64     0xac  fflush.o [2]
  .text              ro code   0x800'7010      0xc  xfgpos.o [2]
  .text              ro code   0x800'701c     0x4a  lseek.o [5]
  .text              ro code   0x800'7066     0x10  write.o [5]
  .text              ro code   0x800'7078     0xcc  XShHandles.o [2]
  .text              ro code   0x800'7144     0x1e  dwrite.o [5]
  .text              ro code   0x800'7162     0x20  iarwstd.o [5]
  .text              ro code   0x800'7182     0x22  iarwrite.o [5]
  .rodata            const     0x800'71a4     0xc0  los_interrupt.o [1]
  .text              ro code   0x800'7264     0xb4  xfwprep.o [2]
  .text              ro code   0x800'7318     0x20  malloc.o [1]
  .text              ro code   0x800'7338     0x24  fseek.o [2]
  .rodata            const     0x800'735c     0xac  los_memory.o [1]
  .rodata            const     0x800'7408     0xa8  los_task.o [1]
  .rodata            const     0x800'74b0     0xa0  los_memory.o [1]
  .rodata            const     0x800'7550     0x94  los_memory.o [1]
  .text              ro code   0x800'75e4     0x8c  xfofind.o [2]
  .text              ro code   0x800'7670     0x7e  fclose.o [2]
  .text              ro code   0x800'76ee     0x18  close.o [5]
  .text              ro code   0x800'7706     0x14  remove.o [5]
  .rodata            const     0x800'771c     0x68  los_debug.o [1]
  .text              ro code   0x800'7784     0x54  fputc.o [2]
  .rodata            const     0x800'77d8     0x4c  los_memory.o [1]
  .rodata            const     0x800'7824     0x48  los_memory.o [1]
  .rodata            const     0x800'786c     0x3c  los_task.o [1]
  .text              ro code   0x800'78a8     0x3c  xcloseall.o [2]
  .rodata            const     0x800'78e4     0x38  los_interrupt.o [1]
  .rodata            const     0x800'791c     0x38  los_task.o [1]
  .rodata            const     0x800'7954     0x34  los_sched.o [1]
  .rodata            const     0x800'7988     0x30  los_memory.o [1]
  .rodata            const     0x800'79b8     0x30  los_memory.o [1]
  .rodata            const     0x800'79e8     0x2c  los_memory.o [1]
  .rodata            const     0x800'7a14     0x28  los_debug.o [1]
  .rodata            const     0x800'7a3c     0x28  los_interrupt.o [1]
  .rodata            const     0x800'7a64     0x28  los_queue.o [1]
  .rodata            const     0x800'7a8c     0x28  los_swtmr.o [1]
  .text              ro code   0x800'7ab4     0x28  data_init.o [4]
  .rodata            const     0x800'7adc     0x24  los_interrupt.o [1]
  .rodata            const     0x800'7b00     0x24  los_task.o [1]
  .text              ro code   0x800'7b24     0x22  fpinit_M.o [3]
  .iar.init_table    const     0x800'7b48     0x20  - Linker created -
  .text              ro code   0x800'7b68     0x20  system_stm32f4xx.o [1]
  .text              ro code   0x800'7b88     0x1e  cmain.o [4]
  .text              ro code   0x800'7ba6      0x4  low_level_init.o [2]
  .text              ro code   0x800'7baa      0x4  exit.o [2]
  .text              ro code   0x800'7bb0      0xe  cexit.o [4]
  .text              ro code   0x800'7bbe     0x16  xprout.o [2]
  .text              ro code   0x800'7bd4      0xc  putchar.o [2]
  .text              ro code   0x800'7be0     0x14  stm32f4xx_it.o [1]
  .text              ro code   0x800'7bf4     0x10  stm32f4xx_hal.o [1]
  .text              ro code   0x800'7c04     0x14  memset.o [4]
  .text              ro code   0x800'7c18     0x10  startup_stm32f429xx.o [1]
  .text              ro code   0x800'7c28      0xc  cstartup_M.o [4]
  .rodata            const     0x800'7c34      0x8  system_stm32f4xx.o [1]
  .rodata            const     0x800'7c3c      0x4  xlocale_c.o [2]
  .text              ro code   0x800'7c40      0x4  startup_stm32f429xx.o [1]
  .text              ro code   0x800'7c44      0x4  startup_stm32f429xx.o [1]
  .text              ro code   0x800'7c48      0x4  startup_stm32f429xx.o [1]
  .text              ro code   0x800'7c4c      0x4  startup_stm32f429xx.o [1]
  .text              ro code   0x800'7c50      0x4  startup_stm32f429xx.o [1]
  .text              ro code   0x800'7c54      0x4  startup_stm32f429xx.o [1]
  .text              ro code   0x800'7c58      0x4  startup_stm32f429xx.o [1]
  .text              ro code   0x800'7c5c      0x4  startup_stm32f429xx.o [1]
  .text              ro code   0x800'7c60      0x4  startup_stm32f429xx.o [1]
  .text              ro code   0x800'7c64      0x4  startup_stm32f429xx.o [1]
  .text              ro code   0x800'7c68      0x4  startup_stm32f429xx.o [1]
  .text              ro code   0x800'7c6c      0x4  startup_stm32f429xx.o [1]
  .text              ro code   0x800'7c70      0x4  startup_stm32f429xx.o [1]
  .text              ro code   0x800'7c74      0x4  startup_stm32f429xx.o [1]
  .text              ro code   0x800'7c78      0x4  startup_stm32f429xx.o [1]
  .text              ro code   0x800'7c7c      0x4  startup_stm32f429xx.o [1]
  .text              ro code   0x800'7c80      0x4  startup_stm32f429xx.o [1]
  .text              ro code   0x800'7c84      0x4  startup_stm32f429xx.o [1]
  .text              ro code   0x800'7c88      0x4  startup_stm32f429xx.o [1]
  .text              ro code   0x800'7c8c      0x4  startup_stm32f429xx.o [1]
  .text              ro code   0x800'7c90      0x4  startup_stm32f429xx.o [1]
  .text              ro code   0x800'7c94      0x4  startup_stm32f429xx.o [1]
  .text              ro code   0x800'7c98      0x4  startup_stm32f429xx.o [1]
  .text              ro code   0x800'7c9c      0x4  startup_stm32f429xx.o [1]
  .text              ro code   0x800'7ca0      0x4  startup_stm32f429xx.o [1]
  .text              ro code   0x800'7ca4      0x4  startup_stm32f429xx.o [1]
  .text              ro code   0x800'7ca8      0x4  startup_stm32f429xx.o [1]
  .text              ro code   0x800'7cac      0x4  startup_stm32f429xx.o [1]
  .text              ro code   0x800'7cb0      0x4  startup_stm32f429xx.o [1]
  .text              ro code   0x800'7cb4      0x4  startup_stm32f429xx.o [1]
  .text              ro code   0x800'7cb8      0x4  startup_stm32f429xx.o [1]
  .text              ro code   0x800'7cbc      0x4  startup_stm32f429xx.o [1]
  .text              ro code   0x800'7cc0      0x4  startup_stm32f429xx.o [1]
  .text              ro code   0x800'7cc4      0x4  startup_stm32f429xx.o [1]
  .text              ro code   0x800'7cc8      0x4  startup_stm32f429xx.o [1]
  .text              ro code   0x800'7ccc      0x4  startup_stm32f429xx.o [1]
  .text              ro code   0x800'7cd0      0x4  startup_stm32f429xx.o [1]
  .text              ro code   0x800'7cd4      0x4  startup_stm32f429xx.o [1]
  .text              ro code   0x800'7cd8      0x4  startup_stm32f429xx.o [1]
  .text              ro code   0x800'7cdc      0x4  startup_stm32f429xx.o [1]
  .text              ro code   0x800'7ce0      0x4  startup_stm32f429xx.o [1]
  .text              ro code   0x800'7ce4      0x4  startup_stm32f429xx.o [1]
  .text              ro code   0x800'7ce8      0x4  startup_stm32f429xx.o [1]
  .text              ro code   0x800'7cec      0x4  startup_stm32f429xx.o [1]
  .text              ro code   0x800'7cf0      0x4  startup_stm32f429xx.o [1]
  .text              ro code   0x800'7cf4      0x4  startup_stm32f429xx.o [1]
  .text              ro code   0x800'7cf8      0x4  startup_stm32f429xx.o [1]
  .text              ro code   0x800'7cfc      0x4  startup_stm32f429xx.o [1]
  .text              ro code   0x800'7d00      0x4  startup_stm32f429xx.o [1]
  .text              ro code   0x800'7d04      0x4  startup_stm32f429xx.o [1]
  .text              ro code   0x800'7d08      0x4  startup_stm32f429xx.o [1]
  .text              ro code   0x800'7d0c      0x4  startup_stm32f429xx.o [1]
  .text              ro code   0x800'7d10      0x4  startup_stm32f429xx.o [1]
  .text              ro code   0x800'7d14      0x4  startup_stm32f429xx.o [1]
  .text              ro code   0x800'7d18      0x4  startup_stm32f429xx.o [1]
  .text              ro code   0x800'7d1c      0x4  startup_stm32f429xx.o [1]
  .text              ro code   0x800'7d20      0x4  startup_stm32f429xx.o [1]
  .text              ro code   0x800'7d24      0x4  startup_stm32f429xx.o [1]
  .text              ro code   0x800'7d28      0x4  startup_stm32f429xx.o [1]
  .text              ro code   0x800'7d2c      0x4  startup_stm32f429xx.o [1]
  .text              ro code   0x800'7d30      0x4  startup_stm32f429xx.o [1]
  .text              ro code   0x800'7d34      0x4  startup_stm32f429xx.o [1]
  .text              ro code   0x800'7d38      0x4  startup_stm32f429xx.o [1]
  .text              ro code   0x800'7d3c      0x4  startup_stm32f429xx.o [1]
  .text              ro code   0x800'7d40      0x4  startup_stm32f429xx.o [1]
  .text              ro code   0x800'7d44      0x4  startup_stm32f429xx.o [1]
  .text              ro code   0x800'7d48      0x4  startup_stm32f429xx.o [1]
  .text              ro code   0x800'7d4c      0x4  startup_stm32f429xx.o [1]
  .text              ro code   0x800'7d50      0x4  startup_stm32f429xx.o [1]
  .text              ro code   0x800'7d54      0x4  startup_stm32f429xx.o [1]
  .text              ro code   0x800'7d58      0x4  startup_stm32f429xx.o [1]
  .text              ro code   0x800'7d5c      0x4  startup_stm32f429xx.o [1]
  .text              ro code   0x800'7d60      0x4  startup_stm32f429xx.o [1]
  .text              ro code   0x800'7d64      0x4  startup_stm32f429xx.o [1]
  .text              ro code   0x800'7d68      0x4  startup_stm32f429xx.o [1]
  .text              ro code   0x800'7d6c      0x4  startup_stm32f429xx.o [1]
  .text              ro code   0x800'7d70      0x4  startup_stm32f429xx.o [1]
  .text              ro code   0x800'7d74      0x4  startup_stm32f429xx.o [1]
  .text              ro code   0x800'7d78      0x4  startup_stm32f429xx.o [1]
  .text              ro code   0x800'7d7c      0x4  startup_stm32f429xx.o [1]
  .text              ro code   0x800'7d80      0x4  startup_stm32f429xx.o [1]
  .text              ro code   0x800'7d84      0x4  startup_stm32f429xx.o [1]
  .text              ro code   0x800'7d88      0x4  startup_stm32f429xx.o [1]
  .text              ro code   0x800'7d8c      0x4  startup_stm32f429xx.o [1]
  .text              ro code   0x800'7d90      0x4  startup_stm32f429xx.o [1]
  .text              ro code   0x800'7d94      0x4  startup_stm32f429xx.o [1]
  .text              ro code   0x800'7d98      0x4  startup_stm32f429xx.o [1]
  .text              ro code   0x800'7d9c      0x4  startup_stm32f429xx.o [1]
  .text              ro code   0x800'7da0      0x4  startup_stm32f429xx.o [1]
  .text              ro code   0x800'7da4      0x4  startup_stm32f429xx.o [1]
  .text              ro code   0x800'7da8      0x0  cstart_closeall.o [4]
  .rodata            const     0x800'7da8      0x0  zero_init3.o [4]
  .rodata            const     0x800'7da8      0x0  lz77_init_single.o [4]
  Initializer bytes  const     0x800'7da8     0xec  <for P2-1>
                             - 0x800'7e94   0x7ce8

"P2", part 1 of 3:                          0x15e0
  P2-1                        0x2000'0000   0x15e0  <Init block>
    .data.vector     inited   0x2000'0000    0x240  los_interrupt.o [1]
    .data            inited   0x2000'0240     0x54  los_sched.o [1]
    .data            inited   0x2000'0294     0x18  los_debug.o [1]
    .data            inited   0x2000'02ac   0x11cc  los_exc_info.o [1]
    .data            inited   0x2000'1478     0x20  los_interrupt.o [1]
    .data            inited   0x2000'1498      0xc  stm32f4xx_hal.o [1]
    .data            inited   0x2000'14a4      0x4  system_stm32f4xx.o [1]
    .data            inited   0x2000'14a8     0x48  xfiles.o [2]
    .data            inited   0x2000'14f0     0x48  xfiles.o [2]
    .data            inited   0x2000'1538     0x48  xfiles.o [2]
    .data            inited   0x2000'1580     0x20  xfiles.o [2]
    .data            inited   0x2000'15a0     0x38  xlocale_c.o [2]
    .data            inited   0x2000'15d8      0x8  XShttio.o [2]
                            - 0x2000'15e0   0x15e0

"P2", part 2 of 3:                         0x106b8
  .bss               zero     0x2000'15e0  0x10004  los_memory.o [1]
  .bss               zero     0x2001'15e4    0x240  los_interrupt.o [1]
  .bss               zero     0x2001'1824    0x100  los_sched.o [1]
  .bss               zero     0x2001'1924     0xc0  los_swtmr.o [1]
  .bss               zero     0x2001'19e4     0x80  los_exchook.o [1]
  .bss               zero     0x2001'1a64     0x80  XShHandles.o [2]
  .bss               zero     0x2001'1ae4     0x50  xfiles.o [2]
  .bss               zero     0x2001'1b34     0x50  xfiles.o [2]
  .bss               zero     0x2001'1b84     0x44  usart.o [1]
  .bss               zero     0x2001'1bc8     0x30  los_task.o [1]
  .bss               zero     0x2001'1bf8     0x18  los_interrupt.o [1]
  .bss               zero     0x2001'1c10     0x14  los_exchook.o [1]
  .bss               zero     0x2001'1c24     0x10  los_memory.o [1]
  .bss               zero     0x2001'1c34     0x10  los_sortlink.o [1]
  .bss               zero     0x2001'1c44     0x10  los_swtmr.o [1]
  .bss               zero     0x2001'1c54      0xc  los_mux.o [1]
  .bss               zero     0x2001'1c60      0xc  los_queue.o [1]
  .bss               zero     0x2001'1c6c      0xc  los_sem.o [1]
  .bss               zero     0x2001'1c78      0x4  los_debug.o [1]
  .bss               zero     0x2001'1c7c      0x4  los_debug.o [1]
  .bss               zero     0x2001'1c80      0x4  los_membox.o [1]
  .bss               zero     0x2001'1c84      0x4  los_memory.o [1]
  .bss               zero     0x2001'1c88      0x4  los_tick.o [1]
  .bss               zero     0x2001'1c8c      0x4  los_tick.o [1]
  .bss               zero     0x2001'1c90      0x4  xfail_s.o [2]
  .bss               zero     0x2001'1c94      0x1  XShttio.o [2]
                            - 0x2001'1c95  0x106b5

"P2", part 3 of 3:                           0x400
  CSTACK                      0x2001'1c98    0x400  <Block>
    CSTACK           uninit   0x2001'1c98    0x400  <Block tail>
                            - 0x2001'2098    0x400

Unused ranges:

         From           To       Size
         ----           --       ----
   0x800'7e94   0x81f'ffff  0x1f'816c
  0x2001'2098  0x2002'ffff   0x1'df68


*******************************************************************************
*** INIT TABLE
***

          Address      Size
          -------      ----
Zero (__iar_zero_init3)
    1 destination range, total size 0x106b5:
          0x2000'15e0  0x106b5

Copy/lz77 (__iar_lz77_init_single3)
    1 source range, total size 0xec (4% of destination):
           0x800'7da8     0xec
    1 destination range, total size 0x15e0:
          0x2000'0000   0x15e0



*******************************************************************************
*** MODULE SUMMARY
***

    Module                  ro code  ro data  rw data
    ------                  -------  -------  -------
command line/config:
    -------------------------------------------------
    Total:

D:\00_gitee\kernel_liteos_m\targets\cortex-m4_stm32f429ig_fire-challenger_iar\EWARM\stm32f429ig_firechallenger_iar\Obj: [1]
    gpio.o                       76
    los_context.o               496
    los_debug.o                 160      145       32
    los_dispatch.o              248
    los_exc.o                   480
    los_exc_info.o              720      192    4 556
    los_exchook.o               188               148
    los_init.o                  312
    los_interrupt.o           2 880      350    1 208
    los_membox.o                204                 4
    los_memory.o              3 108    1 572   65 560
    los_mux.o                    92                12
    los_queue.o               1 344       40       12
    los_sched.o               2 268       55      340
    los_sem.o                    92                12
    los_sortlink.o              608                16
    los_swtmr.o                 996       40      208
    los_task.o                1 970      320       48
    los_tick.o                   52                 8
    los_timer.o                 210
    main.o                      208
    malloc.o                     32
    memcpy_s.o                  148
    memset_s.o                   84
    startup_stm32f429xx.o       804
    stm32f4xx_hal.o             144                12
    stm32f4xx_hal_cortex.o      172
    stm32f4xx_hal_gpio.o        516
    stm32f4xx_hal_msp.o          56
    stm32f4xx_hal_pwr_ex.o      120
    stm32f4xx_hal_rcc.o       1 244
    stm32f4xx_hal_uart.o        316
    stm32f4xx_it.o               20
    strncpy_s.o                 214
    system_stm32f4xx.o           32        8        4
    task_sample.o               320
    usart.o                     164                68
    -------------------------------------------------
    Total:                   21 098    2 722   72 248

dl7M_tlf.a: [2]
    XShHandles.o                204               128
    XShttio.o                    60        1        9
    abort.o                       6
    exit.o                        4
    fclose.o                    126
    fflush.o                    172
    fputc.o                      84
    fseek.o                      36
    low_level_init.o              4
    printf.o                     40
    putchar.o                    12
    xcloseall.o                  60
    xfail_s.o                    64                 4
    xfgpos.o                     12
    xfiles.o                              11      408
    xfofind.o                   140
    xfspos.o                    216
    xfwprep.o                   180
    xlocale_c.o                   8        6       56
    xprintffull_nomb.o        3 570
    xprout.o                     22
    -------------------------------------------------
    Total:                    5 020       18      605

m7M_tls.a: [3]
    DblAdd.o                    362
    DblCmpGe.o                   46
    DblCmpLe.o                   46
    DblDiv.o                    582
    DblMul.o                    418
    DblSub.o                    226
    DblToS32.o                   58
    DblToU32.o                   40
    S32ToDbl.o                   34
    U32ToDbl.o                   26
    fpinit_M.o                   34
    frexp.o                     112
    ldexp.o                     314
    -------------------------------------------------
    Total:                    2 298

rt7M_tl.a: [4]
    ABImemclr.o                   6
    ABImemclr4.o                  6
    ABImemcpy_small.o            24
    ABImemset48.o                50
    ABImemset_small.o            18
    I64DivMod_small.o           262
    I64DivZer.o                   2
    cexit.o                      14
    cmain.o                      30
    cstart_closeall.o
    cstartup_M.o                 12
    data_init.o                  40
    lz77_init_single.o          122
    memchr.o                     88
    memset.o                     20
    strchr.o                     22
    strlen_small.o               20
    zero_init3.o                 58
    -------------------------------------------------
    Total:                      794

shb_l.a: [5]
    close.o                      24
    dwrite.o                     30
    exit.o                       20
    iarttio.o                   128
    iarwrite.o                   34
    iarwstd.o                    32
    lseek.o                      74
    remove.o                     20
    write.o                      16
    -------------------------------------------------
    Total:                      378

    Gaps                         40        4
    Linker created                        32    1 024
-----------------------------------------------------
    Grand Total:             29 628    2 776   73 877


*******************************************************************************
*** ENTRY LIST
***

Entry                       Address     Size  Type      Object
-----                       -------     ----  ----      ------
.iar.init_table$$Base    0x800'7b48            --   Gb  - Linker created -
.iar.init_table$$Limit   0x800'7b68            --   Gb  - Linker created -
?main                    0x800'7b89           Code  Gb  cmain.o [4]
AHBPrescTable            0x800'7b78     0x10  Data  Gb  system_stm32f4xx.o [1]
APBPrescTable            0x800'7c34      0x8  Data  Gb  system_stm32f4xx.o [1]
BusFault_Handler         0x800'7be7      0x2  Code  Gb  stm32f4xx_it.o [1]
CSTACK$$Base            0x2001'1c98            --   Gb  - Linker created -
CSTACK$$Limit           0x2001'2098            --   Gb  - Linker created -
DebugMon_Handler         0x800'7bed      0x2  Code  Gb  stm32f4xx_it.o [1]
DoExcHook                0x800'5b9b     0x28  Code  Lc  los_exchook.o [1]
DoExcHookInRegOrder      0x800'5b81     0x1a  Code  Lc  los_exchook.o [1]
Error_Handler            0x800'6b91      0x4  Code  Gb  main.o [1]
HAL_GPIO_Init            0x800'5fcd    0x1d0  Code  Gb  stm32f4xx_hal_gpio.o [1]
HAL_GetTick              0x800'5fc1      0xc  Code  Wk  stm32f4xx_hal.o [1]
HAL_IncTick              0x800'7bf5     0x10  Code  Wk  stm32f4xx_hal.o [1]
HAL_Init                 0x800'6b95     0x30  Code  Gb  stm32f4xx_hal.o [1]
HAL_InitTick             0x800'655d     0x40  Code  Wk  stm32f4xx_hal.o [1]
HAL_MspInit              0x800'6c8d     0x38  Code  Gb  stm32f4xx_hal_msp.o [1]
HAL_NVIC_SetPriority     0x800'65d1     0x3a  Code  Gb  stm32f4xx_hal_cortex.o [1]
HAL_NVIC_SetPriorityGrouping
                         0x800'65b7     0x1a  Code  Gb  stm32f4xx_hal_cortex.o [1]
HAL_PWREx_EnableOverDrive
                         0x800'6c15     0x48  Code  Gb  stm32f4xx_hal_pwr_ex.o [1]
HAL_RCC_ClockConfig      0x800'63b1    0x100  Code  Gb  stm32f4xx_hal_rcc.o [1]
HAL_RCC_GetPCLK1Freq     0x800'64bd     0x10  Code  Gb  stm32f4xx_hal_rcc.o [1]
HAL_RCC_GetPCLK2Freq     0x800'64cd      0xe  Code  Gb  stm32f4xx_hal_rcc.o [1]
HAL_RCC_OscConfig        0x800'5c91    0x330  Code  Wk  stm32f4xx_hal_rcc.o [1]
HAL_SYSTICK_Config       0x800'660b     0x28  Code  Gb  stm32f4xx_hal_cortex.o [1]
HAL_UART_Init            0x800'68e5     0x1e  Code  Gb  stm32f4xx_hal_uart.o [1]
HAL_UART_MspInit         0x800'6a4f     0x66  Code  Gb  usart.o [1]
HalArchInit              0x800'2c11      0x4  Code  Gb  los_context.o [1]
HalEnterSleep            0x800'580b     0x16  Code  Gb  los_timer.o [1]
HalExcBusFault           0x800'625d           Code  Gb  los_exc.o [1]
HalExcHandleEntry        0x800'5145     0x52  Code  Gb  los_interrupt.o [1]
HalExcHardFault          0x800'61db           Code  Gb  los_exc.o [1]
HalExcMemFault           0x800'627b           Code  Gb  los_exc.o [1]
HalExcNMI                0x800'61d1           Code  Gb  los_exc.o [1]
HalExcSvcCall            0x800'6243           Code  Gb  los_exc.o [1]
HalExcUsageFault         0x800'6299           Code  Gb  los_exc.o [1]
HalGetTickCycle          0x800'5c3d     0x20  Code  Wk  los_timer.o [1]
HalHwiDefaultHandler     0x800'4bc1     0x1e  Code  Gb  los_interrupt.o [1]
HalHwiDefaultHandler::__FUNCTION__
                         0x800'5248     0x18  Data  Lc  los_interrupt.o [1]
HalHwiInit               0x800'5197     0x5c  Code  Gb  los_interrupt.o [1]
HalIntLock               0x800'2a33           Code  Gb  los_dispatch.o [1]
HalIntRestore            0x800'2a43           Code  Gb  los_dispatch.o [1]
HalIntUnLock             0x800'2a3b           Code  Gb  los_dispatch.o [1]
HalInterrupt             0x800'4be1     0x46  Code  Gb  los_interrupt.o [1]
HalIsIntActive           0x800'4bb3      0xe  Code  Gb  los_interrupt.o [1]
HalPendSV                0x800'2a59           Code  Gb  los_dispatch.o [1]
HalStartSchedule         0x800'2db9     0x1c  Code  Gb  los_context.o [1]
HalStartToRun            0x800'29dd           Code  Gb  los_dispatch.o [1]
HalSysExit               0x800'2c15      0x6  Code  Gb  los_context.o [1]
HalSysTickReload         0x800'5c5d     0x20  Code  Wk  los_timer.o [1]
HalTaskSchedule          0x800'2a49           Code  Gb  los_dispatch.o [1]
HalTickLock              0x800'5c7d     0x10  Code  Wk  los_timer.o [1]
HalTickStart             0x800'56c9     0x6c  Code  Wk  los_timer.o [1]
HalTskStackInit          0x800'2c1d    0x118  Code  Gb  los_context.o [1]
HalTskStackInit::__FUNCTION__
                         0x800'2dd4     0x10  Data  Lc  los_context.o [1]
HardFault_Handler        0x800'7be3      0x2  Code  Gb  stm32f4xx_it.o [1]
LOS_CurTaskIDGet         0x800'310f     0x12  Code  Gb  los_task.o [1]
LOS_KernelInit           0x800'2871     0x94  Code  Gb  los_init.o [1]
LOS_ListAdd              0x800'3611      0xe  Code  Lc  los_mux.o [1]
LOS_ListAdd              0x800'366d      0xe  Code  Lc  los_queue.o [1]
LOS_ListAdd              0x800'4275      0xe  Code  Lc  los_sched.o [1]
LOS_ListAdd              0x800'35b5      0xe  Code  Lc  los_sem.o [1]
LOS_ListAdd              0x800'5855      0xe  Code  Lc  los_sortlink.o [1]
LOS_ListAdd              0x800'2e01      0xe  Code  Lc  los_task.o [1]
LOS_ListDelete           0x800'4287     0x14  Code  Lc  los_sched.o [1]
LOS_ListDelete           0x800'2e13     0x14  Code  Lc  los_task.o [1]
LOS_ListEmpty            0x800'367b      0xe  Code  Lc  los_queue.o [1]
LOS_ListEmpty            0x800'429b      0xe  Code  Lc  los_sched.o [1]
LOS_ListEmpty            0x800'5863      0xe  Code  Lc  los_sortlink.o [1]
LOS_ListEmpty            0x800'3bad      0xe  Code  Lc  los_swtmr.o [1]
LOS_ListEmpty            0x800'2e27      0xe  Code  Lc  los_task.o [1]
LOS_ListTailInsert       0x800'4283      0x4  Code  Lc  los_sched.o [1]
LOS_ListTailInsert       0x800'2e0f      0x4  Code  Lc  los_task.o [1]
LOS_MemAlloc             0x800'1fbb     0x46  Code  Gb  los_memory.o [1]
LOS_MemAllocAlign        0x800'2001     0x8a  Code  Gb  los_memory.o [1]
LOS_MemFree              0x800'2205     0x50  Code  Gb  los_memory.o [1]
LOS_MemInfoGet           0x800'250b     0xce  Code  Gb  los_memory.o [1]
LOS_MemInit              0x800'1e37     0xe2  Code  Gb  los_memory.o [1]
LOS_MemIntegrityCheck    0x800'24c5     0x46  Code  Gb  los_memory.o [1]
LOS_Panic                0x800'2851     0x1a  Code  Gb  los_init.o [1]
LOS_QueueCreate          0x800'36db     0xd8  Code  Gb  los_queue.o [1]
LOS_QueueInfoGet         0x800'3a4b     0xb8  Code  Gb  los_queue.o [1]
LOS_QueueReadCopy        0x800'39f5     0x20  Code  Gb  los_queue.o [1]
LOS_QueueWriteCopy       0x800'3a15     0x16  Code  Gb  los_queue.o [1]
LOS_RegExcHook           0x800'5bc3     0x66  Code  Gb  los_exchook.o [1]
LOS_SchedTickHandler     0x800'482b    0x10a  Code  Gb  los_sched.o [1]
LOS_SchedTickHandler::__func__
                         0x800'4b38     0x18  Data  Lc  los_sched.o [1]
LOS_Schedule             0x800'4943     0x14  Code  Gb  los_sched.o [1]
LOS_Start                0x800'286b      0x6  Code  Gb  los_init.o [1]
LOS_TaskCreate           0x800'3293     0x34  Code  Gb  los_task.o [1]
LOS_TaskCreateOnly       0x800'31ad     0xe6  Code  Gb  los_task.o [1]
LOS_TaskDelay            0x800'338f     0x3a  Code  Gb  los_task.o [1]
LOS_TaskDelete           0x800'32c7     0xc2  Code  Gb  los_task.o [1]
LOS_TaskInfoGet          0x800'33e9     0xb8  Code  Gb  los_task.o [1]
LOS_TaskIsRunning        0x800'34a7      0x6  Code  Gb  los_task.o [1]
LOS_TaskYield            0x800'33cf     0x1a  Code  Gb  los_task.o [1]
LOS_TickCountGet         0x800'582f     0x1a  Code  Gb  los_tick.o [1]
LoadInt                  0x800'035b     0x7a  Code  Lc  xprintffull_nomb.o [2]
MX_GPIO_Init             0x800'6bc9     0x4c  Code  Gb  gpio.o [1]
MX_USART1_UART_Init      0x800'6a21     0x2e  Code  Gb  usart.o [1]
MemManage_Handler        0x800'7be5      0x2  Code  Gb  stm32f4xx_it.o [1]
NMI_Handler              0x800'7be1      0x2  Code  Gb  stm32f4xx_it.o [1]
OsAdd2SortLink           0x800'5903     0x80  Code  Gb  los_sortlink.o [1]
OsBackTraceHookCall      0x800'2ad5     0x20  Code  Gb  los_debug.o [1]
OsCheckTaskIDValid       0x800'2e35     0x2c  Code  Lc  los_task.o [1]
OsConvertTskStatus       0x800'2ea9     0x42  Code  Gb  los_task.o [1]
OsDeleteNodeSortLink     0x800'5879     0x1e  Code  Gb  los_sortlink.o [1]
OsDeleteSortLink         0x800'5985     0x3c  Code  Gb  los_sortlink.o [1]
OsDoExcHook              0x800'2b0d     0x1e  Code  Gb  los_debug.o [1]
OsExcContentGet          0x800'406f     0x52  Code  Lc  los_exc_info.o [1]
OsExcHookFunc            0x800'40d1     0x40  Code  Lc  los_exc_info.o [1]
OsExcHookRegister        0x800'2af5     0x18  Code  Gb  los_debug.o [1]
OsExcInfoDisplay         0x800'4fdd    0x168  Code  Lc  los_interrupt.o [1]
OsExcMemMsgGet           0x800'402d     0x42  Code  Lc  los_exc_info.o [1]
OsExcMemPoolCheckInfo    0x800'4ea5    0x12c  Code  Lc  los_interrupt.o [1]
OsExcMsgDump             0x800'4167     0x46  Code  Lc  los_exc_info.o [1]
OsExcMsgDumpInit         0x800'41ad     0x54  Code  Gb  los_exc_info.o [1]
OsExcNvicDump            0x800'4c27    0x11e  Code  Lc  los_interrupt.o [1]
OsExcQueueMsgGet         0x800'4111      0xe  Code  Lc  los_exc_info.o [1]
OsExcRegInfo             0x800'4d45    0x160  Code  Lc  los_interrupt.o [1]
OsExcRegister            0x800'4131     0x36  Code  Gb  los_exc_info.o [1]
OsExcSaveIntStatus       0x800'3f91     0x9c  Code  Lc  los_exc_info.o [1]
OsExcTaskMsgGet          0x800'411f      0xc  Code  Lc  los_exc_info.o [1]
OsGetAllTskInfo          0x800'2f93     0x96  Code  Gb  los_task.o [1]
OsGetCurrSchedTimeCycle
                         0x800'42cb     0x88  Code  Gb  los_sched.o [1]
OsGetCurrSchedTimeCycle::__func__
                         0x800'4ac8     0x18  Data  Lc  los_sched.o [1]
OsGetCurrSchedTimeCycle::oldSchedTime
                        0x2000'0278      0x8  Data  Lc  los_sched.o [1]
OsGetNextExpireTime      0x800'59f3     0x4e  Code  Gb  los_sortlink.o [1]
OsGetRealPtr             0x800'21a7     0x5e  Code  Lc  los_memory.o [1]
OsGetRealPtr::__FUNCTION__
                         0x800'2798     0x10  Data  Lc  los_memory.o [1]
OsGetSortLinkAttribute   0x800'59c9     0x2a  Code  Gb  los_sortlink.o [1]
OsGetSortLinkNextExpireTime
                         0x800'5897     0x6c  Code  Lc  los_sortlink.o [1]
OsGetTaskWaterLine       0x800'2eeb     0x58  Code  Gb  los_task.o [1]
OsGetTopTask             0x800'46ef     0x30  Code  Gb  los_sched.o [1]
OsIdleTaskCreate         0x800'30c3     0x4c  Code  Gb  los_task.o [1]
OsLogLevelCheck          0x800'2b2d     0x2e  Code  Gb  los_debug.o [1]
OsMemAddrValidCheck      0x800'208b     0x18  Code  Lc  los_memory.o [1]
OsMemAddrValidCheckPrint
                         0x800'2255     0x58  Code  Lc  los_memory.o [1]
OsMemAddrValidCheckPrint::__FUNCTION__
                         0x800'27c4     0x1c  Data  Lc  los_memory.o [1]
OsMemAlloc               0x800'1f19     0xa2  Code  Lc  los_memory.o [1]
OsMemAlloc::__FUNCTION__
                         0x800'2774      0xc  Data  Lc  los_memory.o [1]
OsMemBoxCheckMagic       0x800'5ab5     0x1a  Code  Lc  los_membox.o [1]
OsMemCheckUsedNode       0x800'20c5     0x6a  Code  Lc  los_memory.o [1]
OsMemExcInfoGet          0x800'271b     0x28  Code  Gb  los_memory.o [1]
OsMemExcInfoGetSub       0x800'267d     0x9e  Code  Lc  los_memory.o [1]
OsMemFFS                 0x800'1c05     0x12  Code  Lc  los_memory.o [1]
OsMemFindNextSuitableBlock
                         0x800'1c91     0xb0  Code  Lc  los_memory.o [1]
OsMemFlGet               0x800'1c17     0x18  Code  Lc  los_memory.o [1]
OsMemFree                0x800'212f     0x78  Code  Lc  los_memory.o [1]
OsMemFreeListIndexGet    0x800'1c73     0x1e  Code  Lc  los_memory.o [1]
OsMemFreeNodeAdd         0x800'1da7     0x20  Code  Lc  los_memory.o [1]
OsMemFreeNodeDelete      0x800'1dc7     0x12  Code  Lc  los_memory.o [1]
OsMemInfoPrint           0x800'25d9     0x68  Code  Lc  los_memory.o [1]
OsMemIntegrityCheck      0x800'2393     0x72  Code  Lc  los_memory.o [1]
OsMemIntegrityCheckError
                         0x800'2405     0xba  Code  Lc  los_memory.o [1]
OsMemIntegrityCheckSub::__FUNCTION__
                         0x800'27e0     0x18  Data  Lc  los_memory.o [1]
OsMemIsNodeValid         0x800'20a3     0x22  Code  Lc  los_memory.o [1]
OsMemListAdd             0x800'1d41     0x1e  Code  Lc  los_memory.o [1]
OsMemListDelete          0x800'1d5f     0x34  Code  Lc  los_memory.o [1]
OsMemMergeNode           0x800'1de1     0x12  Code  Lc  los_memory.o [1]
OsMemPoolDeinit          0x800'1e2b      0xc  Code  Lc  los_memory.o [1]
OsMemPoolHeadCheck       0x800'22b3     0xdc  Code  Lc  los_memory.o [1]
OsMemPoolHeadCheck::__FUNCTION__
                         0x800'27f8     0x14  Data  Lc  los_memory.o [1]
OsMemSlGet               0x800'1c2f     0x32  Code  Lc  los_memory.o [1]
OsMemSplitNode           0x800'1df3     0x38  Code  Lc  los_memory.o [1]
OsMemSystemInit          0x800'2649     0x2c  Code  Gb  los_memory.o [1]
OsMemWaterUsedRecord     0x800'1c61     0x12  Code  Lc  los_memory.o [1]
OsMemboxExcInfoGet       0x800'5b53     0x26  Code  Gb  los_membox.o [1]
OsMemboxExcInfoGetSub    0x800'5acf     0x84  Code  Lc  los_membox.o [1]
OsMuxInit                0x800'361f     0x40  Code  Gb  los_mux.o [1]
OsNewTaskInit            0x800'315d     0x50  Code  Gb  los_task.o [1]
OsPrintAllTskInfoHeader
                         0x800'2f43     0x50  Code  Gb  los_task.o [1]
OsQueueBufferOperate     0x800'3813     0xe4  Code  Lc  los_queue.o [1]
OsQueueBufferOperate::__FUNCTION__
                         0x800'3b74     0x18  Data  Lc  los_queue.o [1]
OsQueueInit              0x800'3689     0x52  Code  Gb  los_queue.o [1]
OsQueueOperate           0x800'38f7     0xfe  Code  Gb  los_queue.o [1]
OsQueueReadParameterCheck
                         0x800'37b3     0x32  Code  Lc  los_queue.o [1]
OsQueueWriteParameterCheck
                         0x800'37e5     0x28  Code  Lc  los_queue.o [1]
OsRecyleFinishedTask     0x800'2e61     0x48  Code  Lc  los_task.o [1]
OsSchedDelay             0x800'4619      0xc  Code  Gb  los_sched.o [1]
OsSchedInit              0x800'46a9     0x46  Code  Gb  los_sched.o [1]
OsSchedSetIdleTaskSchedPartam
                         0x800'4695      0x2  Code  Gb  los_sched.o [1]
OsSchedSetNextExpireTime
                         0x800'439b     0xd2  Code  Lc  los_sched.o [1]
OsSchedStart             0x800'471f     0x70  Code  Gb  los_sched.o [1]
OsSchedSwtmrScanRegister
                         0x800'4697     0x12  Code  Gb  los_sched.o [1]
OsSchedTaskDeQueue       0x800'4585     0x40  Code  Gb  los_sched.o [1]
OsSchedTaskEnQueue       0x800'44bf     0x9a  Code  Gb  los_sched.o [1]
OsSchedTaskEnQueue::__func__
                         0x800'4b10     0x14  Data  Lc  los_sched.o [1]
OsSchedTaskExit          0x800'45d1     0x36  Code  Gb  los_sched.o [1]
OsSchedTaskSwitch        0x800'478f     0x9c  Code  Gb  los_sched.o [1]
OsSchedTaskWait          0x800'4625     0x2c  Code  Gb  los_sched.o [1]
OsSchedTaskWake          0x800'4651     0x2e  Code  Gb  los_sched.o [1]
OsSchedToSleep           0x800'4a1b     0x74  Code  Gb  los_sched.o [1]
OsSchedUpdateExpireTime
                         0x800'446d     0x52  Code  Gb  los_sched.o [1]
OsSchedUpdateSchedTimeBase
                         0x800'42a9     0x22  Code  Gb  los_sched.o [1]
OsSchedUpdateSleepTime   0x800'4957     0xc4  Code  Gb  los_sched.o [1]
OsSchedYield             0x800'460d      0xc  Code  Gb  los_sched.o [1]
OsSemInit                0x800'35c3     0x42  Code  Gb  los_sem.o [1]
OsSetVector              0x800'4b8d     0x26  Code  Gb  los_interrupt.o [1]
OsSortLinkGetTargetExpireTime
                         0x800'5a41     0x32  Code  Gb  los_sortlink.o [1]
OsSortLinkInit           0x800'5871      0x8  Code  Gb  los_sortlink.o [1]
OsSwtmrDelete            0x800'3de3     0x34  Code  Lc  los_swtmr.o [1]
OsSwtmrFindAlignPos      0x800'3c69    0x10a  Code  Gb  los_swtmr.o [1]
OsSwtmrInit              0x800'3eb3     0xa0  Code  Gb  los_swtmr.o [1]
OsSwtmrScan              0x800'3e17     0x9c  Code  Lc  los_swtmr.o [1]
OsSwtmrStart             0x800'3d73     0x70  Code  Gb  los_swtmr.o [1]
OsSwtmrTask              0x800'3bbb     0x78  Code  Gb  los_swtmr.o [1]
OsSwtmrTaskCreate        0x800'3c33     0x36  Code  Gb  los_swtmr.o [1]
OsTaskEntry              0x800'3121     0x34  Code  Gb  los_task.o [1]
OsTaskInit               0x800'302f     0x94  Code  Gb  los_task.o [1]
OsTickHandler            0x800'5821      0xe  Code  Gb  los_tick.o [1]
OsTimeSliceUpdate        0x800'4353     0x48  Code  Lc  los_sched.o [1]
OsTimeSliceUpdate::__func__
                         0x800'4afc     0x14  Data  Lc  los_sched.o [1]
PendSV_Handler           0x800'7bef      0x2  Code  Gb  stm32f4xx_it.o [1]
Region$$Table$$Base      0x800'7b48            --   Gb  - Linker created -
Region$$Table$$Limit     0x800'7b68            --   Gb  - Linker created -
Reset_Handler            0x800'7c19           Code  Wk  startup_stm32f429xx.o [1]
RunTaskSample            0x800'6835     0x16  Code  Gb  task_sample.o [1]
SVC_Handler              0x800'7beb      0x2  Code  Gb  stm32f4xx_it.o [1]
SecMemcpyError           0x800'2b75     0x4a  Code  Lc  memcpy_s.o [1]
SecMemsetError           0x800'2989     0x24  Code  Lc  memset_s.o [1]
SysTick_Handler          0x800'7bf1      0x4  Code  Gb  stm32f4xx_it.o [1]
SystemClock_Config       0x800'6add     0xaa  Code  Gb  main.o [1]
SystemCoreClock         0x2000'14a4      0x4  Data  Gb  system_stm32f4xx.o [1]
SystemInit               0x800'7b69      0xc  Code  Gb  system_stm32f4xx.o [1]
TaskSample               0x800'67d5     0x56  Code  Gb  task_sample.o [1]
TaskSampleEntry1         0x800'67bd     0x16  Code  Gb  task_sample.o [1]
TaskSampleEntry2         0x800'67a5     0x16  Code  Gb  task_sample.o [1]
UART_SetConfig           0x800'695b     0xae  Code  Lc  stm32f4xx_hal_uart.o [1]
UsageFault_Handler       0x800'7be9      0x2  Code  Gb  stm32f4xx_it.o [1]
_Close_all               0x800'78a9     0x3c  Code  Gb  xcloseall.o [2]
_Files                  0x2000'1580     0x20  Data  Gb  xfiles.o [2]
_Fofree                  0x800'75e5     0x86  Code  Gb  xfofind.o [2]
_Fspos                   0x800'6e8d     0xd8  Code  Gb  xfspos.o [2]
_Fwprep                  0x800'7265     0xb4  Code  Gb  xfwprep.o [2]
_GenldFullNoMb           0x800'0c9d    0x274  Code  Lc  xprintffull_nomb.o [2]
_LdtobFullNoMb           0x800'0899    0x3d6  Code  Lc  xprintffull_nomb.o [2]
_LitobFullNoMb           0x800'0749    0x10a  Code  Lc  xprintffull_nomb.o [2]
_Locale_lconv           0x2000'15a0     0x38  Data  Lc  xlocale_c.o [2]
_Nnl                     0x800'7011      0xc  Code  Gb  xfgpos.o [2]
_PrintfFullNoMb          0x800'01ad    0x19e  Code  Gb  xprintffull_nomb.o [2]
_Prout                   0x800'7bbf     0x16  Code  Gb  xprout.o [2]
_PutcharsFullNoMb        0x800'0f11     0x2e  Code  Lc  xprintffull_nomb.o [2]
_PutfldFullNoMb          0x800'03d5    0x268  Code  Lc  xprintffull_nomb.o [2]
_PuttxtFullNoMb          0x800'063d    0x10c  Code  Lc  xprintffull_nomb.o [2]
__NVIC_SetPriority       0x800'659d     0x1a  Code  Lc  stm32f4xx_hal_cortex.o [1]
__aeabi_cdcmple          0x800'1449           Code  Gb  DblCmpLe.o [3]
__aeabi_cdrcmple         0x800'1479           Code  Gb  DblCmpGe.o [3]
__aeabi_d2iz             0x800'15e5           Code  Gb  DblToS32.o [3]
__aeabi_d2uiz            0x800'1971           Code  Gb  DblToU32.o [3]
__aeabi_ddiv             0x800'1729           Code  Gb  DblDiv.o [3]
__aeabi_dmul             0x800'121d           Code  Gb  DblMul.o [3]
__aeabi_dsub             0x800'1645           Code  Gb  DblSub.o [3]
__aeabi_i2d              0x800'1621           Code  Gb  S32ToDbl.o [3]
__aeabi_ldiv0            0x800'19c5           Code  Gb  I64DivZer.o [4]
__aeabi_memclr           0x800'4b51           Code  Gb  ABImemclr.o [4]
__aeabi_memclr4          0x800'2c09           Code  Gb  ABImemclr4.o [4]
__aeabi_ui2d             0x800'1999           Code  Gb  U32ToDbl.o [3]
__cexit_closeall         0x800'7bb3           Code  Gb  cexit.o [4]
__close                  0x800'76ef     0x18  Code  Gb  close.o [5]
__cmain                  0x800'7b89           Code  Gb  cmain.o [4]
__cstart_closeall        0x800'7da8           Data  Gb  cstart_closeall.o [4]
__dwrite                 0x800'7145     0x1e  Code  Gb  dwrite.o [5]
__exit                   0x800'1b35     0x14  Code  Gb  exit.o [5]
__iar_Fail_s             0x800'1069     0x1c  Code  Gb  xfail_s.o [2]
__iar_Memchr             0x800'10bd           Code  Gb  memchr.o [4]
__iar_Memset4_word       0x800'4b59           Code  Gb  ABImemset48.o [4]
__iar_Memset8_word       0x800'4b59           Code  Gb  ABImemset48.o [4]
__iar_Stderr            0x2000'1538     0x48  Data  Gb  xfiles.o [2]
__iar_Stdin             0x2000'14a8     0x48  Data  Gb  xfiles.o [2]
__iar_Stdout            0x2000'14f0     0x48  Data  Gb  xfiles.o [2]
__iar_Strchr             0x800'1019           Code  Gb  strchr.o [4]
__iar_close_ttio         0x800'1b49     0x2e  Code  Gb  iarttio.o [5]
__iar_dadd               0x800'1655           Code  Gb  DblSub.o [3]
__iar_data_init3         0x800'7ab5     0x28  Code  Gb  data_init.o [4]
__iar_dsub               0x800'19c9           Code  Gb  DblAdd.o [3]
__iar_dsubStart          0x800'19db           Code  Gb  DblAdd.o [3]
__iar_frexp              0x800'13e5           Code  Gb  frexp.o [3]
__iar_frexpl             0x800'13e5           Code  Gb  frexp.o [3]
__iar_get_ttio           0x800'1b79     0x4c  Code  Gb  iarttio.o [5]
__iar_init_vfp           0x800'7b25           Code  Gb  fpinit_M.o [3]
__iar_ldexp64            0x800'14a9           Code  Gb  ldexp.o [3]
__iar_lookup_ttioh       0x800'1bf7      0x4  Code  Gb  XShttio.o [2]
__iar_lz77_init_single3
                         0x800'0f9f     0x7a  Code  Gb  lz77_init_single.o [4]
__iar_program_start      0x800'7c29           Code  Gb  cstartup_M.o [4]
__iar_scalbln64          0x800'14a9           Code  Gb  ldexp.o [3]
__iar_scalbn64           0x800'14a9           Code  Gb  ldexp.o [3]
__iar_sh_Discard         0x800'7079     0x42  Code  Gb  XShHandles.o [2]
__iar_sh_Move            0x800'70bb     0x46  Code  Gb  XShHandles.o [2]
__iar_sh_Pos             0x800'7101     0x3e  Code  Gb  XShHandles.o [2]
__iar_sh_stdout          0x800'7163     0x20  Code  Gb  iarwstd.o [5]
__iar_sh_write           0x800'7183     0x22  Code  Gb  iarwrite.o [5]
__iar_small_Memcpy       0x800'13c5           Code  Gb  ABImemcpy_small.o [4]
__iar_small_Memset       0x800'4261           Code  Gb  ABImemset_small.o [4]
__iar_small_Memset_word
                         0x800'4261           Code  Gb  ABImemset_small.o [4]
__iar_small_memcpy       0x800'13c1           Code  Gb  ABImemcpy_small.o [4]
__iar_small_memcpy4      0x800'13c1           Code  Gb  ABImemcpy_small.o [4]
__iar_small_memcpy8      0x800'13c1           Code  Gb  ABImemcpy_small.o [4]
__iar_small_memset       0x800'4261           Code  Gb  ABImemset_small.o [4]
__iar_small_strlen       0x800'10a9           Code  Gb  strlen_small.o [4]
__iar_small_uldivmod     0x800'1115           Code  Gb  I64DivMod_small.o [4]
__iar_softfp___iar_frexp64
                         0x800'13d9           Code  Gb  frexp.o [3]
__iar_softfp_frexp       0x800'13d9           Code  Gb  frexp.o [3]
__iar_softfp_frexpl      0x800'13d9           Code  Gb  frexp.o [3]
__iar_ttio_guard_lock    0x800'1bc9     0x1e  Code  Gb  XShttio.o [2]
__iar_ttio_guard_unlock
                         0x800'1be7     0x10  Code  Gb  XShttio.o [2]
__iar_ttio_handles      0x2000'15d8      0x8  Data  Lc  XShttio.o [2]
__iar_zero_init3         0x800'102f     0x3a  Code  Gb  zero_init3.o [4]
__low_level_init         0x800'7ba7      0x4  Code  Gb  low_level_init.o [2]
__lseek                  0x800'701d     0x4a  Code  Gb  lseek.o [5]
__vector_table           0x800'0000           Data  Gb  startup_stm32f429xx.o [1]
__write                  0x800'7067     0x10  Code  Gb  write.o [5]
_call_main               0x800'7b95           Code  Gb  cmain.o [4]
_exit                    0x800'7bb1           Code  Gb  cexit.o [4]
_main                    0x800'7ba3           Code  Gb  cmain.o [4]
abort                    0x800'19bd      0x6  Code  Gb  abort.o [2]
ebuf                    0x2001'1ae4     0x50  Data  Lc  xfiles.o [2]
exit                     0x800'7bab      0x4  Code  Gb  exit.o [2]
fclose                   0x800'7671     0x7e  Code  Gb  fclose.o [2]
fflush                   0x800'6fd9     0x34  Code  Gb  fflush.o [2]
fflushOne                0x800'6f65     0x74  Code  Lc  fflush.o [2]
fputc                    0x800'7785     0x54  Code  Gb  fputc.o [2]
free                     0x800'7319      0xe  Code  Gb  malloc.o [1]
fseek                    0x800'7339     0x24  Code  Gb  fseek.o [2]
g_allMux                0x2001'1c5c      0x4  Data  Gb  los_mux.o [1]
g_allQueue              0x2001'1c68      0x4  Data  Gb  los_queue.o [1]
g_allSem                0x2001'1c74      0x4  Data  Gb  los_sem.o [1]
g_backTraceHook         0x2001'1c7c      0x4  Data  Lc  los_debug.o [1]
g_cyclesPerTick         0x2001'1c88      0x4  Data  Gb  los_tick.o [1]
g_excArray              0x2000'02ac     0x60  Data  Lc  los_exc_info.o [1]
g_excArraySize          0x2000'0318      0x4  Data  Gb  los_exc_info.o [1]
g_excContent            0x2000'0314      0x4  Data  Gb  los_exc_info.o [1]
g_excHeads              0x2001'1c10     0x14  Data  Lc  los_exchook.o [1]
g_excHook               0x2001'1c78      0x4  Data  Lc  los_debug.o [1]
g_excInfo               0x2001'1bf8     0x14  Data  Gb  los_interrupt.o [1]
g_excMemMaxNum          0x2000'0310      0x4  Data  Gb  los_exc_info.o [1]
g_excMsgArray           0x2000'031c   0x115c  Data  Gb  los_exc_info.o [1]
g_excNodes              0x2001'19e4     0x80  Data  Lc  los_exchook.o [1]
g_excQueueMaxNum        0x2000'030c      0x4  Data  Gb  los_exc_info.o [1]
g_freeQueueList         0x2001'1c60      0x8  Data  Gb  los_queue.o [1]
g_hwiForm               0x2000'0000    0x240  Data  Lc  los_interrupt.o [1]
g_hwiHandlerForm        0x2001'15e4    0x240  Data  Lc  los_interrupt.o [1]
g_idleTaskID            0x2001'1bec      0x4  Data  Gb  los_task.o [1]
g_intCount              0x2001'1c0c      0x4  Data  Gb  los_interrupt.o [1]
g_integrityCheckRecord  0x2001'1c24     0x10  Data  Gb  los_memory.o [1]
g_logString             0x2000'0294     0x18  Data  Lc  los_debug.o [1]
g_losFreeTask           0x2001'1bcc      0x8  Data  Gb  los_task.o [1]
g_losTask               0x2001'1be0      0x8  Data  Gb  los_task.o [1]
g_losTaskLock           0x2001'1bc8      0x2  Data  Gb  los_task.o [1]
g_memBoxHead            0x2001'1c80      0x4  Data  Lc  los_membox.o [1]
g_memStart              0x2000'15e4  0x10000  Data  Lc  los_memory.o [1]
g_poolHead              0x2001'1c84      0x4  Data  Gb  los_memory.o [1]
g_priQueueList          0x2001'1824    0x100  Data  Lc  los_sched.o [1]
g_queueBitmap           0x2000'0288      0x4  Data  Lc  los_sched.o [1]
g_schedEntrySleepTime   0x2000'0268      0x8  Data  Lc  los_sched.o [1]
g_schedResponseID       0x2000'028c      0x4  Data  Lc  los_sched.o [1]
g_schedResponseTime     0x2000'0258      0x8  Data  Lc  los_sched.o [1]
g_schedSleepCB          0x2000'0240     0x14  Data  Lc  los_sched.o [1]
g_schedSleepFlags       0x2000'0290      0x4  Data  Lc  los_sched.o [1]
g_schedSleepTime        0x2000'0260      0x8  Data  Lc  los_sched.o [1]
g_schedTimerBase        0x2000'0270      0x8  Data  Lc  los_sched.o [1]
g_swtmrAlignID          0x2001'1924     0xc0  Data  Gb  los_swtmr.o [1]
g_swtmrCBArray          0x2001'1c48      0x4  Data  Gb  los_swtmr.o [1]
g_swtmrFreeList         0x2001'1c4c      0x4  Data  Gb  los_swtmr.o [1]
g_swtmrHandlerQueue     0x2001'1c44      0x4  Data  Gb  los_swtmr.o [1]
g_swtmrScan             0x2000'0280      0x4  Data  Lc  los_sched.o [1]
g_swtmrSortLink         0x2001'1c3c      0x8  Data  Lc  los_sortlink.o [1]
g_swtmrSortLinkList     0x2001'1c50      0x4  Data  Gb  los_swtmr.o [1]
g_swtmrTaskID           0x2001'1bf0      0x4  Data  Gb  los_task.o [1]
g_sysClock              0x2001'1c8c      0x4  Data  Gb  los_tick.o [1]
g_taskCBArray           0x2001'1bdc      0x4  Data  Gb  los_task.o [1]
g_taskMaxNum            0x2001'1be8      0x4  Data  Gb  los_task.o [1]
g_taskRecyleList        0x2001'1bd4      0x8  Data  Gb  los_task.o [1]
g_taskScheduled         0x2001'1bf4      0x4  Data  Gb  los_task.o [1]
g_taskSortLink          0x2001'1c34      0x8  Data  Lc  los_sortlink.o [1]
g_taskSortLinkList      0x2000'0284      0x4  Data  Lc  los_sched.o [1]
g_unusedMuxList         0x2001'1c54      0x8  Data  Gb  los_mux.o [1]
g_unusedSemList         0x2001'1c6c      0x8  Data  Gb  los_sem.o [1]
g_uwExcTbl              0x2000'1478     0x20  Data  Gb  los_interrupt.o [1]
huart1                  0x2001'1b84     0x44  Data  Gb  usart.o [1]
ldexp                    0x800'14a9           Code  Gb  ldexp.o [3]
ldexpl                   0x800'14a9           Code  Gb  ldexp.o [3]
localeconv               0x800'19b5      0x4  Code  Gb  xlocale_c.o [2]
m_aucSysMem0            0x2000'15e0      0x4  Data  Gb  los_memory.o [1]
main                     0x800'6ac5     0x18  Code  Gb  main.o [1]
malloc                   0x800'7327      0xe  Code  Gb  malloc.o [1]
memchr                   0x800'10bd           Code  Gb  memchr.o [4]
memcpy_s                 0x800'2bbf     0x3e  Code  Gb  memcpy_s.o [1]
memset                   0x800'7c05     0x14  Code  Gb  memset.o [4]
memset_s                 0x800'29ad     0x2c  Code  Gb  memset_s.o [1]
obuf                    0x2001'1b34     0x50  Data  Lc  xfiles.o [2]
printf                   0x800'2829     0x28  Code  Gb  printf.o [2]
putchar                  0x800'7bd5      0xc  Code  Gb  putchar.o [2]
remove                   0x800'7707     0x14  Code  Gb  remove.o [5]
sFileInfo               0x2001'1a64     0x80  Data  Lc  XShHandles.o [2]
scalbln                  0x800'14a9           Code  Gb  ldexp.o [3]
scalblnl                 0x800'14a9           Code  Gb  ldexp.o [3]
scalbn                   0x800'14a9           Code  Gb  ldexp.o [3]
scalbnl                  0x800'14a9           Code  Gb  ldexp.o [3]
scale                    0x800'0853     0x46  Code  Lc  xprintffull_nomb.o [2]
sec_hand                0x2001'1c90      0x4  Data  Lc  xfail_s.o [2]
strchr                   0x800'1019           Code  Gb  strchr.o [4]
strncpy_error            0x800'5735     0x4c  Code  Gb  strncpy_s.o [1]
strncpy_s                0x800'5781     0x8a  Code  Gb  strncpy_s.o [1]
ttio_guard              0x2001'1c94      0x1  Data  Lc  XShttio.o [2]
uwTick                  0x2000'149c      0x4  Data  Gb  stm32f4xx_hal.o [1]
uwTickFreq              0x2000'1498      0x1  Data  Gb  stm32f4xx_hal.o [1]
uwTickPrio              0x2000'14a0      0x4  Data  Gb  stm32f4xx_hal.o [1]


[1] = D:\00_gitee\kernel_liteos_m\targets\cortex-m4_stm32f429ig_fire-challenger_iar\EWARM\stm32f429ig_firechallenger_iar\Obj
[2] = dl7M_tlf.a
[3] = m7M_tls.a
[4] = rt7M_tl.a
[5] = shb_l.a

  29 628 bytes of readonly  code memory
   2 776 bytes of readonly  data memory
  73 877 bytes of readwrite data memory

Errors: none
Warnings: none
